:020000040800F2
:100000007004002045010008591200081912000868
:10001000551200086507000845220008000000008E
:100020000000000000000000000000003D16000875
:10003000B910000800000000ED13000825170008A3
:100040005F0100085F0100085F0100085F01000810
:100050005F0100085F0100085F0100085F01000800
:100060005F0100085F0100085F0100085F010008F0
:100070005F0100085F0100085F0100085F010008E0
:100080005F0100085F0100085F0100085F010008D0
:10009000652100085F0100085F0100085F0100089A
:1000A0005F0100085F0100085F0100085F010008B0
:1000B0005F010008811B00085F0100085F01000864
:1000C0005F0100085F0100085F0100085F01000890
:1000D0005F010008391F0008551F00085F01000874
:1000E0005F0100085F0100085F0100085F01000870
:1000F0005F0100085F0100085F0100085F01000860
:100100005F0100085F0100085F0100085F0100084F
:100110005F0100085F0100085F0100085F0100083F
:100120005F0100085F0100085F0100085F0100082F
:10013000DFF80CD000F076F900480047F9250008F8
:10014000700400200648804706480047FEE7FEE7A7
:10015000FEE7FEE7FEE7FEE7FEE7FEE7FEE7FEE777
:1001600021180008310100082DE9FE4F81EA03043F
:1001700004F0004421F0004100944FF0000B23F004
:10018000004350EA010402D052EA030404D10020E3
:10019000014603B0BDE8F08FC3F30A54C1F30A551A
:1001A0002C44A4F2F3340194A0FB0254C1F31301D4
:1001B00041F48011C3F3130343F4801301FB0244A1
:1001C00000FB034E840A970A44EA815447EA8357A6
:1001D000A4FB076802958D0A05FB07854FEA932C5F
:1001E00004FB0C542705029D4FEA065847EA1637D0
:1001F000B5EB08056EEB070C870E920E47EA8117E8
:1002000042EA8312A7FB0201B6EB0B0164EB000488
:100210002B0D43EA0C335E1844EB1C50DA46514672
:10022000E7FB0201C5F313044FEA0B3343EA14530F
:100230004FEA0432019C43EA0603A4F10C04029441
:10024000009CCDE900B400F09BF8A2E70EB5C10F09
:1002500080EAE0700844CA07002140F233438DE889
:100260000E000A460B4600F08BF803B000BD20F0EC
:100270000040C10DC0F3160040F400007F2901DAF0
:1002800000207047962903DCC1F19601C8407047F1
:1002900096398840704701F0004330B421F00041A6
:1002A00050EA010206D00A0DA2F56072C1F31301F3
:1002B000002A02DC30BC00207047440F44EAC1042D
:1002C000C100E01830BC00EBC25000F016B830B5E9
:1002D0000B46014600202022012409E021FA02F504
:1002E0009D4205D303FA02F5491B04FA02F528449E
:1002F000151EA2F10102F1DC30BD0029A8BF704734
:10030000401C490008BF20F00100704710B4B0FA4B
:1003100080FC00FA0CF050EA010404BF10BC7047E6
:1003200049B1CCF1200421FA04F411FA0CF118BF00
:10033000012121430843A3EB0C01CB1D0106000A58
:10034000002BBEBF002010BC704700EBC350104410
:100350000029A4BF10BC7047401C490008BF20F012
:10036000010010BC704710B5002B08DA401C41F1A9
:10037000000192185B411A4301D120F0010010BD29
:100380002DE9F04D92469B4611B1B1FA81F202E09F
:10039000B0FA80F22032904600F056F804460F463C
:1003A00040EA0A0041EA0B0153465A46084303D18A
:1003B00020463946BDE8F08D114653EA010015D0BC
:1003C000C8F14002504600F04EF805460E46504631
:1003D0005946424600F038F8084301D0012000E0B9
:1003E0000020054346EAE0762C4337430A984FEA5B
:1003F0004453A0EB08004FEAD4240A304FF0000227
:1004000044EA47544FEAD72502D500200146D1E7F8
:10041000010510196941DDE9084500196941BDE888
:10042000F04DA0E7064C074D06E0E06840F0010300
:1004300094E8070098471034AC42F6D3FFF77CFEEF
:100440000427000824270008202A04DB203A00FAA9
:1004500002F1002070479140C2F1200320FA03F31B
:10046000194390407047202A04DB203A21FA02F019
:100470000021704721FA02F3D040C2F120029140DE
:10048000084319467047000008B50121084601F0ED
:1004900009F801214FF4047001F034F80120ADF89F
:1004A000000000208DF803006946024800F01AFEA3
:1004B00008BD00000010014010B5FFF7E5FF00F097
:1004C00001F810BD00B591B0334800F0E9FB3348A6
:1004D00006903348079000200890012009900020E2
:1004E0000A900B904FF480700C9080000D902020AB
:1004F0000E9000020F900020109006A9264800F0F0
:1005000075FC0121244800F0BEFB002001908DF80D
:10051000080001208DF809004FF4602003900020AE
:10052000049001208DF8140001A91C484C3800F0FB
:1005300063F84FF4404000F0A9FF052301220A218F
:1005400016484C3800F080F8012114484C3800F06F
:1005500034F8012111484C3800F024F80F484C3889
:1005600000F0CEF800BF0D484C3800F03BF80028F2
:10057000F9D10A484C3800F0D3F800BF07484C388E
:1005800000F026F80028F9D1012104484C3800F089
:10059000BCF811B000BD0000080002404C2401402E
:1005A0004800002021B1826842F00102826003E02D
:1005B000826822F001028260704721B1826842F4B1
:1005C0008072826003E0826822F4807282607047E9
:1005D000014600208A6812F0040F01D0012000E0DB
:1005E00000207047014600208A6812F0080F01D0F1
:1005F000012000E00020704730B5024600200023B3
:1006000050680F4C20400D790C6844EA05242043C3
:10061000506090680B4C2040D1E902542C434D7936
:1006200044EA450420439060D06A20F470000C7CBA
:10063000641EE4B2234340EA0350D06230BD0000A0
:10064000FFFEF0FFFDF7F1FFF0B504460D46002078
:100650000021092D11DDE068A5F10A0606EB460729
:10066000072606FA07F18843A5F10A0606EB4606B7
:1006700003FA06F10843E0600CE0206905EB45074A
:10068000072606FA07F1884305EB450603FA06F14B
:1006900008432061072A0FDA606B561E06EB8607B7
:1006A0001F2606FA07F18843561E06EB860605FA52
:1006B00006F10843606322E00D2A0FDA206BD61F93
:1006C00006EB86071F2606FA07F18843D61F06EBBE
:1006D000860605FA06F10843206310E0E06AA2F1FD
:1006E0000D0606EB86071F2606FA07F18843A2F1DE
:1006F0000D0606EB860605FA06F10843E062F0BD3A
:10070000816841F008018160704721B1826842F43C
:10071000A002826003E0826822F4A0028260704737
:10072000816841F0040181607047000008B5012133
:10073000082000F0E7FE4FF40070ADF80000102034
:100740008DF8030003208DF802006946044800F08C
:10075000C9FC4FF40071024800F05AFD08BD0000CA
:10076000000C014000BFFEE7B1F5007F3AD00FDC7E
:10077000202928D006DC01291CD004291DD00829F5
:1007800040D11DE0402921D0B1F5807F3AD126E04B
:10079000B1F5004F31D006DCB1F5806F25D0B1F551
:1007A000006F2FD124E0B1F5803F12D0B1F5003FAA
:1007B00028D111E0154A826025E00822C26022E0BB
:1007C0001022C2601FE0082202611CE010220261B8
:1007D00019E00822426016E01022426013E0042271
:1007E000426010E0042242600DE0042242600AE010
:1007F000002282610422426005E00022826104221C
:10080000426000E000BF00BF70470000010101002E
:1008100000B589B00121042000F074FE01214806D2
:1008200000F050FE4FF40060ADF8040003208DF896
:10083000060004208DF8070001A92D4800F052FCA5
:100840004FF48050ADF8040018208DF8070001A97E
:10085000274800F047FC274800F05AF806A800F0A7
:1008600002FA00208DF81E0001208DF81F000020E4
:100870008DF820008DF821008DF8220001208DF8E0
:10088000230000208DF81A008DF81B0002208DF83F
:100890001C0001208DF81D000620ADF8180006A9E7
:1008A000144800F0DEF810B913A001F0CDFC0020D0
:1008B0008DF812008DF8130001208DF8140000202F
:1008C000ADF80800ADF80A00ADF80C00ADF80E0068
:1008D000ADF8100001208DF8150001220221054815
:1008E00000F0B6F802A800F02FF809B000BD000033
:1008F000000801400064004043414EC4A3BFE9B377
:10090000F5CABCBBAFCAA7B0DC210D0A00000000CD
:1009100010B504460B48844209D10121480600F075
:10092000E1FD00214FF0007000F0DCFD08E0012146
:10093000880600F0D7FD00214FF0806000F0D2FD66
:1009400010BD00000064004010B50021837A012230
:1009500002FA03F13D4A126842F001023B4B1A6071
:100960003A4A1C3212688A43384B1C331A60027BA5
:10097000CAB9364A0C3212688A43344B0C331A60B7
:100980004288C38842EA0343304A4032847A42F8BC
:1009900034300288838842EA03432C4A4032847A06
:1009A00002EBC4025360027B012A19D1274A0C32A0
:1009B00012680A43254B0C331A604288038842EAC6
:1009C0000343224A4032847A42F83430C288838812
:1009D00042EA03431D4A4032847A02EBC402536068
:1009E000C27A3AB9194A121D12688A43174B1B1D65
:1009F0001A6006E0154A121D12680A43134B1B1DAC
:100A00001A60028932B9114A143212688A430F4BB4
:100A100014331A600289012A06D10C4A1432126872
:100A20000A430A4B14331A60427B012A06D1074A53
:100A30001C3212680A43054B1C331A60034A1268C1
:100A400022F00102014B1A6010BD00000066004058
:100A50001AB143690B43436102E043698B4343612D
:100A6000704730B5024600200023146824F00204C9
:100A70001460146844F00104146000E05B1C5468C6
:100A800014F0010F03D1A3F57F44FF3CF6D1546865
:100A900014F0010F01D100206CE08C79012C04D1FD
:100AA000146844F08004146003E0146824F08004A7
:100AB0001460CC79012C04D1146844F04004146013
:100AC00003E0146824F0400414600C7A012C04D173
:100AD000146844F02004146003E0146824F0200437
:100AE00014604C7A012C04D1146844F01004146092
:100AF00003E0146824F0100414608C7A012C04D1F3
:100B0000146844F00804146003E0146824F0080436
:100B10001460CC7A012C04D1146844F004041460ED
:100B200003E0146824F0040414608C78A407CD78E2
:100B300044EA05640D7944EA05444D7944EA0554D4
:100B40000D886D1E2C43D461146824F001041460D8
:100B5000002300E05B1C546814F0010F03D0A3F5E0
:100B60007F44FF3CF6D1546814F0010F01D00020FF
:100B700000E0012030BD10B500F5D87303EB011380
:100B80001B6803F004031372137A53B900F5D8738A
:100B900003EB01131B6840F2FF7404EA5353136024
:100BA00009E000F5D87303EB01131B686FF0604494
:100BB00004EAD303536000F5D87303EB01131B68F9
:100BC00003F00203537200F5D87303EB01135B6863
:100BD00003F00F03937200F5D87303EB01135B6806
:100BE0001B0AD37400F5D87303EB01139B68D3720F
:100BF00000F5D87303EB01139B681C0A147300F50E
:100C0000D87303EB01139B681C0C547300F5D87365
:100C100003EB01139B681B0E937300F5D87303EB72
:100C20000113DB68D37300F5D87303EB0113DB68A2
:100C30001C0A147400F5D87303EB0113DB681C0C59
:100C4000547400F5D87303EB0113DB681B0E937427
:100C500021B9C36843F02003C36003E0036943F094
:100C60002003036110BD00218171C17101724172C5
:100C70008172C1728170C1700321017102214171C1
:100C800001210180704721B1026842F00102026037
:100C900004E002684FF6FE731A40026070470000DD
:100CA00001684FF6FE721140016000210160416051
:100CB0008160C1604B49884208D14A490839496876
:100CC00041F00F01474A083A51608AE04549143122
:100CD000884208D143490839496841F0F001414A46
:100CE000083A51607DE03F492831884208D13D49AA
:100CF0000839496841F470613A4A083A516070E035
:100D000038493C31884208D136490839496841F4AC
:100D10007041344A083A516063E0324950318842A8
:100D200008D130490839496841F470212D4A083A00
:100D3000516056E02B496431884208D1294908396D
:100D4000496841F47001274A083A516049E0254951
:100D50007831884208D123490839496841F07061E7
:100D6000204A083A51603CE01F49884206D1011FE1
:100D7000096841F00F01021F116032E01A49143175
:100D8000884208D11849091F096841F0F001164A44
:100D9000121F116025E014492831884208D11249F8
:100DA000091F096841F470610F4A121F116018E0B1
:100DB0000D493C31884208D10B49091F096841F4AB
:100DC0007041094A121F11600BE0074950318842F7
:100DD00007D10549091F096841F47021024A121F11
:100DE00011607047080002400804024010B500225C
:100DF000026847F6F0739A430C6A8B6823430C69C8
:100E000023434C6923438C692343CC6923434C6AB5
:100E100023438C6A23431A430260CB6843600B6808
:100E200083604B68C36010BD08B50121082000F045
:100E300069FB0120ADF8000010208DF803000320AD
:100E40008DF802006946044800F04CF9012102487F
:100E500000F0E0F908BD0000000C01402DE9F05F52
:100E600000F0C0F800F064F8CC2000F0D1F8442085
:100E700000F0CEF800F0B6F800F05AF8CC2000F000
:100E8000C7F8BE2000F0C4F800F09AF8834600F0DE
:100E900097F882464FEA0A2004B244EA0B04002C79
:100EA0000DDAE043401CFFF7D1F9074600220B4B57
:100EB000FFF75AF90546FFF7EEF981460BE02046A9
:100EC000FFF7C4F907460022044BFFF74DF905462A
:100ED000FFF7E1F981464846BDE8F09F0000B03FCA
:100EE00010B5FFF7A1FF00F07DF800F021F810BD6C
:100EF00008B50120ADF8000048208DF803006946D0
:100F0000014800F0EFF808BD000C014008B50120D1
:100F1000ADF8000010208DF8030003208DF80200CA
:100F20006946024800F0DEF808BD0000000C0140F0
:100F300010B50024FFF7DCFF04E0601CC4B2012000
:100F400000F0BCF801210F4800F059F908B1642CF9
:100F5000F3DB642C01DB012010BD002404E0601CE5
:100F6000C4B2012000F0AAF80121064800F047F9B8
:100F700008B9F02CF3DBF02C01DB0120ECE70020BA
:100F8000EAE70000000C014010B5FFF7BFFF0121A8
:100F90000A4800F03DF90A2000F090F8FFF7A8FF9A
:100FA0000121064800F02BF9012801D1012400E0BD
:100FB00000242D2000F082F8204610BD000C0140D6
:100FC00070B50026002408E0FFF7DEFF054605FAAD
:100FD00004F03043C6B2601CC4B2082CF4DB3046C7
:100FE00070BD000010B5FFF791FF0121074800F028
:100FF0000FF940F2EE2000F061F80121034800F003
:1010000009F90F2000F05AF810BD0000000C014053
:1010100070B50446FFF77AFF002522E004F00106D0
:10102000641076B10121104800F0F2F8082000F0B9
:1010300045F801210C4800F0EDF83A2000F03EF8A8
:101040000DE00121084800F0E3F8462000F036F8F2
:101050000121054800F0DEF8022000F02FF8681C9E
:10106000C5B2082DDADB70BD000C014010B5024698
:101070000B4600210D48007810F0800F0DD00B4872
:10108000007800F03F01090409480088014409483C
:101090000088091A0020054C2070914203D999421A
:1010A00001D2022010BD0020FCE700005C000020FF
:1010B000600000205E0000207047000001B5084974
:1010C000009808604FF0E020006940F001004FF008
:1010D000E021086100BF024800680028FBD108BD7C
:1010E0004C0000202DE9F04102460025002600209A
:1010F00000230024002791F803C00CF00F0591F89D
:1011000003C01CF0100F03D091F802C04CEA050593
:1011100091F800C0BCF1000F31D0146800202BE022
:101120004FF0010C0CFA00F3B1F800C00CEA030612
:101130009E4220D183004FF00F0C0CFA03F7BC4302
:1011400005FA03FC4CEA040491F803C0BCF1280F33
:1011500006D14FF0010C0CFA00FCC2F814C00AE0F2
:1011600091F803C0BCF1480F05D14FF0010C0CFA07
:1011700000FCC2F810C0401C0828D1D31460B1F89C
:1011800000C0BCF1FF0F34DD546800202EE000F1F8
:10119000080C4FF0010808FA0CF3B1F800C00CEA93
:1011A00003069E4221D183004FF00F0C0CFA03F787
:1011B000BC4305FA03FC4CEA040491F803C0BCF1FB
:1011C000280F05D100F1080C08FA0CF8C2F81480B9
:1011D00091F803C0BCF1480F07D100F1080C4FF0A3
:1011E000010808FA0CF8C2F81080401C0828CED379
:1011F0005460BDE8F0810146886880B270470246BD
:10120000002093680B4201D0012000E000207047CD
:10121000416170470161704700BFFEE708B50121D9
:10122000082000F06FF94FF44070ADF80000102076
:101230008DF8030003208DF8020069460448FFF78B
:1012400051FF4FF440710248FFF7E4FF08BD000072
:10125000000C014000BFFEE7704708B54FF4A060E6
:1012600000F076F814208DF8000000208DF80100C1
:1012700001208DF802008DF80300684600F02EF87A
:101280001D208DF8000000208DF801008DF802006F
:1012900001208DF80300684600F020F825208DF825
:1012A000000000208DF8010002208DF802000120CE
:1012B0008DF80300684600F011F826208DF8000034
:1012C00001208DF8010000208DF8020001208DF82A
:1012D0000300684600F002F808BD000070B5002168
:1012E00000230F22C4780CB3164C246804F4E06485
:1012F000C4F5E064210AC1F10403CA40447804FA49
:1013000003F184781440214309010F4C0678A1555C
:10131000047804F01F050124AC4005786D114FF0EE
:10132000E02606EB8505C5F8004109E0047804F0E5
:101330001F050124AC40054D0678761145F826407E
:1013400070BD00000CED00E000E400E080E100E092
:1013500002490143024A1160704700000000FA058B
:101360000CED00E000B585B00121042000F0CAF8C2
:101370000121480400F0A6F80420ADF81000182060
:101380008DF8130003208DF8120004A91548FFF70B
:10139000A9FE0820ADF8100004208DF8130004A960
:1013A0001048FFF79FFE4FF4165000900020ADF854
:1013B0000400ADF80600ADF80800ADF80C000C20F4
:1013C000ADF80A006946084800F03EFE012240F2EE
:1013D0002551054800F013FE0121034800F0CCFD23
:1013E00005B000BD00080140004400407047000007
:1013F0002149097839B9DD2805D101211E4A11702A
:101400001E49087020E01C49097801290AD1DD280D
:1014100008D10221184A1170184948700021184A51
:10142000117011E01449097802290AD11449097888
:10143000134A1278521C124B1A70891C0F4A5054CE
:1014400002E000210C4A11700D490978891C082915
:1014500011D10021084A1170094A11700749897891
:10146000102908D10549C978064A1278914202D15B
:101470000121054A117070473D0000203F00002007
:101480003E000020280000202C0000200146002003
:10149000034A506820F44040084350607047000001
:1014A0000010024029B1064A52690243044B5A61B6
:1014B00004E0034A52698243014B5A6170470000BD
:1014C0000010024029B1064AD2690243044BDA6196
:1014D00004E0034AD2698243014BDA61704700009D
:1014E0000010024029B1064A12690243044B1A61F6
:1014F00004E0034A12698243014B1A6170470000FD
:101500000010024029B1064A92690243044B9A61D5
:1015100004E0034A92698243014B9A6170470000DC
:101520000010024030B500210022002400232D4D80
:101530006D6805F00C0121B1042905D0082923D1DB
:1015400005E0294D056022E0274D05601FE0254D8F
:101550006D6805F47012234D6D6805F48034022522
:1015600005EB92421CB9214D554305600BE01D4D22
:101570006D6815F4003F03D01C4D5543056002E033
:10158000194D5543056002E0174D056000BF00BFCF
:10159000144D6D6805F0F0010909154D6B5C056887
:1015A000DD4045600F4D6D6805F4E061090A104D9E
:1015B0006B5C4568DD4085600A4D6D6805F46051DF
:1015C000C90A0B4D6B5C4568DD40C560054D6D6813
:1015D00005F44041890B074D6B5CC568B5FBF3F51D
:1015E000056130BD0010024000127A0000093D0084
:1015F000140000202400002038B501210820FFF746
:1016000081FFF020ADF8000048208DF80300032092
:101610008DF8020069460748FFF764FD0548FFF7AB
:10162000EAFDC0F30314044800782044024908701E
:1016300038BD0000000C014028000020704710B5A4
:1016400000F002F810BD00000CB5002001900090E1
:101650003248006840F480303049086000BF2F48AD
:10166000006800F4003000900198401C0190009840
:1016700018B90198B0F5A06FF1D12848006810F4AE
:10168000003F02D00120009001E00020009000986F
:10169000012842D12248006840F01000204908602B
:1016A0000846006820F0030008600846006840F023
:1016B00002000860194840681849486008464068B8
:1016C00048600846406840F48060486008464068CA
:1016D00020F47C1048600846406840F4E8104860F8
:1016E0000846006840F08070086000BF0B48006842
:1016F00010F0007FFAD00948406820F00300074945
:1017000048600846406840F00200486000BF034857
:10171000406800F00C000828F9D10CBD0010024010
:101720000020024010B500F0B7FB18480068401CCC
:1017300016490860084600684FF47A71B0FBF1F270
:1017400001FB120020B912480068401C10490860D3
:101750000F4800686421B0FBF1F201FB120010B9E0
:1017600001200C4908700A4800684FF4FA71B0FB78
:10177000F1F201FB1200FA2803D901200649087092
:1017800002E000200449087010BD00003000002075
:1017900038000020340000203C00002030B51C48F8
:1017A00000681C4AB0FBF2F1B1F1807F01D3012047
:1017B0001DE021F07F40401E4FF0E02250615017A5
:1017C0000F22002807DA13071D0E134B00F00F0439
:1017D000241F1D5503E013071C0E104B1C5400BFA3
:1017E00000204FF0E022906107201061002008B136
:1017F00000BFFEE74FF0E020006920F001004FF04D
:10180000E02108610846006940F00100086130BD30
:101810000000002040420F0018ED00E000E400E06E
:1018200010B51348006840F00100114908600846EF
:101830004068104908400E494860084600680E4953
:1018400008400B4908600846006820F480200860C2
:101850000846406820F4FE0048604FF41F0088608E
:10186000FFF7EDFE4FF000600449086010BD000076
:10187000001002400000FFF8FFFFF6FE08ED00E058
:10188000F0B50C46154600220021068C4FF6FE7777
:101890003E400684028B018C4FF60C7632407E1C53
:1018A00006EA03162E433243104EB0420ED0104EBD
:1018B000B0420BD0B0F1804F08D00E4EB04205D0F0
:1018C0000D4EB04202D00D4EB04206D14FF6FD761D
:1018D000314044F00106314305E04FF6F5763140E2
:1018E00044F00106314302830184F0BD002C014025
:1018F000003401400004004000080040000C00409B
:10190000F0B50C461546002200210026078C4FF644
:10191000EF7C07EA0C070784028B018C4FF6FF77F8
:1019200007EA041640F6FF473A404FF6FF7707EA0A
:1019300003373A434FF6FF7707EA05273A43114F3B
:10194000B8420ED0104FB8420BD0B0F1804F08D043
:101950000E4FB84205D00E4FB84202D00D4FB842DC
:1019600006D14FF6DF77394046F01007394305E0DE
:101970004FF65F77394044F0100739430283018402
:10198000F0BD0000002C0140003401400004004084
:1019900000080040000C0040F0B50C46154600223F
:1019A00000210026078C4FF6FF6C07EA0C0707841E
:1019B000828B018C4FF6FF7707EA04264FF60C77EF
:1019C0003A404FF6FF7707EA03172F433A43114F88
:1019D000B8420ED0104FB8420BD0B0F1804F08D0B3
:1019E0000E4FB84205D00E4FB84202D00D4FB8424C
:1019F00006D14FF6FF57394046F48077394305E06A
:101A00004FF2FF57394044F4807739438283018491
:101A1000F0BD0000002C01400034014000040040F3
:101A200000080040000C0040F0B50C4615460022AE
:101A300000210026078C4EF6FF7C07EA0C0707847E
:101A4000828B018C4FF6FF7707EA043640F6FF479A
:101A50003A404FF6FF7707EA05273A434FF6FF77FC
:101A600007EA03373A43114FB8420ED0104FB8423D
:101A70000BD0B0F1804F08D00E4FB84205D00E4FBA
:101A8000B84202D00D4FB84206D14DF6FF7739402B
:101A900046F48057394305E047F6FF57394044F490
:101AA0008057394382830184F0BD0000002C01403F
:101AB000003401400004004000080040000C0040D9
:101AC00030B587B005460C4601210220FFF7FAFC2D
:101AD00001210C20FFF716FDC020ADF818004820AA
:101AE0008DF81B0006A92448FFF7FCFA4021224884
:101AF000FFF790FB80212048FFF78CFBADF81050DA
:101B0000ADF80C400020ADF81200ADF80E0003A9AE
:101B10001A4800F06FF90020ADF800000220ADF87F
:101B200002000120ADF804000020ADF806000820F6
:101B3000ADF808006946114800F0D0F80420ADF86F
:101B400000000220ADF802000120ADF804000020E2
:101B5000ADF806000820ADF808006946074800F017
:101B6000BDF801220721054800F00EF901210348C4
:101B700000F0A8F807B030BD0008014000040040A4
:101B8000494908884949097811F0800F41D110F07E
:101B9000010F1AD04549097811F0400F15D043497B
:101BA000097801F03F013F290AD14049097841F005
:101BB00080013E4A11704FF6FF713D4A118004E0EA
:101BC0003A490978491C394A117010F0020F20D0A7
:101BD0003649097811F0400F0BD03449097841F0AB
:101BE0008001324A1170304924310988304A11800D
:101BF0000FE000212D4A11702D4A11802B490978E0
:101C000041F04001294A1170274924310988294AA5
:101C100011802949097811F0800F41D110F0010F8E
:101C20001AD02549097811F0400F15D022490978BA
:101C300001F03F013F290AD11F49097841F0800195
:101C40001D4A11704FF6FF711C4A118004E01A49B9
:101C50000978491C184A117010F0040F20D0164959
:101C6000097811F0400F0BD01349097841F0800139
:101C7000114A11700C4928310988104A11800FE06F
:101C800000210D4A11700D4A11800B49097841F06D
:101C90004001094A1170044928310988084A118015
:101CA0000021014A11807047100400405C000020B0
:101CB000600000205E0000205D0000206400002025
:101CC0006200002021B1028842F00102028004E09B
:101CD00002884FF6FE731A400280704770B50546C1
:101CE0000C46244885420ED0234885420BD0B5F1DE
:101CF000804F08D02148854205D02148854202D036
:101D00002048854200D100E000BF208850B92389D7
:101D1000A28861882846FFF7B3FDE188284600F0D5
:101D20003CF825E0208804280AD12389A28861880C
:101D30002846FFF7E5FDE188284600F037F817E070
:101D4000208808280AD12389A28861882846FFF7BD
:101D500023FEE188284600F036F809E02389A288AE
:101D600061882846FFF760FEE188284600F034F8D5
:101D700070BD0000002C0140003401400004004010
:101D800000080040000C00401AB183890B43838196
:101D900002E083898B4383817047028B4FF6F37394
:101DA0001A400283028B0A4302837047028B4FF270
:101DB000FF331A400283028B4FF6FF7303EA0123BD
:101DC0001A4302837047828B4FF6F3731A40828363
:101DD000828B0A4382837047828B4FF2FF331A4013
:101DE0008283828B4FF6FF7303EA01231A438283B7
:101DF00070470000002202881D4B98420ED01D4BF8
:101E000098420BD0B0F1804F08D01B4B984205D0C0
:101E10001A4B984202D01A4B984204D14FF68F7356
:101E20001A404B881A43174B984207D0164B9842DA
:101E300004D04FF6FF431A40CB881A4302808B88A8
:101E400083850B8803850A4B98420BD0094B984237
:101E500008D00E4B984205D00D4B984202D00D4B46
:101E6000984201D10B7A03860123838270470000D8
:101E7000002C0140003401400004004000080040F4
:101E8000000C0040001000400014004000400140E1
:101E900000440140004801400448006820B1034864
:101EA0000068401E01490860704700004C00002097
:101EB00000B585B0012144F20400FFF723FB4FF485
:101EC0000070ADF8100018208DF8130003208DF875
:101ED000120004A91648FFF705F94FF48060ADF829
:101EE000100004208DF8130004A91148FFF7FAF838
:101EF0004FF4165000900020ADF80400ADF8060035
:101F0000ADF80800ADF80C000C20ADF80A006946E9
:101F1000084800F099F8012240F22551054800F0E8
:101F20006EF80121034800F027F805B000BD00005D
:101F3000000801400038014010B540F22551044826
:101F400000F033F810B1024800F0EAF810BD0000CC
:101F50000038014010B540F22551064800F025F840
:101F600030B1044800F0DCF8C4B22046FFF740FA74
:101F700010BD00000044004021B1828942F40052AB
:101F8000828104E082894DF6FF731A408281704796
:101F900002460020B1F5007F00D100BF13880B423C
:101FA00001D0012000E00020704770B502460024F7
:101FB000002300250020A1F510666A3E00D100BF75
:101FC000C1F3421501F01F03012606FA03F3012DA8
:101FD00002D19689334006E0022D02D1168A3340A1
:101FE00001E0968A33400C12012606FA04F41688A2
:101FF000344013B10CB1012000E0002070BDF0B5F9
:1020000003460024002600250020A1F510676A3F42
:1020100000D100BF1846C1F3421401F01F0601278A
:1020200007FA06F5012C01D10C3004E0022C01D195
:10203000103000E014301AB107682F43076002E047
:102040000768AF430760F0BD2DE9F04786B005464D
:102050000E460024A24600BFA1460027B08900B169
:1020600000BF2F462C8A4CF6FF700440F0880443D2
:102070002C82AC894EF6F3100440B08831890843B5
:10208000718908430443AC81AC8A4FF6FF40044099
:10209000B0890443AC8201A8FFF744FA1F48874285
:1020A00002D1DDF810A001E0DDF80CA0A88910F441
:1020B000004F08D00AEBCA0000EB0A103168490053
:1020C000B0FBF1F807E00AEBCA0000EB0A10316838
:1020D0008900B0FBF1F86420B8FBF0F0040120099E
:1020E000642101FB1089A88910F4004F08D0322028
:1020F00000EBC900B0FBF1F000F00700044308E07A
:10210000322000EB09106421B0FBF1F000F00F0069
:1021100004432C8106B0BDE8F08700000038014080
:1021200001468888C0F308007047C1F30802828026
:1021300070472DE9F04107460D461646002400BFC2
:102140000CE0295D3846FFF7F0FF00BF402138461C
:10215000FFF71EFF0028F9D0601C84B2B442F0DB08
:10216000BDE8F08100B585B06A4600211248FEF74F
:1021700002FD1249009808609DF80B001049087094
:102180009DF80C0048709DF80D0088709DF80E00B9
:10219000C8709DF80F0008719DF8100048719DF8F7
:1021A000110088719DF81200C87102210248FEF7E3
:1021B000DBFA05B000BD00000064004058000020BC
:1021C000500000201CB50024DD222146641C0DF8BF
:1021D00001202146641C0DF8012001222146641CC7
:1021E0000DF80120124802782146641C0DF80120E8
:1021F00010480078104909780844C2B22146641C8E
:102200000DF801200D4802782146641C0DF80120CC
:1022100000222146641C0DF801202046611CCCB22E
:102220000DF80020082269460548FFF782FF1CBD13
:10223000280000202A0000202B0000202900002078
:102240000044004000BFFEE70FB4054B10B503A9E2
:10225000044A029800F018F810BC5DF814FB000066
:10226000D52500086800002002E008C8121F08C138
:10227000002AFAD170477047002001E001C1121F07
:10228000002AFBD1704700002DE9FF4F8BB0884634
:102290000546002667E125287AD100246D1CB64941
:1022A000A146A24601222B78203B02FA03F0084205
:1022B00002D004436D1CF6E728782A2810D06FF06E
:1022C0002F022878A0F13001092915D809EB8901DE
:1022D00002EB410144F0020400EB01096D1CF0E740
:1022E00058F8049BB9F1000F03DA44F40054C9F123
:1022F000000944F002046D1C28782E2817D115F827
:10230000010F44F004042A280ED06FF02F02287821
:10231000A0F1300109290AD80AEB8A0102EB410138
:1023200000EB010A6D1CF2E758F804AB6D1C28782D
:102330006C280FD006DC4C2817D068280DD06A28EE
:1023400014D104E0742810D07A280FD10DE044F4A1
:1023500000140AE044F4801401E044F44014697865
:10236000814202D16D1C04F580146D1C2878692807
:1023700066D007DC002876D0632828D0642807D1EF
:102380005EE005E06E2808D073282AD075287AD040
:10239000DDE90D129047761CE4E0C4F302500228F8
:1023A00009D003280DD0D8F8001004280DD00E60F5
:1023B00008F10408D6E0D8F80010F217C1E900626D
:1023C000F6E7D8F800100E80F2E70E70F0E718F884
:1023D000041B8DF8001000208DF80100EB46012051
:1023E00003E058F804BB4FF0FF3061074FF00007DF
:1023F00001D40AE07F1C57450DDA8742FADB1BF84F
:1024000007100029F6D106E07F1C8742FCDB1BF891
:1024100007100029F8D1DDE90D23A9EB070081465B
:10242000214600F0BEF83044C61904E0DDE90D1283
:102430001BF8010B90477F1EF8D2214648468CE0DE
:1024400058F8040BC4F302514FF00A0B032900D1D2
:1024500000B2042900D140B2002806DAC0F1000021
:102460004FF02D0104E082E00DE0210504D52B2181
:102470008DF82410012103E0E10710D02021F7E7B7
:1024800008AF089114E058F8040BC4F302514FF060
:102490000A0B032900D180B2042900D1C0B2002167
:1024A000EEE75946FDF713FF01F1300107F8011D72
:1024B0000028F6D1ADEB070000F1200B600702D534
:1024C00024F4803401E04FF0010ADA4502DDAAEB82
:1024D0000B0000E00020824600EB0B01089801444D
:1024E000A9EB01000A90E00306D4DDE90D232146A3
:1024F0000A9800F056F80644002008E009A911F8EF
:102500000900DDE90D129047761C09F101000899D8
:1025100081468842F2DBE0030CD5DDE90D2321463C
:102520000A9800F03EF8064404E0DDE90D12302080
:102530009047761CBAF10001AAF1010AF5DC05E02A
:10254000DDE90D1217F8010B9047761CBBF1000175
:10255000ABF1010BF4DC0A982146DDE90D2300F014
:102560000DF806446D1C287800287FF494AE0FB057
:102570003046BDE8F08F0000092801002DE9F04148
:10258000044600251E461746880405D406E0394651
:102590002020B04705F10105641EF8D52846BDE8A6
:1025A000F0812DE9F041044600251E469046C803FF
:1025B00001D5302700E02027880405D506E04146F4
:1025C0003846B04705F10105641EF8D52846BDE838
:1025D000F081000070B504460D46E1B20548FFF7F2
:1025E000A4FD00BF40210348FFF7D2FC0028F9D02A
:1025F000204670BD00380140FFF7D0F8FEF72DFEF1
:10260000FEF70CFEFFF754FCFEF7ACFEFDF754FF9F
:10261000FEF766FCFEF7FCF847214FF6FF70FFF768
:102620004FFAFEF783F8FEF7E7FF4FF48070284972
:10263000086000202749086000BF2748007840B3A1
:10264000FEF70CFC0446FDF712FE2449087040F228
:1026500026214FF4E170FEF709FD214908701F485B
:102660000078282803DB01201E49087002E00020C2
:102670001C4908701C48007808B1FFF7A3FD002032
:1026800015490870164802781448017817A0FFF71A
:10269000DBFD1B48007880B11248007810490978AA
:1026A000401805D04FF4007109481438FEF7B2FD08
:1026B0004FF4807006490860BFE74FF4807004490A
:1026C000091F0860410002481438FEF7A1FDB4E775
:1026D000140C0140300000203400002029000020AC
:1026E0002A0000202B0000202C00002054656D7073
:1026F0003A253264204341503A253264200D0A00C5
:102700003C00002024270008000000206C0000008E
:1027100068220008902700086C00002004040000D4
:102720007822000800A24A04000000000000000017
:102730000102030406070809000000000102030467
:10274000010203040607080902040608D00000007D
:102750000000000000000000000000000000000079
:102760000000000000000000000000000000000069
:102770000000000000000000000000000000000059
:102780000000000000000000000000000000000049
:0400000508000131BD
:00000001FF
