:020000040800F2
:100000004816002045010008252D0008272D00086E
:100010002B2D00082F2D0008332D000800000000B4
:10002000000000000000000000000000372D000864
:10003000392D0008000000003B2D00083D2D000870
:100040005F0100085F0100085F0100085F01000810
:100050005F0100085F0100085F0100085F01000800
:100060005F0100085F010008F52D00085F0100082E
:100070005F0100085F0100085F0100085F010008E0
:100080005F0100085F0100085F0100085F010008D0
:10009000FF2E00085F0100085F0100085F010008F3
:1000A0005F0100085F0100085F0100085F010008B0
:1000B0002B4E00085F0100085F0100085F01000887
:1000C0005F0100085F0100085F0100085F01000890
:1000D0005F01000883430008A13900085F010008A0
:1000E0005F0100085F0100085F0100085F01000870
:1000F0005F0100085F0100085F0100085F01000860
:100100005F0100085F0100085F0100085F0100084F
:100110005F0100085F0100085F0100085F0100083F
:100120005F0100085F0100085F0100085F0100082F
:10013000DFF80CD007F0D2FA004800472D2C000859
:10014000481600200648804706480047FEE7FEE7BD
:10015000FEE7FEE7FEE7FEE7FEE7FEE7FEE7FEE777
:1001600045020008310100080CB500200190009004
:100170006B48006840F480306949086000BF6848F7
:10018000006800F4003000900198401C0190009835
:1001900018B90198B0F5A06FF1D16148006810F46A
:1001A000003F02D00120009001E000200090009864
:1001B000012842D15B48006840F0100059490860AE
:1001C0000846006820F0030008600846006840F018
:1001D000020008605248406851494860084640683B
:1001E00048600846406840F48060486008464068BF
:1001F00020F47C1048600846406840F4E8104860ED
:100200000846006840F08070086000BF44480068FD
:1002100010F0007FFAD04248406820F003004049C7
:1002200048600846406840F00200486000BF3C4813
:10023000406800F00C000828F9D10CBD10B5FFF79C
:1002400093FF10BD10B53648006840F001003449F6
:10025000086008464068344908403149486008460B
:100260000068324908402E4908600846006820F4BA
:10027000802008600846406820F4FE0048604FF483
:100280001F008860FFF7DAFF4FF000602849086020
:1002900010BD10B5002100200022214B5B6803F047
:1002A0000C0121B1042906D0082928D107E0214BEF
:1002B000214C236027E01F4B1F4C236023E0184B89
:1002C0005B6803F47010164B5B6803F48032022302
:1002D00003EB904022B9194B4343174C23600DE0C8
:1002E0000F4B5B6813F4003F04D0144B4343124C94
:1002F000236003E00F4B43430F4C236003E00D4B9F
:100300000D4C236000BF00BF054B5B68C3F30313B4
:100310000B4CE15C084B1B68CB40074C236010BDC5
:1003200000100240002002400000FFF8FFFFF6FE30
:1003300008ED00E000127A000000002000093D00F6
:100340000400002031490143314A1160704770B503
:10035000002100230F22C4780CB32D4C246804F430
:10036000E064C4F5E064210AC1F10403CA404478A2
:1003700004FA03F18478144021430901254C0678DE
:10038000A155047804F01F050124AC4005786D11D7
:100390004FF0E02606EB8505C5F8004109E004783A
:1003A00004F01F050124AC401B4D0678761145F87A
:1003B000264070BD194A0A400243154B1B1F1A60A4
:1003C000704739B1124A121D12680243104B1B1DAF
:1003D0001A6006E00E4A121D126882430C4B1B1D68
:1003E0001A607047042808D14FF0E021096941F0F4
:1003F00004014FF0E022116107E04FF0E0210969AC
:1004000021F004014FF0E022116170470000FA056D
:100410000CED00E000E400E080E100E080FFFF1F61
:1004200010B50446FE48844209D10121480601F076
:10043000B8F800214FF0007001F0B3F808E0012196
:10044000880601F0AEF800214FF0806001F0A9F8B5
:1004500010BD30B5024600200023146824F00204C9
:100460001460146844F00104146000E05B1C5468DC
:1004700014F0010F03D1A3F57F44FF3CF6D154687B
:1004800014F0010F01D100206CE08C79012C04D113
:10049000146844F08004146003E0146824F08004BD
:1004A0001460CC79012C04D1146844F04004146029
:1004B00003E0146824F0400414600C7A012C04D189
:1004C000146844F02004146003E0146824F020044D
:1004D00014604C7A012C04D1146844F010041460A8
:1004E00003E0146824F0100414608C7A012C04D109
:1004F000146844F00804146003E0146824F008044D
:100500001460CC7A012C04D1146844F00404146003
:1005100003E0146824F0040414608C78A407CD78F8
:1005200044EA05640D7944EA05444D7944EA0554EA
:100530000D886D1E2C43D461146824F001041460EE
:10054000002300E05B1C546814F0010F03D0A3F5F6
:100550007F44FF3CF6D1546814F0010F01D0002015
:1005600000E0012030BD10B50021837A012202FA9B
:1005700003F1AC4A126842F00102AA4B1A60A94A80
:100580001C3212688A43A74B1C331A60027BCAB91B
:10059000A44A0C3212688A43A24B0C331A60428878
:1005A000C38842EA03439F4A4032847A42F8343097
:1005B0000288838842EA03439A4A4032847A02EBF3
:1005C000C4025360027B012A19D1964A0C32126888
:1005D0000A43944B0C331A604288038842EA03436F
:1005E000904A4032847A42F83430C288838842EAA2
:1005F00003438C4A4032847A02EBC4025360C27ACD
:100600003AB9884A121D12688A43864B1B1D1A602C
:1006100006E0844A121D12680A43824B1B1D1A60B1
:10062000028932B97F4A143212688A437D4B1433EF
:100630001A600289012A06D17A4A143212680A43E2
:10064000784B14331A60427B012A06D1754A1C325A
:1006500012680A43734B1C331A60724A126822F004
:100660000102704B1A6010BD00218171C1710172CD
:1006700041728172C1728170C170032101710221C6
:1006800041710121018070476649096841F001010B
:10069000644A11601146096843F60E729143614A3B
:1006A00011601146096841EA00211160114609688C
:1006B00021F001011160704721B1026842F48032DB
:1006C000026003E0026822F4803202607047E1B108
:1006D000026842F0800202604FF4C272125842F483
:1006E00080734FF4C27213504FF4CA72125842F41E
:1006F00080734FF4CA7213504FF4D272125842F4FE
:1007000080734FF4D27213501BE0026822F0800213
:1007100002604FF4C272125822F480734FF4C27216
:1007200013504FF4CA72125822F480734FF4CA72F5
:1007300013504FF4D272125822F480734FF4D272D5
:100740001350704710B502460020936803F0806391
:10075000B3F1806F00D110E0936803F00063B3F150
:10076000006F01D1012008E0936803F08053B3F1DA
:10077000805F01D1022000E00420042879D002F536
:10078000C07303EB00131B6803F0010402F5C07390
:1007900003EB00131C600B7A7BB94B7A0C8843EA9D
:1007A000445302F5C07404EB00142468234302F59B
:1007B000C07404EB0014236010E00B7A4C6843EA29
:1007C000C4034C7A234302F5C07404EB001424687C
:1007D000234302F5C07404EB001423608B7A03F00A
:1007E0000F038B7202F5C07303EB00135B6823F0F9
:1007F0000F0402F5C07303EB00135C6002F5C073D5
:1008000003EB00135B688C7A234302F5C07404EB9E
:10081000001463608B7B1C064B7B44EA034403E0BB
:1008200000640040006600400B7B44EA0323CC7A5E
:10083000234302F5C07404EB0014A3608B7C1C06F8
:100840004B7C44EA03440B7C44EA0323CC7B2343E4
:1008500002F5C07404EB0014E36002F5C07303EB0F
:1008600000131B6843F0010402F5C07303EB00138F
:100870001C6010BD10B50246002321B1012907D02C
:1008800002290FD109E09068F84C00EA04030BE05C
:100890009068F74C00EA040306E09068F54C00EA23
:1008A000040301E0002300BF00BFF34C181BA34268
:1008B00016D007DC83B16FF0806018180ED00228C4
:1008C00018D111E0B0F5007F10D0EC4C001909D020
:1008D000B0F5003F0ED10BE002230DE000230BE04A
:1008E000002309E0002307E0012305E0012303E0E2
:1008F000012301E0002300BF00BFD8B210BD21B129
:10090000012907D002290FD109E0826842F0800254
:1009100082600AE0826842F40042826005E08268F8
:1009200042F40002826000E000BF00BF704710B5D3
:1009300000F5D87303EB01131B6803F00403137273
:10094000137A53B900F5D87303EB01131B6840F217
:10095000FF7404EA5353136009E000F5D87303EB06
:1009600001131B686FF0604404EAD303536000F581
:10097000D87303EB01131B6803F00203537200F5F5
:10098000D87303EB01135B6803F00F03937200F558
:10099000D87303EB01135B681B0AD37400F5D8739B
:1009A00003EB01139B68D37200F5D87303EB0113BB
:1009B0009B681C0A147300F5D87303EB01139B6842
:1009C0001C0C547300F5D87303EB01139B681B0ECA
:1009D000937300F5D87303EB0113DB68D37300F551
:1009E000D87303EB0113DB681C0A147400F5D87389
:1009F00003EB0113DB681C0C547400F5D87303EB94
:100A00000113DB681B0E937421B9C36843F0200304
:100A1000C36003E0036943F02003036110BD21B903
:100A2000C26842F02002C26003E0026942F0200284
:100A3000026170470246002019B9D36803F0030031
:100A400006E0012903D1136903F0030000E0002050
:100A5000704710B502460B4600204FF6FF71BBB938
:100A6000146824F0020444F00104146000E0491EFC
:100A7000546804F00304012C01D00029F7D1546814
:100A800004F00304012C01D0002032E0012030E00A
:100A9000012B13D1146824F00304146000E0491EF4
:100AA000546814F0030F01D00029F8D1546814F0F1
:100AB000030F01D000201CE001201AE0022B17D107
:100AC000146824F0010444F00204146000E0491E9C
:100AD000546804F00304022C01D00029F7D15468B3
:100AE00004F00304022C01D0002002E0012000E009
:100AF000002010BD014600200A6822F0010242F0E9
:100B000002020A604A6802F00302022A00D10120B0
:100B1000704701464FF6FF7200200B6823F0020376
:100B20000B6000E0521E4B6803F00203022B01D160
:100B3000002AF7D14B6803F00203022B00D00120FA
:100B40007047014600208A6902F070007047014634
:100B500000208A69100E7047014600208A69C2F39E
:100B6000074070471AB143690B43436102E0436990
:100B70008B434361704710B50246002011F4700F9B
:100B800008D09369C1F31304234201D001202DE062
:100B900000202BE011F0807F08D05368C1F31304CC
:100BA000234201D0012021E000201FE011F0006F5E
:100BB00008D09368C1F31304234201D0012015E04B
:100BC000002013E011F0007F08D0D368C1F31304B4
:100BD000234201D0012009E0002007E01369C1F39E
:100BE0001304234201D0012000E0002010BD0022A8
:100BF000234B994202D10023836111E0C1F3130218
:100C000011F0007F01D0C2600AE011F0806F01D0C6
:100C1000026105E011F0006F01D0826000E04260E7
:100C20007047024600200A4201D0012000E0002067
:100C3000704770B504460D4600266069284272D0A0
:100C4000B5F5807F69D01DDC082D42D006DC012D72
:100C50002DD0022D31D0042D7FD134E0102D3ED087
:100C6000202D42D0402D78D145E000000300000443
:100C70000003000800000310000100080001FFF756
:100C80007000F030B5F5004F61D009DCB5F5007F9C
:100C90004AD0B5F5806F4DD0B5F5006F5DD150E00D
:100CA000B5F5803F2DD0B5F5003F56D12FE0A068B7
:100CB0005549FFF7B6FF064651E0E0680321FFF70C
:100CC000B0FF06464BE0E0680821FFF7AAFF0646A2
:100CD00045E0E0681021FFF7A4FF06463FE02069E9
:100CE0000321FFF79EFF064639E020690821FFF740
:100CF00098FF064633E020691021FFF792FF064671
:100D00002DE060680821FFF78CFF064627E0606849
:100D10001021FFF786FF064621E0A0690121FFF7B9
:100D200080FF06461BE01BE0A0690221FFF779FF68
:100D3000064614E0A0690421FFF773FF06460EE0A3
:100D40000BE0A0697021FFF76CFF064607E06068C2
:100D50000421FFF766FF064601E0002600BF00E021
:100D60000026304670BDB1F5007F3AD00FDC202957
:100D700028D006DC01291CD004291DD0082940D127
:100D80001DE0402921D0B1F5807F3AD126E0B1F5B0
:100D9000004F31D006DCB1F5806F25D0B1F5006F82
:100DA0002FD124E0B1F5803F12D0B1F5003F28D11A
:100DB00011E0154A826025E00822C26022E010227C
:100DC000C2601FE0082202611CE01022026119E0EB
:100DD0000822426016E01022426013E004224260C2
:100DE00010E0042242600DE0042242600AE000228A
:100DF00082610422426005E0002282610422426096
:100E000000E000BF00BF704701010100002044491D
:100E10000860091D0860091D0860091D0860414837
:100E20003F4914310860704700213D498279002A0A
:100E30003AD00A46126803689A430B461A600A1DA4
:100E4000126803689A430B1D1A60027911440A68FC
:100E500003681A430A60324A0832126803689A43E8
:100E60002F4B08331A601A1D126803689A432C4BE3
:100E70000C331A604279102A0ED11A1F12680368C7
:100E80001A43274B08331A601A1D126803681A4365
:100E9000234B0C331A600DE02149427911440A6852
:100EA00003681A430A6005E0027911440A6803687E
:100EB0009A430A6070470021016001710C21417161
:100EC0000021817170471649103109680143144AA5
:100ED00010321160704701460020114A1432126826
:100EE0000A4201D0012000E0002070470C49143173
:100EF00008607047014600200022094B1B6803EA86
:100F00000102074B14331B680B4202D00AB10120C7
:100F100000E000207047024914310860704700006B
:100F200000040140FFFF0F0010B50446CA48844288
:100F300008D10121042000F027FB0021042000F04B
:100F400023FB46E0C548844208D10121082000F077
:100F50001BFB0021082000F017FB3AE0C048844248
:100F600008D10121102000F00FFB0021102000F01B
:100F70000BFB2EE0BB48844208D10121202000F069
:100F800003FB0021202000F0FFFA22E0B648844253
:100F900008D10121402000F0F7FA0021402000F0A4
:100FA000F3FA16E0B148844208D10121802000F014
:100FB000EBFA0021802000F0E7FA0AE0AC48844216
:100FC00007D10121801500F0DFFA0021A01500F003
:100FD000DBFA10BD10B50121084600F0D5FA00215A
:100FE000012000F0D1FA10BD2DE9F04102460025A4
:100FF0000026002000230024002791F803C00CF0F5
:101000000F0591F803C01CF0100F03D091F802C037
:101010004CEA050591F800C0BCF1000F31D014680E
:1010200000202BE04FF0010C0CFA00F3B1F800C0E7
:101030000CEA03069E4220D183004FF00F0C0CFAFD
:1010400003F7BC4305FA03FC4CEA040491F803C01F
:10105000BCF1280F06D14FF0010C0CFA00FCC2F8CD
:1010600014C00AE091F803C0BCF1480F05D14FF05D
:10107000010C0CFA00FCC2F810C0401C0828D1D3A7
:101080001460B1F800C0BCF1FF0F34DD54680020DB
:101090002EE000F1080C4FF0010808FA0CF3B1F84B
:1010A00000C00CEA03069E4221D183004FF00F0CD2
:1010B0000CFA03F7BC4305FA03FC4CEA040491F86C
:1010C00003C0BCF1280F05D100F1080C08FA0CF898
:1010D000C2F8148091F803C0BCF1480F07D100F1A9
:1010E000080C4FF0010808FA0CF8C2F81080401CF8
:1010F0000828CED35460BDE8F0814FF6FF7101801F
:10110000022181700421C17070470246002093685B
:101110000B4201D0012000E00020704701468868A2
:1011200080B2704702460020D3680B4201D00120F4
:1011300000E0002070470146C86880B27047016136
:101140007047416170470AB1016100E04161704739
:10115000C16070474FF480320A43826181618261CD
:1011600082698269704702460020424B18684FF638
:101170008073184040EA021008433E4B18607047E5
:101180003D49C8617047F0B50A460023002400219C
:10119000002500F00046B6F1004F02D1354EF1694E
:1011A00001E0344E7168C0F3034583B200F4401689
:1011B000B6F5401F08D121F070612E4E766826F0FA
:1011C00070662C4F7E6012E000F48016B6F5801F2A
:1011D00006D1032606FA05F4A14341F0706106E04A
:1011E000460D360103FA06F6B14341F0706122B1B3
:1011F000460D360103FA06F6314300F00046B6F11B
:10120000004F02D11B4EF16101E01A4E7160F0BD3A
:1012100030B500228B071C0F0F2303FA04F2154B85
:1012200008338C1053F824309343124C08348D103B
:1012300044F8253023468C1053F824308C07240FB3
:1012400000FA04F423430B4C08348D1044F8253085
:1012500030BD0A490860704700080140000C014099
:10126000001001400014014000180140001C014022
:10127000002001400000014000002042DC0020422C
:10128000DD48006840F00100DB490860084640681E
:10129000DA490840D849486008460068D8490840FB
:1012A000D54908600846006820F480200860084698
:1012B000406820F4FE0048604FF41F0088607047CB
:1012C000CD49096821F48031CB4A11601146096883
:1012D00021F480211160B0F5803F03D0B0F5802F5C
:1012E0000ED106E0C449096841F48031C24A116058
:1012F00007E0C149096841F4A021BF4A116000E03C
:1013000000BF00BF704710B5014600220023002037
:101310004A11012A02D1B84C236806E0022A02D100
:10132000B54C236A01E0B44C636A01F01F0201244A
:1013300094401C4201D0012000E0002010BD38B5CF
:10134000002000900024002500BF3120FFF7DBFFC4
:1013500005460098401C00900098B0F5A06F01D0A1
:10136000002DF2D03120FFF7CEFF08B1012400E0BC
:101370000024204638BD014600209F4A106820F016
:10138000F80040EAC100106070479E49086070474D
:1013900002460020984B586820F47C1042EA010372
:1013A0001843954B58607047964908667047014648
:1013B0000020914A506820F00300084350607047B5
:1013C0008D48406800F00C007047014600208A4AB2
:1013D000506820F0F000084350607047014600203C
:1013E000854A506820F4E060084350607047014629
:1013F0000020814A506820F4605040EAC1005060EB
:10140000704729B17C4A527A02437B4B5A7204E0FE
:10141000794A527A8243784B5A7270477A49086007
:10142000704701460020744A506820F44040084349
:10143000506070470021754A11706F4A82F8201081
:10144000012802D0042808D103E001216F4A11705D
:1014500004E005216D4A117000E000BF00BF704735
:101460006B49086070476449096A0143624A116226
:101470007047674944390860704730B50021002241
:10148000002400235C4D6D6805F00C0121B1042996
:1014900005D0082923D105E05E4D056022E05D4DB1
:1014A00005601FE0544D6D6805F47012524D6D6873
:1014B00005F48034022505EB92421CB9564D554384
:1014C00005600BE04C4D6D6815F4003F03D0524DA4
:1014D0005543056002E04F4D5543056002E04D4D18
:1014E000056000BF00BF444D6D6805F0F0010909BB
:1014F0004A4D6B5C0568DD4045603F4D6D6805F405
:10150000E061090A454D6B5C4568DD4085603A4DF8
:101510006D6805F46051C90A404D6B5C4568DD405B
:10152000C560354D6D6805F44041890B3C4D6B5CE1
:10153000C568B5FBF3F5056130BD29B12E4A526986
:1015400002432D4B5A6104E02B4A526982432A4BD5
:101550005A61704729B1284A92690243264B9A6121
:1015600004E0254A92698243234B9A61704729B16E
:10157000214AD2690243204BDA6104E01E4AD26953
:1015800082431D4BDA61704729B11B4AD26802437E
:10159000194BDA6004E0184AD2688243164BDA60CD
:1015A000704729B1144A12690243134B1A6104E0CF
:1015B000114A12698243104B1A617047144940392D
:1015C000086070470F49C86470470B49C87170477D
:1015D0000948406A40F080700749486270470146F8
:1015E0000020054A92680A4201D0012000E0002054
:1015F0007047014988727047001002400000FFF8F0
:10160000FFFFF6FE00004242D80042422010024096
:101610008004424200127A0000093D0014000020BC
:101620002400002010B50446BE48844208D10121A0
:101630008014FFF7A9FF0021A014FFF7A5FF16E013
:10164000B948844208D101210014FFF7AAFF002104
:101650002014FFF7A6FF0AE0B448844207D1012115
:10166000C013FFF79EFF0021E013FFF79AFF10BDA4
:1016700010B50022028802F441520B884C882343A3
:101680008C882343CC8823430C8923434C892343F0
:101690008C892343CC8923431A430280838B4FF2E6
:1016A000FF74234083830B8A038210BD2DE9F04F22
:1016B00085B005460C464FF0000902274FF00008A0
:1016C0004FF0010B0026B246A88B4FF240010840B4
:1016D000A88302202884B5F81C90A068022801D1B4
:1016E00000BF38E0A08810B94FF0010B01E04FF0C7
:1016F000020B8D48854200D100E000BF6846FFF72D
:10170000BCFEDDF800A0E088B0F5007F0AD14FEA0A
:101710001A2000EB80004000A168B0FBF1F0401DF2
:1017200086B20BE04FEA4B10BAFBF0F000EB800002
:101730004000A168B0FBF1F0401D86B20A20B6FB64
:10174000F0F606F00108A6EB0800C0F34F074FF6CD
:10175000FF7000EA0828022F01DBFF2F02DD0227BD
:101760004FF00008E08840EA080038432884A08849
:10177000A1890843618808432188084340F4006038
:1017800040EA0909A5F81C9005B0BDE8F08F0021DA
:10179000018041808180C180018141818181C1813D
:1017A0000721018270470021018041808180C18032
:1017B0000221816000218181704721B1028842F0BD
:1017C0004002028004E002884FF6BF731A40028094
:1017D000704721B1828B42F48062828304E0828B65
:1017E0004FF6FF331A408283704730B50024002340
:1017F0000C110125A540ABB21AB185881D43858027
:1018000002E085889D43858030BD1AB183880B43F3
:10181000838002E083888B43838070478181704797
:10182000014688897047A1F57E42FF3A04D00288BC
:1018300042F48072028004E002884FF6FF631A408F
:101840000280704721B1828842F00402828004E065
:1018500082884FF6FB731A408280704702884FF2ED
:10186000FF731A40028002880A4302807047018891
:1018700041F480510180704721B1028842F4005246
:10188000028004E002884DF6FF731A400280704720
:1018900002460020012901D0108B00E0908A704799
:1018A0000146088A7047B1F5804F04D1028842F49E
:1018B0008042028004E002884BF6FF731A400280E7
:1018C00070470246002013890B4201D0012000E03E
:1018D00000207047CA4302817047F0B502460020DD
:1018E00000240023002501F00F070126BE40B4B2FA
:1018F0000B1101269E40B3B2968806EA03051689AD
:10190000264202D00DB1012000E00020F0BD10B54C
:10191000002201F00F040123A3409AB2D3430381B4
:1019200010BD00000030014000380040003C004085
:1019300010B50446FE48844208D10121C014FFF7C7
:1019400023FE0021E014FFF71FFEC4E0B4F1804F36
:1019500008D101210846FFF724FE00210120FFF7EE
:1019600020FEB8E0F348844208D101210220FFF7AD
:1019700018FE00210220FFF714FEACE0EE4884427E
:1019800008D101210420FFF70CFE00210420FFF7FD
:1019900008FEA0E0E948844208D101210820FFF7B1
:1019A00000FE00210820FFF7FCFD94E0E44884429B
:1019B00008D101211020FFF7F4FD00211020FFF7CE
:1019C000F0FD88E0DF48844208D101212020FFF7A4
:1019D000E8FD00212020FFF7E4FD7CE0DA488442A6
:1019E00008D101214014FFF7CFFD00216014FFF75B
:1019F000CBFD70E0D548844209D10121C804FFF72E
:101A0000C3FD00214FF40020FFF7BEFD63E0D04886
:101A1000844209D101210805FFF7B6FD00214FF4EA
:101A20008010FFF7B1FD56E0CA48844209D1012178
:101A30004805FFF7A9FD00214FF40010FFF7A4FDB2
:101A400049E0C548844208D101214020FFF7A9FDA3
:101A500000214020FFF7A5FD3DE0C048844208D1A9
:101A600001218020FFF79DFD00218020FFF799FDD7
:101A700031E0BB48844208D101218015FFF791FD78
:101A80000021A015FFF78DFD25E0B648844209D15D
:101A900001210804FFF778FD00214FF48030FFF7A3
:101AA00073FD18E0B048844209D101214804FFF7D2
:101AB0006BFD00214FF40030FFF766FD0BE0AB48F3
:101AC000844208D101218804FFF75EFD00214FF414
:101AD0008020FFF759FD10BD00220288944B9842E8
:101AE0000ED0994B98420BD0B0F1804F08D0914B5B
:101AF000984205D0904B984202D0904B984204D126
:101B00004FF68F731A404B881A438D4B984207D07B
:101B10008C4B984204D04FF6FF431A40CB881A43AF
:101B200002808B8883850B880385814B98420BD07C
:101B3000854B984208D08B4B984205D08A4B9842EF
:101B400002D08A4B984201D10B7A0386012383820B
:101B5000704770B5002400220023058C4FF6FE76F6
:101B600035400584028C8388048B4FF68F752C409A
:101B7000B51E2C400D882C43751E2A400D892A4322
:101B80004D882A436A4DA8420BD06F4DA84208D019
:101B9000744DA84205D0744DA84202D0734DA8429E
:101BA00013D14FF6F7752A404D892A434FF6FB753E
:101BB0002A408D882A434FF6FF652B404FF6FF558C
:101BC0002B408D892B43CD892B4383800483CD8883
:101BD0008586028470BD70B5002400220023058C28
:101BE0004FF6EF7635400584028C8388048B48F6E7
:101BF000FF752C404FF6FF452C400D884FF6FF76C1
:101C000006EA05252C434FF6DF752A400D8906EAC2
:101C100005152A434D8806EA05152A43444DA84276
:101C200002D0494DA8421DD14FF67F752A404D89FB
:101C30004FF6FF7606EA05152A434FF6BF752A4090
:101C40008D8806EA05152A434FF6FF352B404FF2E3
:101C5000FF752B408D8906EA85052B43CD8906EA61
:101C600085052B4383800483CD880587028470BD5E
:101C700070B5002400220023058C4FF6FF66354026
:101C80000584028C8388848B4FF68F752C404FF629
:101C9000FC752C400D882C434FF6FF552A400D89CA
:101CA0004FF6FF7606EA05252A434D8806EA052504
:101CB0002A431F4DA84202D0234DA8421DD14FF206
:101CC000FF752A404D894FF6FF7606EA05252A431F
:101CD0004FF6FF352A408D8806EA05252A434EF641
:101CE000FF752B404DF6FF752B408D8906EA0515D3
:101CF0002B43CD8906EA05152B4383808483CD8849
:101D00008587028470BD70B5002200230024058CF5
:101D10004EF6FF7635400584038C8488828B48F626
:101D2000FF752A404FF6FF452A400D8820E000004D
:101D3000002C01400004004000080040000C00405E
:101D4000001000400014004000340140004C0140ED
:101D5000005001400054014000180040001C0040A9
:101D60000020004000400140004401400048014084
:101D70004FF6FF7606EA05252A434DF6FF752B4000
:101D80000D8906EA05352B434D8806EA05352B43B8
:101D9000FA4DA84202D0FA4DA84208D14BF6FF7581
:101DA0002C408D894FF6FF7606EA85152C438480FA
:101DB0008283CD88A0F84050038470BD828B4FF29F
:101DC000FF331A408283828B4FF6FF7303EA0123AD
:101DD0001A4382837047F0B50C4615460022002155
:101DE0000026078C4EF6FF7C07EA0C070784828BDF
:101DF000018C4FF6FF7707EA043640F6FF473A407A
:101E00004FF6FF7707EA05273A434FF6FF7707EAD1
:101E100003373A43D94FB8420ED0D94FB8420BD00E
:101E2000B0F1804F08D0D74FB84205D0D64FB84256
:101E300002D0D64FB84206D14DF6FF77394046F46E
:101E40008057394305E047F6FF57394044F480573F
:101E5000394382830184F0BD828B4FF6F3731A40BD
:101E60008283828B0A4382837047F0B50C46154605
:101E7000002200210026078C4FF6FF6C07EA0C07B2
:101E80000784828B018C4FF6FF7707EA04264FF612
:101E90000C773A404FF6FF7707EA03172F433A4390
:101EA000B64FB8420ED0B64FB8420BD0B0F1804F0B
:101EB00008D0B44FB84205D0B34FB84202D0B34FA8
:101EC000B84206D14FF6FF57394046F48077394380
:101ED00005E04FF2FF57394044F48077394382835D
:101EE0000184F0BD028B4FF2FF331A400283028B54
:101EF0004FF6FF7303EA01231A4302837047F0B5DC
:101F00000C461546002200210026078C4FF6EF7C78
:101F100007EA0C070784028B018C4FF6FF7707EA6C
:101F2000041640F6FF473A404FF6FF7707EA0337BB
:101F30003A434FF6FF7707EA05273A438F4FB842F7
:101F40000ED08F4FB8420BD0B0F1804F08D08D4FDC
:101F5000B84205D08C4FB84202D08C4FB84206D15F
:101F60004FF6DF77394046F01007394305E04FF66A
:101F70005F77394044F01007394302830184F0BD94
:101F8000028B4FF6F3731A400283028B0A430283DB
:101F90007047F0B50C46154600220021068C4FF61E
:101FA000FE773E400684028B018C4FF60C76324061
:101FB0007E1C06EA03162E433243704EB0420ED00A
:101FC0006F4EB0420BD0B0F1804F08D06D4EB04292
:101FD00005D06D4EB04202D06C4EB04206D14FF6E5
:101FE000FD76314044F00106314305E04FF6F576C9
:101FF000314044F00106314302830184F0BD70B5E5
:1020000005460C465D4885420ED05D4885420BD0A2
:10201000B5F1804F08D05B48854205D05A488542CB
:1020200002D05A48854200D100E000BF208850B954
:102030002389A28861882846FFF7ABFFE1882846FC
:10204000FFF79EFF25E0208804280AD12389A28873
:1020500061882846FFF753FFE1882846FFF742FFD3
:1020600017E0208808280AD12389A2886188284699
:10207000FFF7FBFEE1882846FFF7EEFE09E0238923
:10208000A28861882846FFF7A6FEE1882846FFF768
:1020900095FE70BD2DE9F04105460C46002601274E
:1020A000608808B9022600E00026A088012801D136
:1020B000022700E001272088A0B92389A28861882F
:1020C0002846FFF766FFE1882846FFF759FF238976
:1020D0003A4631462846FFF712FFE1882846FFF7C7
:1020E00001FF13E02389A28861882846FFF707FFD4
:1020F000E1882846FFF7F6FE23893A46314628460E
:10210000FFF747FFE1882846FFF73AFFBDE8F08177
:102110000A884B881A438B881A43CB881A430B8949
:102120001A434B891A438B891A43A0F844207047FD
:102130004FF6FF71818000210180C18041800172D2
:1021400070470021018041808180C18001814181EF
:102150008181C181704700210180418001218180FE
:102160000021C18001817047002101804180818070
:10217000C18001814181818170470000002C0140B4
:10218000003401400004004000080040000C004002
:1021900021B1028842F00102028004E002884FF679
:1021A000FE731A400280704731B1B0F8442042F407
:1021B0000042A0F8442005E0B0F84420C2F30E022B
:1021C000A0F8442070471AB183890B43838102E051
:1021D00083898B43838170478182704741EA020380
:1021E000A0F8483070471AB183890B43838102E01D
:1021F00083898B438381704701894FF6F8721140C0
:10220000018170470A46002101894FF68F731940FA
:1022100011430181704730B504460D4629462046DA
:10222000FFF7F0FF208940F00700208130BD2DE945
:10223000F04104460D4616461F46602D06D13B462A
:10224000012231462046FFF75AFE05E03B460122B7
:1022500031462046FFF79DFE29462046FFF7D2FF74
:10226000208940F007002081BDE8F08130B50C46A0
:1022700000210189C9B24FF6FF7505EA0325154310
:1022800025432943018130BD2DE9F04105460E4625
:1022900017469846002443463A4631462846FFF7FB
:1022A000E5FF2C894FF6F870044044F007044FF620
:1022B0008F70044044F070042C81BDE8F081F0B5CB
:1022C00004460D4616461F463B46324629462046E2
:1022D000FFF7CCFF208940F480402081F0BD0185CC
:1022E000828270470A46002101884FF68F73194099
:1022F000114301807047F0B50C4615461E4600217B
:10230000002200230189028B038C4FF6F8773940B5
:1023100021434FF6FC473A4040F201173A434FF64B
:10232000DD773B404FF6FF7707EA06172F433B4325
:10233000018102830384F0BD0A460021018B4FF620
:102340008F7319401143018370470A460021018BA6
:1023500048F6FF7319404FF6FF7303EA022319434F
:10236000018370470A460021818B4FF68F73194015
:102370001143818370470A460021818B48F6FF7321
:1023800019404FF6FF7303EA022319438183704714
:1023900021B1028842F08002028004E002884FF6F8
:1023A0007F731A400280704721B1828842F0040294
:1023B000828004E082884FF6FB731A408280704767
:1023C00021B1828842F00802828004E082884FF6C0
:1023D000F7731A408280704721B1828842F001026F
:1023E000828004E082884FF6FE731A408280704734
:1023F0000A460021018B4FF6F77319401143018300
:1024000070470A460021018B4FF2FF7319404FF6C7
:10241000FF7303EA02231943018370470A46002130
:10242000818B4FF6F77319401143818370470A4639
:102430000021818B4FF2FF7319404FF6FF7303EABF
:1024400002231943818370470A460021018B4FF60E
:10245000FB7319401143018370470A460021018B29
:102460004FF6FF3319404FF6FF7303EA0223194377
:10247000018370470A460021818B4FF6FB73194098
:102480001143818370470A460021818B4FF6FF3349
:1024900019404FF6FF7303EA022319438183704703
:1024A0000A460021018B4FF67F73194011430183C7
:1024B00070470A460021018BC1F30E014FF6FF73EE
:1024C00003EA02231943018370470A460021818BE6
:1024D0004FF67F7319401143818370470A460021EC
:1024E000818BC1F30E014FF6FF7303EA02231943F8
:1024F000818370470A460021018C4FF6FD73194015
:102500001143018470470A460021018C4FF6F7738E
:1025100019401143018470470A460021018C4FF68F
:10252000DF7319404FF6FF7303EA02131943018466
:1025300070470A460021018C4FF67F7319404FF611
:10254000FF7303EA02131943018470470A4600210E
:10255000018C4FF6FF5319404FF6FF7303EA022335
:102560001943018470470A460021018C4FF2FF7322
:1025700019404FF6FF7303EA0223194301847047A1
:102580000A460021018C4DF6FF7319404FF6FF7388
:1025900003EA023319430184704730B50023012454
:1025A0008C40A3B2048C9C430484048C02FA01F591
:1025B000ADB22C43048430BD30B5002304248C40DC
:1025C000A3B2048C9C430484048C02FA01F5ADB2DE
:1025D0002C43048430BD70B5034600200024184607
:1025E000183001258D40ACB21D8CA5431D8409B166
:1025F000082909D100EB6100056825F07005056028
:102600000568154305600EE00D1FC5F34E0528440F
:10261000056825F4E045056005684FF6FF7606EA93
:1026200002263543056070BD21B1028842F00202E6
:10263000028004E002884FF6FD731A400280704762
:1026400021B1028842F00402028004E002884FF6C1
:10265000FB731A400280704721B1828842F08002E9
:10266000828004E082884FF67F731A408280704730
:1026700002884FF6F7731A40028002880A430280EC
:10268000704782884FF68F731A40828082880A438F
:102690008280704702894FF6F8731A4002810289DE
:1026A0000A430281704702894FF67F731A40028104
:1026B00002890A430281704781847047818570478F
:1026C000818670470187704781877047A0F8401066
:1026D000704702884FF6FF431A40028002880A437F
:1026E000028070470146888E70470146088F704708
:1026F0000146888F70470146B1F840007047014697
:10270000888C70470146088D704702460020138A66
:102710000B4201D0012000E000207047CA43028232
:10272000704730B50246002000230024158A05EAD0
:102730000103958905EA010413B10CB1012000E001
:10274000002030BDCA4302827047000010B5044625
:10275000FB48844209D101218803FEF715FF0021BF
:102760004FF48040FEF710FF32E0F648844209D172
:1027700001214804FEF715FF00214FF40030FEF759
:1027800010FF25E0F048844209D101218804FEF7BA
:1027900008FF00214FF48020FEF703FF18E0EB480C
:1027A000844209D10121C804FEF7FBFE00214FF449
:1027B0000020FEF7F6FE0BE0E548844208D1012137
:1027C0000805FEF7EEFE00214FF48010FEF7E9FE4B
:1027D00010BD2DE9F04786B005460E460024A246FE
:1027E00000BFA1460027B08900B100BF2F462C8A48
:1027F0004CF6FF700440F08804432C82AC894EF6FE
:10280000F3100440B08831890843718908430443B8
:10281000AC81AC8A4FF6FF400440B0890443AC82DF
:1028200001A8FEF72AFEC648874202D1DDF810A0B3
:1028300001E0DDF80CA0A88910F4004F08D00AEBE5
:10284000CA0000EB0A1031684900B0FBF1F807E05C
:102850000AEBCA0000EB0A1031688900B0FBF1F8FE
:102860006420B8FBF0F004012009642101FB108909
:10287000A88910F4004F08D0322000EBC900B0FB4B
:10288000F1F000F00700044308E0322000EB0910EB
:102890006421B0FBF1F000F00F0004432C8106B07E
:1028A000BDE8F0874FF41651016000218180C1809E
:1028B00001810C21418100218181704710B50246C0
:1028C0000020108A4FF2FF0318400B884C882343E6
:1028D0008C882343CC8823431843108210BD0021E9
:1028E000018041808180C180704721B1828942F49A
:1028F0000052828104E082894DF6FF731A40828182
:102900007047F0B503460024002600250020A1F5FD
:1029100010676A3F00D100BF1846C1F3421401F0AE
:102920001F06012707FA06F5012C01D10C3004E03F
:10293000022C01D1103000E014301AB107682F4387
:10294000076002E00768AF430760F0BD1AB1838AF1
:102950000B43838202E0838A8B4383827047028A1F
:102960004FF6F0731A400282028A0A4302827047CD
:1029700082894FF2FF731A40828182890A438281E1
:10298000704721B1828942F00202828104E082898B
:102990004FF6FD731A4082817047028A4FF6DF734B
:1029A0001A400282028A0A430282704721B1028AD7
:1029B00042F48042028204E0028A4BF6FF731A401E
:1029C00002827047C1F308028280704701468888FE
:1029D000C0F308007047818941F00101818170478F
:1029E000028BD2B20283028B42EA01220283704739
:1029F000028B02F47F420283028B0A4302837047F8
:102A000021B1828A42F02002828204E0828A4FF65B
:102A1000DF731A408282704721B1828A42F010022D
:102A2000828204E0828A4FF6EF731A4082827047F6
:102A300021B1828A42F00802828204E0828A4FF643
:102A4000F7731A408282704721B1828942F40042B2
:102A5000828103E08289C2F30E028281704721B134
:102A6000828A42F40062828204E0828A4FF2FF731B
:102A70001A4082827047828A4FF6FB731A40828224
:102A8000828A0A438282704721B1828A42F002021E
:102A9000828204E0828A4FF6FD731A408282704778
:102AA00002460020B1F5007F00D100BF13880B4221
:102AB00001D0012000E00020704701F40072B2F55F
:102AC000007F00D100BFCA430280704770B5024644
:102AD0000024002300250020A1F510666A3E00D1E5
:102AE00000BFC1F3421501F01F03012606FA03F3EC
:102AF000012D02D19689334006E0022D02D1168ABB
:102B0000334001E0968A33400C12012606FA04F4A1
:102B10001688344013B10CB1012000E0002070BDD4
:102B200010B500220023A1F510646A3C00D100BF5B
:102B30000A1201249440A3B2DC43048010BD0000BB
:102B4000003801400044004000480040004C004074
:102B50000050004008B501211020FEF7FBFC0F20BB
:102B6000ADF8000003208DF8020048208DF8030026
:102B700069465748FEF738FA5548FEF7CFFA00F095
:102B80000F005449097808445249087008BD08B537
:102B90004FF4A060FDF7D6FB14208DF80000002054
:102BA0008DF801008DF8020001208DF803006846C1
:102BB000FDF7CDFB25208DF8000000208DF80100E9
:102BC00001208DF802008DF803006846FDF7BFFB79
:102BD00026208DF8000000208DF8010002208DF8DD
:102BE000020001208DF803006846FDF7B0FB0A20C3
:102BF0008DF8000000208DF8010003208DF8020000
:102C000001208DF803006846FDF7A1FB1C208DF81C
:102C1000000001208DF8010000208DF80200012045
:102C20008DF803006846FDF792FB08BDFFF7AFFF84
:102C300001F068FB00F0F8F800F02DFAFFF78AFFCA
:102C400000F016FB01F000FB22480078C12803D1F8
:102C500000F042FB00F0B8FE00201F4908601FA0F2
:102C600004F01CFE32E000F021FB1F48007828B180
:102C700018480078C12801D104F0DEF91B4800781B
:102C800008B101F043F81A48006828B1002018493B
:102C9000086018A004F002FE1B480078B0B10120C3
:102CA0001A4908700020184908700A480078C1289D
:102CB00001D100F051FB01F085F901F02FF8144823
:102CC00003784278817813A004F0E8FDCBE7000098
:102CD000001001402A000020680000205354415297
:102CE00054210D0A000000000B01002066000020A6
:102CF0005C00002043414E3120676574206461749C
:102D000061210D0A00000000290000202B00002096
:102D10004500002054696D653A25783A25783A25B2
:102D2000780D0A00704700BFFEE700BFFEE700BF56
:102D3000FEE700BFFEE770477047704710B501F02F
:102D4000D0FA34480068401C3249086008460068E0
:102D50000A21B0FBF1F201FB1200052806D22E4831
:102D6000007840F002002C49087005E02A480078FD
:102D700000F0FD0028490870264800686421B0FB77
:102D8000F1F201FB1200322806D22348007840F00D
:102D900004002149087005E01F48007800F0FB009E
:102DA0001D4908701B4800684FF47A71B0FBF1F2BE
:102DB00001FB1200B0F5FA7F06D21748007840F008
:102DC00008001549087005E01348007800F0F70086
:102DD000114908700F4800686421B0FBF1F201FB53
:102DE000120018B901200D49087002E000200B49BB
:102DF000087010BD10B51020FEF77CF840B10848EF
:102E000000F0B9F90120074908701020FEF783F897
:102E100010BD0000680000206C0000206D00002044
:102E2000450000202900002000B589B001210420C0
:102E3000FEF790FB01214806FEF799FB4FF4006076
:102E4000ADF8040003208DF8060004208DF807007B
:102E500001A94A48FEF7C8F84FF48050ADF80400C5
:102E600018208DF8070001A94448FEF7BDF8444832
:102E7000FDF7D6FA06A8FDF7F7FB00208DF81E0037
:102E800001208DF81F0000208DF820008DF8210012
:102E90008DF8220001208DF8230000208DF81A0003
:102EA0008DF81B0002208DF81C0001208DF81D00FC
:102EB0000620ADF8180006A93148FDF7CAFA00202F
:102EC0008DF812008DF8130001208DF814000020F9
:102ED000ADF80800ADF80A00ADF80C00ADF80E0032
:102EE000ADF8100001208DF81500012202212448C0
:102EF000FDF738FE02A8FDF736FB09B000BD00B5AE
:102F000085B06A4600211E48FDF711FD684600F0B5
:102F100080FE01201B49087002211948FDF723FF9C
:102F200005B000BD30B585B004460D4600950020C3
:102F30008DF809008DF8080008208DF80A00207827
:102F40008DF80B0061788DF80C10A1788DF80D10BC
:102F5000E1788DF80E1021798DF80F1061798DF8D8
:102F60001010A1798DF81110E1798DF812106946D1
:102F70000348FDF7E7FB05B030BD00000008014045
:102F800000640040280000200EB501210920FEF752
:102F9000E1FA1020ADF8080048208DF80B0002A9D6
:102FA000A348FEF721F804210120FEF731F9102093
:102FB000009000208DF804000C208DF80500012001
:102FC0008DF806006846FDF72FFF0EBD10B5D02026
:102FD00001F027F910BD2DE9F04706460F4690464F
:102FE000B94600242BE0ECB901F05BF800250AE0BB
:102FF00001F03FF8D02001F066F801F0B2F800B916
:1030000003E0681C85B2642DF2DB00BFB5F57A7F62
:1030100000D11BE009F0FF0001F055F801F0A1F824
:1030200000B113E0305D01F04EF801F09AF800B104
:103030000CE009F101001FFA80F9601C84B24445DC
:10304000D1DB01F02EF80120BDE8F08701F029F86E
:103050000020F9E71CB5002001908020009001209D
:10306000019001220E2101A8FFF7B5FF01220721DF
:103070006846FFF7B0FF012208216846FFF7ABFF63
:10308000012209216846FFF7A6FF01220A216846AE
:10309000FFF7A1FF1CBD10B5FFF798FFFFF774FF06
:1030A000FFF7D8FF10BD7CB50446002000900190CA
:1030B000002520788DF8000060788DF80100A07858
:1030C0008DF80200E0788DF8030020798DF8040077
:1030D00060798DF80500A0798DF806000FE0681C76
:1030E000C5B2072200216846FFF775FF012803D10A
:1030F00050A004F0D3FB04E051A004F0CFFB052D59
:10310000EDDB00BF7CBD2DE9F04106460F461546BC
:1031100000F0AFFFD02000F0D6FF01F022F800B1A0
:1031200025E0F8B200F0CFFF01F01BF800B11EE07F
:1031300000F09FFFD12000F0C6FF01F012F800B1AF
:1031400015E000240CE000F0EBFF3055681EA042B3
:1031500002D001F023F801E001F03AF8601C84B2DB
:10316000AC42F0DB00F09DFF0120BDE8F08100F0F3
:1031700098FF0020F9E71CB504460020009001905C
:10318000072200216846FFF7BEFF012815D19DF8F0
:10319000000020709DF8010060709DF80200A07092
:1031A0009DF80300E0709DF8040020719DF8050073
:1031B00060719DF80600A07102E025A004F06EFB8E
:1031C0001CBD38B50446012221466846FFF79BFF27
:1031D0009DF8000038BD13B504460122214601A820
:1031E000FFF7F9FE012800D11CBD0020FCE710B557
:1031F00086B0142101A804F00CF800241322002149
:1032000001A8FFF780FF01280CD100BF07E001A84B
:10321000025D214612A004F041FB601CC4B2132CD5
:10322000F5DB02E00AA004F039FB06B010BD000097
:10323000000C01405772697465204F4B0D0A000065
:103240005772697465204661696C6564210D0A00D6
:1032500052656164206661696C6564210D0A000035
:10326000526567307825783A307825780D0A000065
:1032700008B501210420FEF76DF94FF44070ADF858
:10328000000003208DF8020010208DF8030069462D
:103290000F48FDF7A9FE4FF480710D48FDF74FFF71
:1032A0004FF400710A48FDF74AFF08BD10B5094800
:1032B000007810F0080F05D04FF480710448FDF736
:1032C00040FF04E04FF480710148FDF738FF10BD66
:1032D000000C01406C00002000B585B001210420E5
:1032E000FEF738F901214804FEF741F90420ADF852
:1032F000100018208DF8130003208DF8120004A987
:10330000FE48FDF771FE0820ADF8100004208DF88E
:10331000130004A9F948FDF767FE4FF4E13000906F
:103320000020ADF80400ADF80600ADF80800ADF8D7
:103330000C000C20ADF80A006946F148FFF749FA85
:10334000012240F22551EE48FFF7DBFA0121EC485B
:10335000FFF7CBFA05B000BD10B588B000240020FF
:103360000090A5222146641C01A842545A222146FD
:10337000641C425400222146641C4254822221468D
:10338000641C42549DF800202146641C42549DF860
:1033900001202146641C425432222146641C4254BE
:1033A00030222046611CCCB201A90A5431222146A8
:1033B000601CC4B201A8425437222046611CCCB222
:1033C00001A90A542D222046611CCCB201A90A543D
:1033D000CC484079302101EB10122046611CCCB260
:1033E00001A90A54C748407900F00F003030214647
:1033F000621CD4B201AA50542D222046611CCCB2CA
:1034000001A90A54BF480079302101EB101220466F
:10341000611CCCB201A90A54BA48007900F00F002F
:1034200030302146621CD4B201AA505420222046DA
:10343000611CCCB201A90A54B2488078302101EB5A
:1034400010122046611CCCB201A90A54AD48807804
:1034500000F00F0030302146621CD4B201AA505453
:103460003A222046611CCCB201A90A54A5484078F2
:10347000302101EB10122046611CCCB201A90A5484
:10348000A048407800F00F0030302146621CD4B2D2
:1034900001AA50543A222046611CCCB201A90A5418
:1034A00098480078302101EB10122046611CCCB204
:1034B00001A90A549348007800F00F0030302146EB
:1034C000621CD4B201AA5054E01EC0B28DF80600AE
:1034D000601CC4B2224601A9894800F08DFF08B0E3
:1034E00010BD10B588B000244FF480700090A52264
:1034F0002146641C01A842545A222146641C4254AD
:1035000000222146641C425482222146641C4254FB
:103510009DF801202146641C42549DF8002021465C
:10352000641C425478480078642190FBF1F00A2131
:1035300090FBF1F201FB12003030C2B22146641C54
:1035400001A84254704800780A2190FBF1F090FBEA
:10355000F1F201FB12003030C2B22046611CCCB245
:1035600001A90A54684800780A2190FBF1F201FB96
:1035700012003030C2B22046611CCCB201A90A54FC
:103580002E222046611CCCB201A90A545E48407824
:10359000642190FBF1F00A2190FBF1F201FB120093
:1035A0003030C2B22046611CCCB201A90A54564840
:1035B00040780A2190FBF1F090FBF1F201FB120040
:1035C0003030C2B22046611CCCB201A90A544E4828
:1035D00040780A2190FBF1F201FB12003030C2B2B8
:1035E0002046611CCCB201A90A542E222046611C3F
:1035F000CCB201A90A5444488078642190FBF1F0D0
:103600000A2190FBF1F201FB12003030C2B22046D9
:10361000611CCCB201A90A543B4880780A2190FB76
:10362000F1F090FBF1F201FB12003030C2B2204603
:10363000611CCCB201A90A54334880780A2190FB5E
:10364000F1F201FB12003030C2B22046611CCCB254
:1036500001A90A542E222046611CCCB201A90A54A9
:103660002948C078642190FBF1F00A2190FBF1F227
:1036700001FB12003030C2B22046611CCCB201A95D
:103680000A542148C0780A2190FBF1F090FBF1F236
:1036900001FB12003030C2B22046611CCCB201A93D
:1036A0000A541948C0780A2190FBF1F201FB12007C
:1036B0003030C2B22046611CCCB201A90A54E01ECF
:1036C000C0B28DF80600601CC4B222460C4800F05F
:1036D00093FE08B010BD10B588B000244FF4887078
:1036E0000090A5222146641C01A842545A2221467A
:1036F000641C425400222146641C07E0000801407B
:103700000044004045000020F20000204254822284
:103710002146641C42549DF801202146641C4254F9
:103720009DF800202146641C4254A34800884FF4B1
:103730007A7190FBF1F00A2190FBF1F201FB12008B
:103740003030C2B22146641C01A842549A48008815
:10375000642190FBF1F00A2190FBF1F201FB1200D1
:103760003030C2B22046611CCCB201A90A54924842
:1037700000880A2190FBF1F090FBF1F201FB1200AE
:103780003030C2B22046611CCCB201A90A548A482A
:1037900000880A2190FBF1F201FB12003030C2B226
:1037A0002046611CCCB201A90A54E01EC0B28DF8BB
:1037B0000600601CC4B22246804800F01DFE08B01E
:1037C00010BD10B588B000244FF490700090A52271
:1037D0002146641C01A842545A222146641C4254CA
:1037E00000222146641C425482222146641C425419
:1037F0009DF801202146641C42549DF8002021467A
:10380000641C42546E48007820BBCE222046611CC6
:10381000CCB201A90A54B4222046611CCCB201A941
:103820000A54C1222046611CCCB201A90A54AC2220
:103830002046611CCCB201A90A54BD222046611C5D
:10384000CCB201A90A54D3222046611CCCB201A9F2
:103850000A5423E0D2222046611CCCB201A90A54AA
:10386000D1222046611CCCB201A90A54C1222046B3
:10387000611CCCB201A90A54AC222046611CCCB216
:1038800001A90A54BD222046611CCCB201A90A54E8
:10389000D3222046611CCCB201A90A54E01EC0B25A
:1038A0008DF80600601CC4B2224601A9434800F00E
:1038B000A3FD08B010BD10B588B000248020009092
:1038C000A5222146641C01A842545A222146641CA8
:1038D000425400222146641C425482222146641C28
:1038E00042549DF801202146641C42549DF800205A
:1038F0002146641C4254B1222146641C4254BE221B
:103900002046611CCCB201A90A54BB222146601C8E
:10391000C4B201A84254FA222046611CCCB201A9CB
:103920000A5449222046611CCCB201A90A544422FF
:103930002046611CCCB201A90A543A222046611CDF
:10394000CCB201A90A5430222046611CCCB201A994
:103950000A5478222046611CCCB201A90A541948A5
:103960000078302101EB20122046611CCCB201A965
:103970000A541448007800F00F0030302146621CD1
:10398000D4B201AA5054E01EC0B28DF80600601CEB
:10399000C4B2224601A9094800F02EFD08B010BDAE
:1039A00010B540F225510548FFF790F810B10348D3
:1039B000FFF70CF810BD0000020100200044004099
:1039C0000B0100202A00002070B50024002502F021
:1039D00031FA02F06FFA02F01DFAF649F64802F0E9
:1039E000F9F8F648046808E003F098FAF348056827
:1039F000281BB0F5FA6F00D903E0F14800780028E1
:103A0000F2D000BFEE480078012808D1EDA003F005
:103A100045FFFA480188FAA003F040FF02E0FEA04B
:103A200003F03CFFFFF747FFFFF745FFFFF759FDA6
:103A3000FFF751FEFFF7C5FE70BD70B504460D4699
:103A40002078AA2815D16078AA2812D1E078012818
:103A50000FD12079FA49887160794871A07908718D
:103A6000E0798870207A4870607A08700846FFF71D
:103A70001AFB70BD1FB5002431222146641C0DF8CD
:103A8000012032222146641C0DF8012033222146F8
:103A9000641C0DF8012031222146641C0DF8012020
:103AA00032222146641C0DF8012033222146641C79
:103AB0000DF8012031222146641C0DF8012032222C
:103AC0002046611CCCB20DF8002033222046611C38
:103AD000CCB20DF8002031222046611CCCB20DF88A
:103AE000002032222046611CCCB20DF80020332287
:103AF0002046611CCCB20DF8002031222046611C0A
:103B0000CCB20DF8002032222046611CCCB20DF858
:103B1000002033222046611CCCB20DF800200F2279
:103B20006946002001F0B6FA1FBD7FB500240025CC
:103B3000AA222146641C0DF801202146641C0DF8C0
:103B400001200A222146641C0DF801201122214681
:103B5000641C0DF80120BB4802782146641C0DF856
:103B600001200078401CB749087002222146641CDD
:103B70000DF8012012222146641C0DF80120B248E4
:103B800082792046611CCCB20DF80020AE48427903
:103B90002046611CCCB20DF80020AB4802792046CB
:103BA000611CCCB20DF80020A74882782046611C29
:103BB000CCB20DF80020A44842782046611CCCB25B
:103BC0000DF80020A04802782046611CCCB20DF808
:103BD0000020254605E000222846691CCDB20DF8DC
:103BE00000200F2DF7DB0F226946002001F052FA6A
:103BF0007FBD30B503460C460021002000BF05E024
:103C00005D5C954200D108464D1CE9B2A142F7DB4C
:103C100030BD0168C02904D08C4A127801689142F5
:103C200052D1C17AF02904D1017B894A1170417BBC
:103C30005170C17AF12904D1017B864A1170417B10
:103C40005170C17AF22904D1017B834A1170417B02
:103C50005170C17AF32937D1C17BC1290DD1427B83
:103C6000017B01F00F017D4B03F81120827B017B6A
:103C700001F00F0103EB41014A70C17BC2290DD154
:103C8000427B017B01F00F01754B03F81120827B11
:103C9000017B01F00F0103EB41014A70C17BC32995
:103CA0000DD1427B017B01F00F016E4B03F8112017
:103CB000827B017B01F00F0103EB41014A70417BE4
:103CC00011B10121684A11707047614800780128DC
:103CD00000D100BF5E480078022800D100BF7047C5
:103CE0005C480078012800D100BF5A4800780228BB
:103CF00000D100BF704758480078012800D100BFAC
:103D000055480078022800D100BF704700B5FFF782
:103D1000DCFFFFF7E5FFFFF7EEFF00BD1CB500205D
:103D200000900190C02449480078C12804D0C228DE
:103D300020D0C3283CD19BE0F3208DF800004B48F5
:103D400000788DF801004948007800F00F004349E1
:103D500011F810008DF802004448007800F00F00C0
:103D600001EB400040788DF80300384800788DF86A
:103D700004009CE0F3208DF800003C4800788DF8AA
:103D800001003A48007800F00F00354911F81000A2
:103D90008DF802003548007800F00F0001EB40007C
:103DA00040788DF80300294800788DF804007EE003
:103DB0007CE00000E4000020DC000020680000201F
:103DC0000B0100205735353030D7F7CEAA54435079
:103DD00020536572766572A3ACBDA8C1A2D5ECCCA8
:103DE000FDA3ACB5C8B4FD54435020436C69656E67
:103DF00074C1ACBDD3200D0A0000000002010020F8
:103E00005735353030BCE0CCFDB6CBBFDACEAAA3F7
:103E1000BA202564200D0A003D3D3D3D3D44484308
:103E20005020696E697469616C697A6174696F6E3A
:103E3000206661696C65643D3D3D3D3D0D0A0000B5
:103E40004C0000206E000020450000202A000020C9
:103E50006000002062000020640000202D0000208F
:103E6000350000203D000020660000206F0000208B
:103E7000F3208DF80000714800788DF801006F483C
:103E8000007800F00F006E4911F810008DF8020064
:103E90006A48007800F00F0001EB400040788DF890
:103EA0000300684800788DF8040000E000BF00BF00
:103EB00062480078401C6149087008460078D428A0
:103EC00001D1D120087021466846FFF72BF81CBDB0
:103ED0005D49097839B9DD2805D101215A4A1170A7
:103EE0005A49087020E05849097801290AD1DD288B
:103EF00008D10221544A1170544948700021544A93
:103F0000117011E05049097802290AD15049097805
:103F10004F4A1278521C4E4B1A70891C4B4A50540F
:103F200002E00021484A117049490978891C082992
:103F300047D10021444A1170454A1170414909781E
:103F4000C12904D0C22915D0C32939D125E03F4960
:103F500009793E4AD27802F00F023E4B03F8121064
:103F60003A494979394AD27802F00F0203EB42020A
:103F7000517025E035490979344AD27802F00F02B0
:103F8000354B03F8121031494979304AD27802F0A2
:103F90000F0203EB4202517012E02C4909792B4ABF
:103FA000D27802F00F02264B03F812102749497904
:103FB000264AD27802F00F0203EB4202517000BF92
:103FC00000BF70471CB50020009001900024DD2246
:103FD0002146641C0DF801202146641C0DF80120C7
:103FE00010222146641C0DF801201C48027821464D
:103FF000641C0DF8012000222146641C0DF80120EC
:104000002146641C0DF801202146641C0DF8012096
:104010002046611CCCB20DF80020082269461048E9
:1040200000F0EAF90D480078401C0C490870084679
:104030000078C42801D1C12008701CBD6F00002089
:104040003D0000202A0000207000002072000020A7
:10405000710000202D000020350000202C000020E1
:1040600000380140002001E0411CC8B20A28FBDBF7
:10407000704710B580217348FDF761F84021714801
:10408000FDF75DF8FFF7EEFF80216E48FDF759F868
:10409000FFF7E8FF40216B48FDF753F8FFF7E2FF19
:1040A00010BD10B580216748FDF74BF840216548E9
:1040B000FDF745F8FFF7D6FF80216248FDF73FF88E
:1040C000FFF7D0FF10BD70B50446002523E014F0C3
:1040D000800F04D080215B48FDF731F803E0802198
:1040E0005848FDF72EF8FFF7BDFF40215548FDF772
:1040F00026F8FFF7B7FF40215248FDF722F8072DB9
:1041000003D180214F48FDF71AF86006040EFFF72F
:10411000A9FF681CC5B2082DD9DBFFF7A3FF70BD4E
:1041200070B50024002516E06006040E40214548C5
:10413000FDF705F8FFF796FF80214248FCF7E5FF01
:1041400008B1601CC4B240213E48FCF7FAFFFFF7FB
:1041500089FF681CC5B2082DE6DBFFF783FF204608
:1041600070BD10B580213748FCF7E9FFFFF77AFFF3
:1041700040213448FCF7E3FFFFF774FF802131480A
:10418000FCF7C3FF08B1012400E0002440212D48C2
:10419000FCF7D7FFFFF766FF204610BD10B5802162
:1041A0002848FCF7CEFFFFF75DFF40212548FCF7CC
:1041B000C6FFFFF757FF40212248FCF7C2FFFFF779
:1041C00051FF80211F48FCF7BAFFFFF74BFF10BDDE
:1041D00010B580211B48FCF7B2FFFFF743FF4021D9
:1041E0001848FCF7ACFFFFF73DFF40211548FCF7EE
:1041F000A8FFFFF737FF10BD08B501210820FDF724
:10420000A9F9C020ADF8000003208DF802001420A9
:104210008DF8030069460B48FCF7E6FEFFF741FF07
:1042200008BD70B50446FFF7E7FFFFF722FF204601
:10423000FFF749FFFFF795FF0546FFF732FF2846D6
:1042400070BD0000000C014030B52A4800684FF4F2
:104250007A72B0FBF2F1B1F1807F01D301201DE051
:1042600021F07F40401E4FF0E022506150170F2296
:10427000002807DA13071D0E1F4B00F00F04241F40
:104280001D5503E013071C0E1C4B1C5400BF0020DF
:104290004FF0E022906107201061002008B100BFBC
:1042A000FEE74FF0E020006920F001004FF0E02130
:1042B00008610846006940F00100086130BD01B5A1
:1042C0000F49009808604FF0E020006940F00100BD
:1042D0004FF0E021086100BF094800680028FBD1C9
:1042E00008BD0748006820B105480068401E044921
:1042F000086070470000002018ED00E000E400E0D6
:104300007C00002000B585B0012144F20400FDF7D7
:1043100021F94FF40070ADF8100018208DF813004B
:1043200003208DF8120004A94048FCF75DFE4FF40D
:104330008060ADF8100004208DF8130004A93B48FC
:10434000FCF752FE4FF4165000900020ADF8040028
:10435000ADF80600ADF80800ADF80C000C20ADF883
:104360000A0069463248FEF734FA012240F225512C
:104370002F48FEF7C6FA01212D48FEF7B6FA05B020
:1043800000BD10B540F225512948FEF79FFB30B122
:104390002748FEF71BFBC4B22046FFF799FD10BD6E
:1043A00070B504460D46E1B22148FEF70BFB00BF95
:1043B00040211F48FEF774FB0028F9D0204670BD4D
:1043C00010B5044600BF20211948FEF769FB0028FC
:1043D000F9D01748FEF7FAFA10BD70B504460D463D
:1043E00029462046FEF7EEFA00BF40212046FEF7A0
:1043F00057FB0028F9D070BD2DE9F04107460D4666
:104400001646002400BF0CE0295D3846FEF7DAFAB4
:1044100000BF40213846FEF743FB0028F9D0601C5E
:1044200084B2B442F0DBBDE8F08100000008014036
:104430000038014000B587B001212420FDF78AF83B
:1044400001210803FDF786F82020ADF804000320C1
:104450008DF8060018208DF8070001A9FE48FCF72A
:10446000C3FD4020ADF8040001A9FB48FCF7BCFDEA
:104470008020ADF8040001A9F748FCF7B5FD102035
:10448000ADF804008DF8070001A9F348FCF7ACFD76
:104490000020ADF808004FF48270ADF80A0000204B
:1044A000ADF80C000220ADF80E000120ADF81000B0
:1044B0004002ADF812000820ADF814000020ADF85D
:1044C00016000720ADF8180002A9E448FDF7D0F85F
:1044D0000121E248FDF771F907B000BD10B50446AF
:1044E00000BF0221DD48FDF7ECF90028F9D0214694
:1044F000DA48FDF793F900BF0121D848FDF7E1F94B
:104500000028F9D0D548FDF78BF9C0B210BD10B521
:1045100000241021D048FCF714FE0520FFF7DEFF31
:1045200000BFFF20FFF7DAFF044614F0010FF8D1B7
:104530001021C948FCF703FE10BD10B51021C64874
:10454000FCF7FFFD0620FFF7C9FF1021C248FCF76A
:10455000F6FD10BD10B50446FFF7EFFFFFF7D7FFDC
:104560001021BD48FCF7EDFD2020FFF7B7FFC4F395
:104570000740FFF7B3FFC4F30720FFF7AFFFE0B238
:10458000FFF7ACFF1021B448FCF7D9FDFFF7BFFFE0
:1045900010BD10B5FFF7D1FF1021AF48FCF7D1FDDA
:1045A000C720FFF79BFF1021AB48FCF7C8FDFFF7C2
:1045B000AEFF10BD70B505460C461646FFF7BDFFB1
:1045C0001021A548FCF7BDFD0220FFF787FFC4F3CB
:1045D0000740FFF783FFC4F30720FFF77FFFE0B238
:1045E000FFF77CFFB6F5807F01DD4FF4807603E0B6
:1045F0002878FFF773FF6D1C3000A6F101018EB221
:10460000F6D110219448FCF79AFDFFF780FF70BDAA
:104610002DE9F05F07460E4614464FF00008C146EC
:10462000C2460025AB4606F0FF0ACAF10000C5B23B
:104630002046E11704EB1161C1F30728E11704EBF1
:1046400011610912A4EB012101F0FF09BAF1000F79
:1046500020D1B8F1000F05D1224631463846FFF788
:10466000A9FF64E009E04FF4807231463846FFF755
:10467000A1FF06F5807607F580775FEA0800A8F1CC
:10468000010101F0FF08EED14A4631463846FFF7F6
:1046900091FF4CE0B8F1000F18D1A94510DDA9EB4E
:1046A000050000F0FF0B2A4631463846FFF782FF2F
:1046B0002E442F445A4631463846FFF77BFF36E0FA
:1046C000224631463846FFF775FF30E0601B84B262
:1046D0002046E11704EB1161C1F30728E11704EB51
:1046E00011610912A4EB012101F0FF092A463146AC
:1046F0003846FFF75FFF2E442F4409E04FF48072E5
:1047000031463846FFF756FF06F5807607F5807785
:104710005FEA0800A8F1010101F0FF08EED1B9F14C
:10472000000F04D04A4631463846FFF743FFBDE844
:10473000F09F70B505460C46164610214648FCF71A
:1047400000FD0320FFF7CAFEC4F30740FFF7C6FED3
:10475000C4F30720FFF7C2FEE0B2FFF7BFFE04E09C
:10476000FF20FFF7BBFE28706D1C3000A6F1010191
:104770008EB2F5D110213848FCF7E1FC70BD2DE96F
:10478000F041002400250026002710213248FCF7C4
:10479000D8FC9F20FFF7A2FEFF20FFF79FFE0546F3
:1047A000FF20FFF79BFE0646FF20FFF797FE074618
:1047B00010212948FCF7C3FC280440EA062040EAFF
:1047C00007042046BDE8F08110B5002410212248DE
:1047D000FCF7B7FCAB20FFF781FEFF20FFF77EFE62
:1047E000FF20FFF77BFEFF20FFF778FEFF20FFF79B
:1047F00075FE044610211848FCF7A1FC204610BDA8
:1048000010B5044610211448FCF79BFC0320FFF769
:1048100065FEC4F30740FFF761FEC4F30720FFF70E
:104820005DFEE0B2FFF75AFE10BD10B5FF20FFF7A6
:1048300055FE10BD10B5044600BF02210748FDF724
:1048400040F80028F9D021460448FCF7E7FF00BFF4
:104850000121024804E0000000080140003001404E
:10486000FDF72FF80028F3D05C48FCF7D9FF10BD06
:1048700010B510215A48FCF764FCB920FFF72EFE52
:1048800010215748FCF75BFC10BD10B510215448AF
:10489000FCF757FCAB20FFF721FE10215048FCF736
:1048A0004EFC10BD10B5034607E018780C78A04206
:1048B00001D0002010BD5B1C491C1000A2F10104B6
:1048C000A2B2F2D10120F5E701B502E00098401E46
:1048D000009000980028F9D108BDFFF7ABFDFFF765
:1048E00073FF40490860C820FFF7EEFFFFF747FF5E
:1048F0003D4908603B480268084601683BA002F059
:10490000CDFF39480068474988422DD146A002F0C2
:10491000C5FF4FF47040FFF71DFE4B224FF470416E
:104920004A48FFF775FE494949A002F0B7FF4B22FC
:104930004FF470414C48FFF7FCFE44494BA002F095
:10494000ADFF4B2248494148FFF7ACFF4D49087085
:1049500008460078012803D14BA002F09FFF06E033
:1049600052A002F09BFF02E059A002F097FFFFF770
:104970007FFF00BFFEE710B5FFF75CFDFFF724FFE8
:1049800018490860C820FFF79FFFFFF7F8FE164997
:10499000086008460068234988421DD14FF47040E2
:1049A000FFF7D8FD4B224FF470412848FFF730FE47
:1049B0004B224FF470412C48FFF7BBFE4B222A4993
:1049C0002248FFF76FFF2F4908700846007801283A
:1049D00000D110BD0020FCE70020FAE700300140C4
:1049E00000080140CC000020D00000200D0A204625
:1049F0006C617368494420697320307825582C20F5
:104A0000204D616E756661637475726572204465D0
:104A10007669636520494420697320307825580DF4
:104A20000A0000001740EF000D0A20BCECB2E2B50E
:104A3000BDBBAAB0EEB4AED0D0666C61736820572F
:104A4000323551363420210D0A000000800000204C
:104A50000D0A20D0B4C8EBB5C4CAFDBEDDCEAAA3F2
:104A6000BA2573200D090000640100200D0A20B64C
:104A7000C1B3F6B5C4CAFDBEDDCEAAA3BA25732064
:104A80000D0A0000D40000200D0A20384DB4AED02D
:104A9000D0666C6173682857323551363429B2E2DA
:104AA000CAD4B3C9B9A6210A0D0000000D0A2038E6
:104AB0004DB4AED0D0666C6173682857323551362C
:104AC0003429B2E2CAD4CAA7B0DC210A0D00000022
:104AD0000D0A20BBF1C8A1B2BBB5BD20573235517C
:104AE0003634204944210A0D0000000010B5A020F2
:104AF000FFF797FB08B9012010BDFFF7D2FA00209D
:104B0000FAE72DE9F04106460F461546FFF7B1FAE0
:104B1000A020FFF7D8FAFFF724FB00B125E0F8B298
:104B2000FFF7D1FAFFF71DFB00B11EE0FFF7A1FA76
:104B3000A120FFF7C8FAFFF714FB00B115E000242D
:104B40000CE0FFF7EDFA3055681EA04202D0FFF7E7
:104B500025FB01E0FFF73CFB601C84B2AC42F0DBBC
:104B6000FFF79FFA0120BDE8F081FFF79AFA0020D5
:104B7000F9E72DE9F0470746884691464646002466
:104B80002BE014B116F0070F1CD1FFF78AFA0025AD
:104B90000AE0FFF76EFAA020FFF795FAFFF7E1FAB7
:104BA00000B903E0681C85B2642DF2DB00BFB5F5E7
:104BB0007A7F00D118E0F0B2FFF785FAFFF7D1FA5B
:104BC00000B111E0385DFFF77EFAFFF7CAFA00B1D5
:104BD0000AE0701C86B2601C84B24C45D1DBFFF742
:104BE00060FA0120BDE8F087FFF75BFA0020F9E7E3
:104BF00010B5C0B0002404E0FF200DF80400601CD4
:104C000084B2FF2CF8DD4FF4807200216846FFF774
:104C1000B0FF20B936A002F041FE40B010BD39A06F
:104C200002F03CFE00BFF8E701B502E00098401E2C
:104C3000009000980028F9D108BD10B5ADF5007DB1
:104C4000FFF754FF20B934A002F028FE00BFFEE7B2
:104C5000002403E040A90C55601C84B2FF2CF9DD50
:104C60004FF48072002140A8FFF783FF28B930A0DD
:104C700002F014FE0DF5007D10BD32A002F00EFE14
:104C80003548FFF7D1FF4FF4807200216846FFF7E7
:104C900038FF18B931A002F001FEEBE734A002F0B2
:104CA000FDFD00241CE01DF8040040A9095D8842B8
:104CB00008D01DF8041035A002F0F0FD35A002F078
:104CC000EDFDD7E71DF804103BA002F0E7FD04F06E
:104CD0000F000F2802D10AA002F0E0FD601C84B290
:104CE000FF2CE0DD36A002F0D9FD00BFFEE700009A
:104CF000B2C1B3FD656570726F6DB3F6B4EDA3A17B
:104D00000D0A0000B2C1B3FD656570726F6DB3C965
:104D1000B9A6A3A10D0A0000C3BBD3D0BCECB2E27C
:104D2000B5BDB4AED0D0454550524F4D210D0A000F
:104D3000D0B4656570726F6DB3F6B4EDA3A10D0AC2
:104D400000000000D0B4656570726F6DB3C9B9A67C
:104D5000A3A10D0A00000000FFFF0F00B6C16565AA
:104D600070726F6DB3F6B4EDA3A10D0A00000000E0
:104D7000B6C1656570726F6DB3C9B9A6A3ACCAFD43
:104D8000BEDDC8E7CFC2A3BA0D0A000030782530D7
:104D900032582000B4EDCEF33A454550524F4DB64F
:104DA000C1B3F6D3EBD0B4C8EBB5C4CAFDBEDDB217
:104DB000BBD2BBD6C2000000202530325800000014
:104DC000656570726F6DB6C1D0B4B2E2CAD4B3C9B2
:104DD000B9A60D0A0000000070470EB50121084673
:104DE000FCF7C5FB4FF47A70ADF804004720ADF82E
:104DF00000000020ADF80600ADF8020069464FF053
:104E00008040FCF769FE01218807FDF787FC01223D
:104E100011469007FDF7D7F901218807FDF7B8F98A
:104E200000210120FCF7A3FB0EBD10B5012188076E
:104E3000FDF777FC28B101F0E7F801218807FDF7BD
:104E400081FC10BD10B504464FF4847101EB441091
:104E5000102101F046F800BF4FF4847101EB4410BB
:104E600001F058F80028F7D14FF4027101EB44101B
:104E7000FF2101F036F810BD2DE9F04104460D4642
:104E80001646984605F00F0001280FD005F00F00D8
:104E900002280BD005F00F00032807D005F00F0003
:104EA000042803D005F00F00052841D12046FFF764
:104EB000C9FF45EA0801082202EB441001F011F88D
:104EC00076B1310A4FF4816202EB441001F009F827
:104ED000F1B24FF4A16202EB441001F002F815E0C8
:104EE000FE480088401CFD4908800A461288110AC5
:104EF0004FF4816202EB441000F0F3FFF74A11789F
:104F00004FF4A16202EB441000F0EBFF4FF4847108
:104F100001EB4410012100F0E4FF00BF4FF4847165
:104F200001EB441000F0F6FF0028F7D1012700E064
:104F300000273846BDE8F08170B504464FF4427151
:104F400001EB441000F0E6FF132811D14FF48471F7
:104F500001EB4410022100F0C4FF00BF4FF4847144
:104F600001EB441000F0D6FF0028F7D1012500E046
:104F70000025284670BD2DE9F04105460C46164631
:104F80002078FF2808D16078FF2805D1A078FF2875
:104F900002D1E078FF2808D0207828B9607818B9C5
:104FA000A07808B9E07800B10EB900275CE00127CD
:104FB000217840F6084202EB451000F092FF61783C
:104FC00040F6085202EB451000F08BFFA17840F646
:104FD000086202EB451000F084FFE17840F60872A9
:104FE00002EB451000F07DFF310A41F2080202EBAE
:104FF000451000F076FFF1B241F2081202EB4510C5
:1050000000F06FFF4FF4847101EB4510042100F0B4
:1050100068FF00BF4FF4847101EB451000F07AFF88
:105020000028F7D117E04FF4427101EB451000F072
:1050300071FF172800D116E0284600F0E6FC10F0BA
:10504000080F08D04FF4027101EB4510082100F061
:1050500048FF002707E04FF4427101EB451000F0D4
:1050600059FF1528DFD100BF3846BDE8F08110B5E3
:1050700004464FF4847101EB4410082100F031FF25
:1050800000BF4FF4847101EB441000F043FF00288F
:10509000F7D110BD2DE9F047044688461646002595
:1050A0000027A946204600F020FCB04204DA204642
:1050B00000F01BFC074600E0374600BF204600F02A
:1050C000C1FC81464FF4427101EB441000F022FF15
:1050D0000546172D03D01C2D01D0002701E0B9454E
:1050E000ECDB00BF3A464146204600F0FFFC4FF49F
:1050F000847101EB4410202100F0F3FE00BF4FF457
:10510000847101EB441000F005FF0028F7D113E093
:105110004FF4427101EB441000F0FCFE0546172DE0
:105120000AD01C2D08D06EA002F0B8FB2046FFF775
:1051300089FE0020BDE8F0874FF4027101EB4410B6
:1051400000F0E8FE00F010001028E1D14FF40271E9
:1051500001EB4410102100F0C4FE4FF4027101EB8A
:105160004410102100F0BDFE3846E3E72DE9F04180
:1051700004460E4615460027002D15DD2A46314609
:10518000204600F0EDFC4FF4847101EB4410402107
:1051900000F0A7FE00BF4FF4847101EB441000F053
:1051A000B9FE0028F7D12F463846BDE8F0812DE939
:1051B000F0470446894616461D46089F4FF00008F2
:1051C000204600F092FBB04204DA204600F08DFB4E
:1051D000804600E0B046287828B9687818B9A878E1
:1051E00008B9E87800B117B94FF0000863E02978F2
:1051F00040F6084202EB441000F073FE697840F676
:10520000085202EB441000F06CFEA97840F60862E8
:1052100002EB441000F065FEE97840F6087202EBFC
:10522000441000F05EFE390A41F2080202EB44101D
:1052300000F057FEF9B241F2081202EB441000F000
:1052400050FE42464946204600F050FC4FF484711F
:1052500001EB4410202100F044FE00BF4FF48471A4
:1052600001EB441000F056FE0028F7D112E04FF495
:10527000027101EB441000F04DFE10F0080F09D050
:105280004FF4027101EB4410182100F02AFE0020B7
:10529000BDE8F0874FF4027101EB441000F03AFED4
:1052A00000F010001028E2D14FF4027101EB44101D
:1052B000102100F016FE4046EAE72DE9FC5F0546A6
:1052C0008A4691461E46DDF8308000270024A3461A
:1052D000B9F1000F71DD42F608010BE0D6000020A5
:1052E00053454E445F4F4B2050726F626C656D2189
:1052F000210D0A0001EB451000F00CFE044642F6B9
:10530000081101EB451000F005FE00EB042084B20B
:10531000200200EB451000F1180B082101EB4510AD
:1053200000F0F8FD00F00700022804D0032845D063
:10533000042878D178E008226946584600F02BFE10
:1053400004F1080084B29DF8000030709DF801005F
:1053500070709DF80200B0709DF80300F0709DF829
:105360000400A8F800009DF8050098F8001000EB74
:105370000120A8F800009DF806709DF8070000EBDA
:10538000072087B2200200EB451000F1180B3A46C7
:105390005146584600F0FFFDE01984B2210A42F65A
:1053A000080202EB451000F09CFDE1B242F6081243
:1053B00002EB451000F095FD6AE07AE006226946AE
:1053C000584600F0E8FDA01D84B29DF80000307042
:1053D0009DF8010070709DF80200B0709DF8030008
:1053E000F0709DF804709DF8050000EB072087B26F
:1053F000200200EB451000F1180B3A465146584682
:1054000000F0C9FDE01984B2210A42F6080202EB5D
:10541000451000F066FDE1B242F6081202EB4510BD
:1054200000F05FFD34E032E002226946584600F0A9
:10543000B2FDA01C84B29DF800709DF8010000EB45
:105440000720801E87B240F2EA50874204DD1AA08E
:1054500002F024FA00BFFEE7200200EB451000F145
:10546000180B3A465146584600F095FDE01984B2B3
:10547000210A42F6080202EB451000F032FDE1B2CB
:1054800042F6081202EB451000F02BFD00E000BFD1
:1054900000BF4FF4847101EB4510402100F021FD65
:1054A00000BF4FF4847101EB451000F033FD00287C
:1054B000F7D13846BDE8FC9F646174615F6C656E2E
:1054C000206F76657220313531340D0A00000000FE
:1054D0004FF0E021096921F004014FF0E022116151
:1054E000C21700EB5272C2F3C702EA4B1A70194698
:1054F000097801EB4102C2EBC1114FF6FF7202EADB
:10550000C101E54A1180704710B504462046FEF7F8
:10551000D6FE10BD10B5044604E04FF47A70FFF7D4
:10552000F3FF641E002CF8D110BD10B50446012015
:10553000FEF7C5FE10BD0146302905DB392903DC25
:10554000A1F13000C0B27047612905DB662903DC98
:10555000A1F15700C0B2F6E7412905DB462903DC7B
:10556000A1F13700C0B2EEE70846ECE730B50246DD
:105570000B46002405E012F8010BFFF7DCFF04FBEB
:10558000030410780028F6D1A0B230BD30B5024631
:105590000B46002405E012F8010BFFF7CCFF04FBDB
:1055A000030410780028F6D1204630BD2DE9F041E3
:1055B00004460D461646701EC7B2202231462846C4
:1055C00001F020FE00BF0A2094FBF0F100FB114027
:1055D0003030C2B23846791ECFB22A540A2094FB2A
:1055E000F0F080B2041EEEDCBDE8F0812DE9F04160
:1055F00004460F46904626460CB1207810B900208C
:10560000BDE8F0810BE03078FFF795FF0546002DEF
:1056100003DBBD4201DA761C01E00020F0E73078C0
:105620000028F0D1B9B22046FFF7A0FFC8F800006B
:105630000120E5E710B50B46002104E0445C9C42E4
:1056400000D14254491C445C002CF7D110BD0146E6
:1056500000200A06100C40EA112070470146002085
:105660000806C1F3072240EA0240C1F3074240EABC
:10567000022040EA116070472DE9F04781460E464E
:1056800017461D463146484601F0CEFD04463046D9
:1056900001F0E8FD04443946204601F0C5FD82468C
:1056A000AAEB04001FFA80F842462146284601F082
:1056B000CDFD002005F80800BDE8F0872DE9F04198
:1056C00088B006460F463146684601F0DFFD6C465D
:1056D00000251BE071A1204601F0E2FD0446207880
:1056E000302809D16078782806D11021A01CFFF756
:1056F0003DFF00F0FF0805E00A212046FFF736FFD6
:1057000000F0FF0807F8058000246D1C042DE1DB84
:1057100008B0BDE8F0811CB504462021604801F0C6
:1057200078FDE0B2C4F30721220EC4F30743CDE9AC
:1057300000105CA15A4802F0C1F859481CBD1CB5C4
:10574000044610215A4801F064FDE0B2C4F3072179
:10575000220EC4F30743CDE9001056A1544802F0CD
:105760008DF853481CBDF0B58FB006460F4601AC0E
:10577000314601A801F08AFD00252AE047A1204614
:1057800001F08EFD044614B900200FB0F0BD207862
:1057900030280AD16078782807D10EAA1021A01CE1
:1057A000FFF724FF48B90020EFE70EAA0A212046A0
:1057B000FFF71CFF08B90020E7E70E9878550E9810
:1057C000002802DB0E98FF2801DD0020DDE7002421
:1057D0006D1C042DD2DB0120D7E700B50346184627
:1057E000FFF735FF00BD00B503461846FFF736FF4B
:1057F00000BD10B504462046FFF7EFFF10BD10B501
:1058000004462046FFF7EFFF10BDF0B502460D46F7
:10581000C5F34F06002400210EE012F811304FF6B8
:10582000FF7707EA0323012707EB4107D75D1F44F2
:10583000BBB21C444F1CB9B2B142EEDB15F0010FF4
:1058400003D012F8113004EB0324A0B200EB14478C
:10585000FF43B8B2F0BDF1B500246D4600BF15E0BE
:1058600004F5A06000F056FB295D00EA010704F58D
:10587000706000F04FFB064604F5A06000F04AFBA4
:105880000640B74201D00120F8BD641C042CE7DBC0
:105890000020F9E7D8000020DA0000202E000000E8
:1058A000AF01002025642E25642E25642E2564007A
:1058B000CF010020253033642E253033642E25306F
:1058C00033642E253033640010B504462146002091
:1058D00000F007FB10BD10B58020FFF7F5FF10BDED
:1058E0000146DC4830F8110070470146DA4830F8CC
:1058F0001100704710B5044604222146900100F0C3
:1059000022FB10BD10B5044604222146900100F090
:1059100042FB10BD10B50446042221464FF4A0609E
:1059200000F011FB10BD10B50446062221464FF4CD
:10593000106000F008FB10BD10B50446042221469B
:105940004FF4706000F0FFFA10BD10B50446042259
:1059500021464FF4A06000F01EFB10BD10B50446B8
:10596000062221464FF4106000F015FB10BD10B563
:105970000446042221464FF4706000F00CFB10BD79
:1059800010B54FF4A85000F0C5FA10BD10B504468C
:10599000210A4FF4C85000F0A4FAE1B24FF4D050FD
:1059A00000F09FFA10BD10B5044621464FF4D850C0
:1059B00000F097FA10BD70B50446FFF7E1FF60EA0A
:1059C0000400C5B229464FF4A85000F08AFA70BD11
:1059D00070B504460D46290A41F2082202EB441034
:1059E00000F07FFAE9B241F2083202EB441000F015
:1059F00078FA70BD70B504460D4641F2086101EBBE
:105A00004410294600F06DFA70BD10B504464FF4FD
:105A1000027101EB441000F07DFA10BD70B5044630
:105A20000D464FF4027101EB4410294600F059FA7B
:105A300070BD10B504464FF4427101EB441000F004
:105A400069FA10BD70B504460025002600BF42F279
:105A5000080101EB441000F05DFA064642F208111D
:105A600001EB441000F056FA00EB062086B27EB13E
:105A700042F2080101EB441000F04CFA054642F2F4
:105A8000081101EB441000F045FA00EB052085B247
:105A9000B542DCD1284670BD70B50446002500260D
:105AA00000BF42F2086101EB441000F033FA0646F1
:105AB00042F2087101EB441000F02CFA00EB0620D2
:105AC00086B27EB142F2086101EB441000F022FA86
:105AD000054642F2087101EB441000F01BFA00EB9E
