:020000040800F2
:10000000782E002045010008612D0008632D0008AE
:10001000672D00086B2D00086F2D00080000000000
:10002000000000000000000000000000732D000828
:10003000752D000800000000772D0008792D0008BC
:100040005F0100085F0100085F0100085F01000810
:100050005F0100085F0100085F0100085F01000800
:100060005F0100085F010008292E00085F010008F9
:100070005F0100085F0100085F0100085F010008E0
:100080005F0100085F0100085F0100085F010008D0
:10009000332F00085F0100085F0100085F010008BE
:1000A0005F0100085F0100085F0100085F010008B0
:1000B0006B5A00085F0100085F0100085F0100083B
:1000C0005F0100085F0100085F0100085F01000890
:1000D0005F010008C34F0008793E00085F01000877
:1000E0005F0100085F0100085F0100085F01000870
:1000F0005F0100085F0100085F0100085F01000860
:100100005F0100085F0100085F0100085F0100084F
:100110005F0100085F0100085F0100085F0100083F
:100120005F0100085F0100085F0100085F0100082F
:10013000DFF80CD008F004FB004800472D2C000825
:10014000782E00200648804706480047FEE7FEE775
:10015000FEE7FEE7FEE7FEE7FEE7FEE7FEE7FEE777
:1001600045020008310100080CB500200190009004
:100170006B48006840F480306949086000BF6848F7
:10018000006800F4003000900198401C0190009835
:1001900018B90198B0F5A06FF1D16148006810F46A
:1001A000003F02D00120009001E000200090009864
:1001B000012842D15B48006840F0100059490860AE
:1001C0000846006820F0030008600846006840F018
:1001D000020008605248406851494860084640683B
:1001E00048600846406840F48060486008464068BF
:1001F00020F47C1048600846406840F4E8104860ED
:100200000846006840F08070086000BF44480068FD
:1002100010F0007FFAD04248406820F003004049C7
:1002200048600846406840F00200486000BF3C4813
:10023000406800F00C000828F9D10CBD10B5FFF79C
:1002400093FF10BD10B53648006840F001003449F6
:10025000086008464068344908403149486008460B
:100260000068324908402E4908600846006820F4BA
:10027000802008600846406820F4FE0048604FF483
:100280001F008860FFF7DAFF4FF000602849086020
:1002900010BD10B5002100200022214B5B6803F047
:1002A0000C0121B1042906D0082928D107E0214BEF
:1002B000214C236027E01F4B1F4C236023E0184B89
:1002C0005B6803F47010164B5B6803F48032022302
:1002D00003EB904022B9194B4343174C23600DE0C8
:1002E0000F4B5B6813F4003F04D0144B4343124C94
:1002F000236003E00F4B43430F4C236003E00D4B9F
:100300000D4C236000BF00BF054B5B68C3F30313B4
:100310000B4CE15C084B1B68CB40074C236010BDC5
:1003200000100240002002400000FFF8FFFFF6FE30
:1003300008ED00E000127A000000002000093D00F6
:100340000400002031490143314A1160704770B503
:10035000002100230F22C4780CB32D4C246804F430
:10036000E064C4F5E064210AC1F10403CA404478A2
:1003700004FA03F18478144021430901254C0678DE
:10038000A155047804F01F050124AC4005786D11D7
:100390004FF0E02606EB8505C5F8004109E004783A
:1003A00004F01F050124AC401B4D0678761145F87A
:1003B000264070BD194A0A400243154B1B1F1A60A4
:1003C000704739B1124A121D12680243104B1B1DAF
:1003D0001A6006E00E4A121D126882430C4B1B1D68
:1003E0001A607047042808D14FF0E021096941F0F4
:1003F00004014FF0E022116107E04FF0E0210969AC
:1004000021F004014FF0E022116170470000FA056D
:100410000CED00E000E400E080E100E080FFFF1F61
:1004200010B50446FE48844209D10121480601F076
:10043000B8F800214FF0007001F0B3F808E0012196
:10044000880601F0AEF800214FF0806001F0A9F8B5
:1004500010BD30B5024600200023146824F00204C9
:100460001460146844F00104146000E05B1C5468DC
:1004700014F0010F03D1A3F57F44FF3CF6D154687B
:1004800014F0010F01D100206CE08C79012C04D113
:10049000146844F08004146003E0146824F08004BD
:1004A0001460CC79012C04D1146844F04004146029
:1004B00003E0146824F0400414600C7A012C04D189
:1004C000146844F02004146003E0146824F020044D
:1004D00014604C7A012C04D1146844F010041460A8
:1004E00003E0146824F0100414608C7A012C04D109
:1004F000146844F00804146003E0146824F008044D
:100500001460CC7A012C04D1146844F00404146003
:1005100003E0146824F0040414608C78A407CD78F8
:1005200044EA05640D7944EA05444D7944EA0554EA
:100530000D886D1E2C43D461146824F001041460EE
:10054000002300E05B1C546814F0010F03D0A3F5F6
:100550007F44FF3CF6D1546814F0010F01D0002015
:1005600000E0012030BD10B50021837A012202FA9B
:1005700003F1AC4A126842F00102AA4B1A60A94A80
:100580001C3212688A43A74B1C331A60027BCAB91B
:10059000A44A0C3212688A43A24B0C331A60428878
:1005A000C38842EA03439F4A4032847A42F8343097
:1005B0000288838842EA03439A4A4032847A02EBF3
:1005C000C4025360027B012A19D1964A0C32126888
:1005D0000A43944B0C331A604288038842EA03436F
:1005E000904A4032847A42F83430C288838842EAA2
:1005F00003438C4A4032847A02EBC4025360C27ACD
:100600003AB9884A121D12688A43864B1B1D1A602C
:1006100006E0844A121D12680A43824B1B1D1A60B1
:10062000028932B97F4A143212688A437D4B1433EF
:100630001A600289012A06D17A4A143212680A43E2
:10064000784B14331A60427B012A06D1754A1C325A
:1006500012680A43734B1C331A60724A126822F004
:100660000102704B1A6010BD00218171C1710172CD
:1006700041728172C1728170C170032101710221C6
:1006800041710121018070476649096841F001010B
:10069000644A11601146096843F60E729143614A3B
:1006A00011601146096841EA00211160114609688C
:1006B00021F001011160704721B1026842F48032DB
:1006C000026003E0026822F4803202607047E1B108
:1006D000026842F0800202604FF4C272125842F483
:1006E00080734FF4C27213504FF4CA72125842F41E
:1006F00080734FF4CA7213504FF4D272125842F4FE
:1007000080734FF4D27213501BE0026822F0800213
:1007100002604FF4C272125822F480734FF4C27216
:1007200013504FF4CA72125822F480734FF4CA72F5
:1007300013504FF4D272125822F480734FF4D272D5
:100740001350704710B502460020936803F0806391
:10075000B3F1806F00D110E0936803F00063B3F150
:10076000006F01D1012008E0936803F08053B3F1DA
:10077000805F01D1022000E00420042879D002F536
:10078000C07303EB00131B6803F0010402F5C07390
:1007900003EB00131C600B7A7BB94B7A0C8843EA9D
:1007A000445302F5C07404EB00142468234302F59B
:1007B000C07404EB0014236010E00B7A4C6843EA29
:1007C000C4034C7A234302F5C07404EB001424687C
:1007D000234302F5C07404EB001423608B7A03F00A
:1007E0000F038B7202F5C07303EB00135B6823F0F9
:1007F0000F0402F5C07303EB00135C6002F5C073D5
:1008000003EB00135B688C7A234302F5C07404EB9E
:10081000001463608B7B1C064B7B44EA034403E0BB
:1008200000640040006600400B7B44EA0323CC7A5E
:10083000234302F5C07404EB0014A3608B7C1C06F8
:100840004B7C44EA03440B7C44EA0323CC7B2343E4
:1008500002F5C07404EB0014E36002F5C07303EB0F
:1008600000131B6843F0010402F5C07303EB00138F
:100870001C6010BD10B50246002321B1012907D02C
:1008800002290FD109E09068F84C00EA04030BE05C
:100890009068F74C00EA040306E09068F54C00EA23
:1008A000040301E0002300BF00BFF34C181BA34268
:1008B00016D007DC83B16FF0806018180ED00228C4
:1008C00018D111E0B0F5007F10D0EC4C001909D020
:1008D000B0F5003F0ED10BE002230DE000230BE04A
:1008E000002309E0002307E0012305E0012303E0E2
:1008F000012301E0002300BF00BFD8B210BD21B129
:10090000012907D002290FD109E0826842F0800254
:1009100082600AE0826842F40042826005E08268F8
:1009200042F40002826000E000BF00BF704710B5D3
:1009300000F5D87303EB01131B6803F00403137273
:10094000137A53B900F5D87303EB01131B6840F217
:10095000FF7404EA5353136009E000F5D87303EB06
:1009600001131B686FF0604404EAD303536000F581
:10097000D87303EB01131B6803F00203537200F5F5
:10098000D87303EB01135B6803F00F03937200F558
:10099000D87303EB01135B681B0AD37400F5D8739B
:1009A00003EB01139B68D37200F5D87303EB0113BB
:1009B0009B681C0A147300F5D87303EB01139B6842
:1009C0001C0C547300F5D87303EB01139B681B0ECA
:1009D000937300F5D87303EB0113DB68D37300F551
:1009E000D87303EB0113DB681C0A147400F5D87389
:1009F00003EB0113DB681C0C547400F5D87303EB94
:100A00000113DB681B0E937421B9C36843F0200304
:100A1000C36003E0036943F02003036110BD21B903
:100A2000C26842F02002C26003E0026942F0200284
:100A3000026170470246002019B9D36803F0030031
:100A400006E0012903D1136903F0030000E0002050
:100A5000704710B502460B4600204FF6FF71BBB938
:100A6000146824F0020444F00104146000E0491EFC
:100A7000546804F00304012C01D00029F7D1546814
:100A800004F00304012C01D0002032E0012030E00A
:100A9000012B13D1146824F00304146000E0491EF4
:100AA000546814F0030F01D00029F8D1546814F0F1
:100AB000030F01D000201CE001201AE0022B17D107
:100AC000146824F0010444F00204146000E0491E9C
:100AD000546804F00304022C01D00029F7D15468B3
:100AE00004F00304022C01D0002002E0012000E009
:100AF000002010BD014600200A6822F0010242F0E9
:100B000002020A604A6802F00302022A00D10120B0
:100B1000704701464FF6FF7200200B6823F0020376
:100B20000B6000E0521E4B6803F00203022B01D160
:100B3000002AF7D14B6803F00203022B00D00120FA
:100B40007047014600208A6902F070007047014634
:100B500000208A69100E7047014600208A69C2F39E
:100B6000074070471AB143690B43436102E0436990
:100B70008B434361704710B50246002011F4700F9B
:100B800008D09369C1F31304234201D001202DE062
:100B900000202BE011F0807F08D05368C1F31304CC
:100BA000234201D0012021E000201FE011F0006F5E
:100BB00008D09368C1F31304234201D0012015E04B
:100BC000002013E011F0007F08D0D368C1F31304B4
:100BD000234201D0012009E0002007E01369C1F39E
:100BE0001304234201D0012000E0002010BD0022A8
:100BF000234B994202D10023836111E0C1F3130218
:100C000011F0007F01D0C2600AE011F0806F01D0C6
:100C1000026105E011F0006F01D0826000E04260E7
:100C20007047024600200A4201D0012000E0002067
:100C3000704770B504460D4600266069284272D0A0
:100C4000B5F5807F69D01DDC082D42D006DC012D72
:100C50002DD0022D31D0042D7FD134E0102D3ED087
:100C6000202D42D0402D78D145E000000300000443
:100C70000003000800000310000100080001FFF756
:100C80007000F030B5F5004F61D009DCB5F5007F9C
:100C90004AD0B5F5806F4DD0B5F5006F5DD150E00D
:100CA000B5F5803F2DD0B5F5003F56D12FE0A068B7
:100CB0005549FFF7B6FF064651E0E0680321FFF70C
:100CC000B0FF06464BE0E0680821FFF7AAFF0646A2
:100CD00045E0E0681021FFF7A4FF06463FE02069E9
:100CE0000321FFF79EFF064639E020690821FFF740
:100CF00098FF064633E020691021FFF792FF064671
:100D00002DE060680821FFF78CFF064627E0606849
:100D10001021FFF786FF064621E0A0690121FFF7B9
:100D200080FF06461BE01BE0A0690221FFF779FF68
:100D3000064614E0A0690421FFF773FF06460EE0A3
:100D40000BE0A0697021FFF76CFF064607E06068C2
:100D50000421FFF766FF064601E0002600BF00E021
:100D60000026304670BDB1F5007F3AD00FDC202957
:100D700028D006DC01291CD004291DD0082940D127
:100D80001DE0402921D0B1F5807F3AD126E0B1F5B0
:100D9000004F31D006DCB1F5806F25D0B1F5006F82
:100DA0002FD124E0B1F5803F12D0B1F5003F28D11A
:100DB00011E0154A826025E00822C26022E010227C
:100DC000C2601FE0082202611CE01022026119E0EB
:100DD0000822426016E01022426013E004224260C2
:100DE00010E0042242600DE0042242600AE000228A
:100DF00082610422426005E0002282610422426096
:100E000000E000BF00BF704701010100002044491D
:100E10000860091D0860091D0860091D0860414837
:100E20003F4914310860704700213D498279002A0A
:100E30003AD00A46126803689A430B461A600A1DA4
:100E4000126803689A430B1D1A60027911440A68FC
:100E500003681A430A60324A0832126803689A43E8
:100E60002F4B08331A601A1D126803689A432C4BE3
:100E70000C331A604279102A0ED11A1F12680368C7
:100E80001A43274B08331A601A1D126803681A4365
:100E9000234B0C331A600DE02149427911440A6852
:100EA00003681A430A6005E0027911440A6803687E
:100EB0009A430A6070470021016001710C21417161
:100EC0000021817170471649103109680143144AA5
:100ED00010321160704701460020114A1432126826
:100EE0000A4201D0012000E0002070470C49143173
:100EF00008607047014600200022094B1B6803EA86
:100F00000102074B14331B680B4202D00AB10120C7
:100F100000E000207047024914310860704700006B
:100F200000040140FFFF0F0010B50446CA48844288
:100F300008D10121042000F027FB0021042000F04B
:100F400023FB46E0C548844208D10121082000F077
:100F50001BFB0021082000F017FB3AE0C048844248
:100F600008D10121102000F00FFB0021102000F01B
:100F70000BFB2EE0BB48844208D10121202000F069
:100F800003FB0021202000F0FFFA22E0B648844253
:100F900008D10121402000F0F7FA0021402000F0A4
:100FA000F3FA16E0B148844208D10121802000F014
:100FB000EBFA0021802000F0E7FA0AE0AC48844216
:100FC00007D10121801500F0DFFA0021A01500F003
:100FD000DBFA10BD10B50121084600F0D5FA00215A
:100FE000012000F0D1FA10BD2DE9F04102460025A4
:100FF0000026002000230024002791F803C00CF0F5
:101000000F0591F803C01CF0100F03D091F802C037
:101010004CEA050591F800C0BCF1000F31D014680E
:1010200000202BE04FF0010C0CFA00F3B1F800C0E7
:101030000CEA03069E4220D183004FF00F0C0CFAFD
:1010400003F7BC4305FA03FC4CEA040491F803C01F
:10105000BCF1280F06D14FF0010C0CFA00FCC2F8CD
:1010600014C00AE091F803C0BCF1480F05D14FF05D
:10107000010C0CFA00FCC2F810C0401C0828D1D3A7
:101080001460B1F800C0BCF1FF0F34DD54680020DB
:101090002EE000F1080C4FF0010808FA0CF3B1F84B
:1010A00000C00CEA03069E4221D183004FF00F0CD2
:1010B0000CFA03F7BC4305FA03FC4CEA040491F86C
:1010C00003C0BCF1280F05D100F1080C08FA0CF898
:1010D000C2F8148091F803C0BCF1480F07D100F1A9
:1010E000080C4FF0010808FA0CF8C2F81080401CF8
:1010F0000828CED35460BDE8F0814FF6FF7101801F
:10110000022181700421C17070470246002093685B
:101110000B4201D0012000E00020704701468868A2
:1011200080B2704702460020D3680B4201D00120F4
:1011300000E0002070470146C86880B27047016136
:101140007047416170470AB1016100E04161704739
:10115000C16070474FF480320A43826181618261CD
:1011600082698269704702460020424B18684FF638
:101170008073184040EA021008433E4B18607047E5
:101180003D49C8617047F0B50A460023002400219C
:10119000002500F00046B6F1004F02D1354EF1694E
:1011A00001E0344E7168C0F3034583B200F4401689
:1011B000B6F5401F08D121F070612E4E766826F0FA
:1011C00070662C4F7E6012E000F48016B6F5801F2A
:1011D00006D1032606FA05F4A14341F0706106E04A
:1011E000460D360103FA06F6B14341F0706122B1B3
:1011F000460D360103FA06F6314300F00046B6F11B
:10120000004F02D11B4EF16101E01A4E7160F0BD3A
:1012100030B500228B071C0F0F2303FA04F2154B85
:1012200008338C1053F824309343124C08348D103B
:1012300044F8253023468C1053F824308C07240FB3
:1012400000FA04F423430B4C08348D1044F8253085
:1012500030BD0A490860704700080140000C014099
:10126000001001400014014000180140001C014022
:10127000002001400000014000002042DC0020422C
:10128000DD48006840F00100DB490860084640681E
:10129000DA490840D849486008460068D8490840FB
:1012A000D54908600846006820F480200860084698
:1012B000406820F4FE0048604FF41F0088607047CB
:1012C000CD49096821F48031CB4A11601146096883
:1012D00021F480211160B0F5803F03D0B0F5802F5C
:1012E0000ED106E0C449096841F48031C24A116058
:1012F00007E0C149096841F4A021BF4A116000E03C
:1013000000BF00BF704710B5014600220023002037
:101310004A11012A02D1B84C236806E0022A02D100
:10132000B54C236A01E0B44C636A01F01F0201244A
:1013300094401C4201D0012000E0002010BD38B5CF
:10134000002000900024002500BF3120FFF7DBFFC4
:1013500005460098401C00900098B0F5A06F01D0A1
:10136000002DF2D03120FFF7CEFF08B1012400E0BC
:101370000024204638BD014600209F4A106820F016
:10138000F80040EAC100106070479E49086070474D
:1013900002460020984B586820F47C1042EA010372
:1013A0001843954B58607047964908667047014648
:1013B0000020914A506820F00300084350607047B5
:1013C0008D48406800F00C007047014600208A4AB2
:1013D000506820F0F000084350607047014600203C
:1013E000854A506820F4E060084350607047014629
:1013F0000020814A506820F4605040EAC1005060EB
:10140000704729B17C4A527A02437B4B5A7204E0FE
:10141000794A527A8243784B5A7270477A49086007
:10142000704701460020744A506820F44040084349
:10143000506070470021754A11706F4A82F8201081
:10144000012802D0042808D103E001216F4A11705D
:1014500004E005216D4A117000E000BF00BF704735
:101460006B49086070476449096A0143624A116226
:101470007047674944390860704730B50021002241
:10148000002400235C4D6D6805F00C0121B1042996
:1014900005D0082923D105E05E4D056022E05D4DB1
:1014A00005601FE0544D6D6805F47012524D6D6873
:1014B00005F48034022505EB92421CB9564D554384
:1014C00005600BE04C4D6D6815F4003F03D0524DA4
:1014D0005543056002E04F4D5543056002E04D4D18
:1014E000056000BF00BF444D6D6805F0F0010909BB
:1014F0004A4D6B5C0568DD4045603F4D6D6805F405
:10150000E061090A454D6B5C4568DD4085603A4DF8
:101510006D6805F46051C90A404D6B5C4568DD405B
:10152000C560354D6D6805F44041890B3C4D6B5CE1
:10153000C568B5FBF3F5056130BD29B12E4A526986
:1015400002432D4B5A6104E02B4A526982432A4BD5
:101550005A61704729B1284A92690243264B9A6121
:1015600004E0254A92698243234B9A61704729B16E
:10157000214AD2690243204BDA6104E01E4AD26953
:1015800082431D4BDA61704729B11B4AD26802437E
:10159000194BDA6004E0184AD2688243164BDA60CD
:1015A000704729B1144A12690243134B1A6104E0CF
:1015B000114A12698243104B1A617047144940392D
:1015C000086070470F49C86470470B49C87170477D
:1015D0000948406A40F080700749486270470146F8
:1015E0000020054A92680A4201D0012000E0002054
:1015F0007047014988727047001002400000FFF8F0
:10160000FFFFF6FE00004242D80042422010024096
:101610008004424200127A0000093D0014000020BC
:101620002400002010B50446BE48844208D10121A0
:101630008014FFF7A9FF0021A014FFF7A5FF16E013
:10164000B948844208D101210014FFF7AAFF002104
:101650002014FFF7A6FF0AE0B448844207D1012115
:10166000C013FFF79EFF0021E013FFF79AFF10BDA4
:1016700010B50022028802F441520B884C882343A3
:101680008C882343CC8823430C8923434C892343F0
:101690008C892343CC8923431A430280838B4FF2E6
:1016A000FF74234083830B8A038210BD2DE9F04F22
:1016B00085B005460C464FF0000902274FF00008A0
:1016C0004FF0010B0026B246A88B4FF240010840B4
:1016D000A88302202884B5F81C90A068022801D1B4
:1016E00000BF38E0A08810B94FF0010B01E04FF0C7
:1016F000020B8D48854200D100E000BF6846FFF72D
:10170000BCFEDDF800A0E088B0F5007F0AD14FEA0A
:101710001A2000EB80004000A168B0FBF1F0401DF2
:1017200086B20BE04FEA4B10BAFBF0F000EB800002
:101730004000A168B0FBF1F0401D86B20A20B6FB64
:10174000F0F606F00108A6EB0800C0F34F074FF6CD
:10175000FF7000EA0828022F01DBFF2F02DD0227BD
:101760004FF00008E08840EA080038432884A08849
:10177000A1890843618808432188084340F4006038
:1017800040EA0909A5F81C9005B0BDE8F08F0021DA
:10179000018041808180C180018141818181C1813D
:1017A0000721018270470021018041808180C18032
:1017B0000221816000218181704721B1028842F0BD
:1017C0004002028004E002884FF6BF731A40028094
:1017D000704721B1828B42F48062828304E0828B65
:1017E0004FF6FF331A408283704730B50024002340
:1017F0000C110125A540ABB21AB185881D43858027
:1018000002E085889D43858030BD1AB183880B43F3
:10181000838002E083888B43838070478181704797
:10182000014688897047A1F57E42FF3A04D00288BC
:1018300042F48072028004E002884FF6FF631A408F
:101840000280704721B1828842F00402828004E065
:1018500082884FF6FB731A408280704702884FF2ED
:10186000FF731A40028002880A4302807047018891
:1018700041F480510180704721B1028842F4005246
:10188000028004E002884DF6FF731A400280704720
:1018900002460020012901D0108B00E0908A704799
:1018A0000146088A7047B1F5804F04D1028842F49E
:1018B0008042028004E002884BF6FF731A400280E7
:1018C00070470246002013890B4201D0012000E03E
:1018D00000207047CA4302817047F0B502460020DD
:1018E00000240023002501F00F070126BE40B4B2FA
:1018F0000B1101269E40B3B2968806EA03051689AD
:10190000264202D00DB1012000E00020F0BD10B54C
:10191000002201F00F040123A3409AB2D3430381B4
:1019200010BD00000030014000380040003C004085
:1019300010B50446FE48844208D10121C014FFF7C7
:1019400023FE0021E014FFF71FFEC4E0B4F1804F36
:1019500008D101210846FFF724FE00210120FFF7EE
:1019600020FEB8E0F348844208D101210220FFF7AD
:1019700018FE00210220FFF714FEACE0EE4884427E
:1019800008D101210420FFF70CFE00210420FFF7FD
:1019900008FEA0E0E948844208D101210820FFF7B1
:1019A00000FE00210820FFF7FCFD94E0E44884429B
:1019B00008D101211020FFF7F4FD00211020FFF7CE
:1019C000F0FD88E0DF48844208D101212020FFF7A4
:1019D000E8FD00212020FFF7E4FD7CE0DA488442A6
:1019E00008D101214014FFF7CFFD00216014FFF75B
:1019F000CBFD70E0D548844209D10121C804FFF72E
:101A0000C3FD00214FF40020FFF7BEFD63E0D04886
:101A1000844209D101210805FFF7B6FD00214FF4EA
:101A20008010FFF7B1FD56E0CA48844209D1012178
:101A30004805FFF7A9FD00214FF40010FFF7A4FDB2
:101A400049E0C548844208D101214020FFF7A9FDA3
:101A500000214020FFF7A5FD3DE0C048844208D1A9
:101A600001218020FFF79DFD00218020FFF799FDD7
:101A700031E0BB48844208D101218015FFF791FD78
:101A80000021A015FFF78DFD25E0B648844209D15D
:101A900001210804FFF778FD00214FF48030FFF7A3
:101AA00073FD18E0B048844209D101214804FFF7D2
:101AB0006BFD00214FF40030FFF766FD0BE0AB48F3
:101AC000844208D101218804FFF75EFD00214FF414
:101AD0008020FFF759FD10BD00220288944B9842E8
:101AE0000ED0994B98420BD0B0F1804F08D0914B5B
:101AF000984205D0904B984202D0904B984204D126
:101B00004FF68F731A404B881A438D4B984207D07B
:101B10008C4B984204D04FF6FF431A40CB881A43AF
:101B200002808B8883850B880385814B98420BD07C
:101B3000854B984208D08B4B984205D08A4B9842EF
:101B400002D08A4B984201D10B7A0386012383820B
:101B5000704770B5002400220023058C4FF6FE76F6
:101B600035400584028C8388048B4FF68F752C409A
:101B7000B51E2C400D882C43751E2A400D892A4322
:101B80004D882A436A4DA8420BD06F4DA84208D019
:101B9000744DA84205D0744DA84202D0734DA8429E
:101BA00013D14FF6F7752A404D892A434FF6FB753E
:101BB0002A408D882A434FF6FF652B404FF6FF558C
:101BC0002B408D892B43CD892B4383800483CD8883
:101BD0008586028470BD70B5002400220023058C28
:101BE0004FF6EF7635400584028C8388048B48F6E7
:101BF000FF752C404FF6FF452C400D884FF6FF76C1
:101C000006EA05252C434FF6DF752A400D8906EAC2
:101C100005152A434D8806EA05152A43444DA84276
:101C200002D0494DA8421DD14FF67F752A404D89FB
:101C30004FF6FF7606EA05152A434FF6BF752A4090
:101C40008D8806EA05152A434FF6FF352B404FF2E3
:101C5000FF752B408D8906EA85052B43CD8906EA61
:101C600085052B4383800483CD880587028470BD5E
:101C700070B5002400220023058C4FF6FF66354026
:101C80000584028C8388848B4FF68F752C404FF629
:101C9000FC752C400D882C434FF6FF552A400D89CA
:101CA0004FF6FF7606EA05252A434D8806EA052504
:101CB0002A431F4DA84202D0234DA8421DD14FF206
:101CC000FF752A404D894FF6FF7606EA05252A431F
:101CD0004FF6FF352A408D8806EA05252A434EF641
:101CE000FF752B404DF6FF752B408D8906EA0515D3
:101CF0002B43CD8906EA05152B4383808483CD8849
:101D00008587028470BD70B5002200230024058CF5
:101D10004EF6FF7635400584038C8488828B48F626
:101D2000FF752A404FF6FF452A400D8820E000004D
:101D3000002C01400004004000080040000C00405E
:101D4000001000400014004000340140004C0140ED
:101D5000005001400054014000180040001C0040A9
:101D60000020004000400140004401400048014084
:101D70004FF6FF7606EA05252A434DF6FF752B4000
:101D80000D8906EA05352B434D8806EA05352B43B8
:101D9000FA4DA84202D0FA4DA84208D14BF6FF7581
:101DA0002C408D894FF6FF7606EA85152C438480FA
:101DB0008283CD88A0F84050038470BD828B4FF29F
:101DC000FF331A408283828B4FF6FF7303EA0123AD
:101DD0001A4382837047F0B50C4615460022002155
:101DE0000026078C4EF6FF7C07EA0C070784828BDF
:101DF000018C4FF6FF7707EA043640F6FF473A407A
:101E00004FF6FF7707EA05273A434FF6FF7707EAD1
:101E100003373A43D94FB8420ED0D94FB8420BD00E
:101E2000B0F1804F08D0D74FB84205D0D64FB84256
:101E300002D0D64FB84206D14DF6FF77394046F46E
:101E40008057394305E047F6FF57394044F480573F
:101E5000394382830184F0BD828B4FF6F3731A40BD
:101E60008283828B0A4382837047F0B50C46154605
:101E7000002200210026078C4FF6FF6C07EA0C07B2
:101E80000784828B018C4FF6FF7707EA04264FF612
:101E90000C773A404FF6FF7707EA03172F433A4390
:101EA000B64FB8420ED0B64FB8420BD0B0F1804F0B
:101EB00008D0B44FB84205D0B34FB84202D0B34FA8
:101EC000B84206D14FF6FF57394046F48077394380
:101ED00005E04FF2FF57394044F48077394382835D
:101EE0000184F0BD028B4FF2FF331A400283028B54
:101EF0004FF6FF7303EA01231A4302837047F0B5DC
:101F00000C461546002200210026078C4FF6EF7C78
:101F100007EA0C070784028B018C4FF6FF7707EA6C
:101F2000041640F6FF473A404FF6FF7707EA0337BB
:101F30003A434FF6FF7707EA05273A438F4FB842F7
:101F40000ED08F4FB8420BD0B0F1804F08D08D4FDC
:101F5000B84205D08C4FB84202D08C4FB84206D15F
:101F60004FF6DF77394046F01007394305E04FF66A
:101F70005F77394044F01007394302830184F0BD94
:101F8000028B4FF6F3731A400283028B0A430283DB
:101F90007047F0B50C46154600220021068C4FF61E
:101FA000FE773E400684028B018C4FF60C76324061
:101FB0007E1C06EA03162E433243704EB0420ED00A
:101FC0006F4EB0420BD0B0F1804F08D06D4EB04292
:101FD00005D06D4EB04202D06C4EB04206D14FF6E5
:101FE000FD76314044F00106314305E04FF6F576C9
:101FF000314044F00106314302830184F0BD70B5E5
:1020000005460C465D4885420ED05D4885420BD0A2
:10201000B5F1804F08D05B48854205D05A488542CB
:1020200002D05A48854200D100E000BF208850B954
:102030002389A28861882846FFF7ABFFE1882846FC
:10204000FFF79EFF25E0208804280AD12389A28873
:1020500061882846FFF753FFE1882846FFF742FFD3
:1020600017E0208808280AD12389A2886188284699
:10207000FFF7FBFEE1882846FFF7EEFE09E0238923
:10208000A28861882846FFF7A6FEE1882846FFF768
:1020900095FE70BD2DE9F04105460C46002601274E
:1020A000608808B9022600E00026A088012801D136
:1020B000022700E001272088A0B92389A28861882F
:1020C0002846FFF766FFE1882846FFF759FF238976
:1020D0003A4631462846FFF712FFE1882846FFF7C7
:1020E00001FF13E02389A28861882846FFF707FFD4
:1020F000E1882846FFF7F6FE23893A46314628460E
:10210000FFF747FFE1882846FFF73AFFBDE8F08177
:102110000A884B881A438B881A43CB881A430B8949
:102120001A434B891A438B891A43A0F844207047FD
:102130004FF6FF71818000210180C18041800172D2
:1021400070470021018041808180C18001814181EF
:102150008181C181704700210180418001218180FE
:102160000021C18001817047002101804180818070
:10217000C18001814181818170470000002C0140B4
:10218000003401400004004000080040000C004002
:1021900021B1028842F00102028004E002884FF679
:1021A000FE731A400280704731B1B0F8442042F407
:1021B0000042A0F8442005E0B0F84420C2F30E022B
:1021C000A0F8442070471AB183890B43838102E051
:1021D00083898B43838170478182704741EA020380
:1021E000A0F8483070471AB183890B43838102E01D
:1021F00083898B438381704701894FF6F8721140C0
:10220000018170470A46002101894FF68F731940FA
:1022100011430181704730B504460D4629462046DA
:10222000FFF7F0FF208940F00700208130BD2DE945
:10223000F04104460D4616461F46602D06D13B462A
:10224000012231462046FFF75AFE05E03B460122B7
:1022500031462046FFF79DFE29462046FFF7D2FF74
:10226000208940F007002081BDE8F08130B50C46A0
:1022700000210189C9B24FF6FF7505EA0325154310
:1022800025432943018130BD2DE9F04105460E4625
:1022900017469846002443463A4631462846FFF7FB
:1022A000E5FF2C894FF6F870044044F007044FF620
:1022B0008F70044044F070042C81BDE8F081F0B5CB
:1022C00004460D4616461F463B46324629462046E2
:1022D000FFF7CCFF208940F480402081F0BD0185CC
:1022E000828270470A46002101884FF68F73194099
:1022F000114301807047F0B50C4615461E4600217B
:10230000002200230189028B038C4FF6F8773940B5
:1023100021434FF6FC473A4040F201173A434FF64B
:10232000DD773B404FF6FF7707EA06172F433B4325
:10233000018102830384F0BD0A460021018B4FF620
:102340008F7319401143018370470A460021018BA6
:1023500048F6FF7319404FF6FF7303EA022319434F
:10236000018370470A460021818B4FF68F73194015
:102370001143818370470A460021818B48F6FF7321
:1023800019404FF6FF7303EA022319438183704714
:1023900021B1028842F08002028004E002884FF6F8
:1023A0007F731A400280704721B1828842F0040294
:1023B000828004E082884FF6FB731A408280704767
:1023C00021B1828842F00802828004E082884FF6C0
:1023D000F7731A408280704721B1828842F001026F
:1023E000828004E082884FF6FE731A408280704734
:1023F0000A460021018B4FF6F77319401143018300
:1024000070470A460021018B4FF2FF7319404FF6C7
:10241000FF7303EA02231943018370470A46002130
:10242000818B4FF6F77319401143818370470A4639
:102430000021818B4FF2FF7319404FF6FF7303EABF
:1024400002231943818370470A460021018B4FF60E
:10245000FB7319401143018370470A460021018B29
:102460004FF6FF3319404FF6FF7303EA0223194377
:10247000018370470A460021818B4FF6FB73194098
:102480001143818370470A460021818B4FF6FF3349
:1024900019404FF6FF7303EA022319438183704703
:1024A0000A460021018B4FF67F73194011430183C7
:1024B00070470A460021018BC1F30E014FF6FF73EE
:1024C00003EA02231943018370470A460021818BE6
:1024D0004FF67F7319401143818370470A460021EC
:1024E000818BC1F30E014FF6FF7303EA02231943F8
:1024F000818370470A460021018C4FF6FD73194015
:102500001143018470470A460021018C4FF6F7738E
:1025100019401143018470470A460021018C4FF68F
:10252000DF7319404FF6FF7303EA02131943018466
:1025300070470A460021018C4FF67F7319404FF611
:10254000FF7303EA02131943018470470A4600210E
:10255000018C4FF6FF5319404FF6FF7303EA022335
:102560001943018470470A460021018C4FF2FF7322
:1025700019404FF6FF7303EA0223194301847047A1
:102580000A460021018C4DF6FF7319404FF6FF7388
:1025900003EA023319430184704730B50023012454
:1025A0008C40A3B2048C9C430484048C02FA01F591
:1025B000ADB22C43048430BD30B5002304248C40DC
:1025C000A3B2048C9C430484048C02FA01F5ADB2DE
:1025D0002C43048430BD70B5034600200024184607
:1025E000183001258D40ACB21D8CA5431D8409B166
:1025F000082909D100EB6100056825F07005056028
:102600000568154305600EE00D1FC5F34E0528440F
:10261000056825F4E045056005684FF6FF7606EA93
:1026200002263543056070BD21B1028842F00202E6
:10263000028004E002884FF6FD731A400280704762
:1026400021B1028842F00402028004E002884FF6C1
:10265000FB731A400280704721B1828842F08002E9
:10266000828004E082884FF67F731A408280704730
:1026700002884FF6F7731A40028002880A430280EC
:10268000704782884FF68F731A40828082880A438F
:102690008280704702894FF6F8731A4002810289DE
:1026A0000A430281704702894FF67F731A40028104
:1026B00002890A430281704781847047818570478F
:1026C000818670470187704781877047A0F8401066
:1026D000704702884FF6FF431A40028002880A437F
:1026E000028070470146888E70470146088F704708
:1026F0000146888F70470146B1F840007047014697
:10270000888C70470146088D704702460020138A66
:102710000B4201D0012000E000207047CA43028232
:10272000704730B50246002000230024158A05EAD0
:102730000103958905EA010413B10CB1012000E001
:10274000002030BDCA4302827047000010B5044625
:10275000FB48844209D101218803FEF715FF0021BF
:102760004FF48040FEF710FF32E0F648844209D172
:1027700001214804FEF715FF00214FF40030FEF759
:1027800010FF25E0F048844209D101218804FEF7BA
:1027900008FF00214FF48020FEF703FF18E0EB480C
:1027A000844209D10121C804FEF7FBFE00214FF449
:1027B0000020FEF7F6FE0BE0E548844208D1012137
:1027C0000805FEF7EEFE00214FF48010FEF7E9FE4B
:1027D00010BD2DE9F04786B005460E460024A246FE
:1027E00000BFA1460027B08900B100BF2F462C8A48
:1027F0004CF6FF700440F08804432C82AC894EF6FE
:10280000F3100440B08831890843718908430443B8
:10281000AC81AC8A4FF6FF400440B0890443AC82DF
:1028200001A8FEF72AFEC648874202D1DDF810A0B3
:1028300001E0DDF80CA0A88910F4004F08D00AEBE5
:10284000CA0000EB0A1031684900B0FBF1F807E05C
:102850000AEBCA0000EB0A1031688900B0FBF1F8FE
:102860006420B8FBF0F004012009642101FB108909
:10287000A88910F4004F08D0322000EBC900B0FB4B
:10288000F1F000F00700044308E0322000EB0910EB
:102890006421B0FBF1F000F00F0004432C8106B07E
:1028A000BDE8F0874FF41651016000218180C1809E
:1028B00001810C21418100218181704710B50246C0
:1028C0000020108A4FF2FF0318400B884C882343E6
:1028D0008C882343CC8823431843108210BD0021E9
:1028E000018041808180C180704721B1828942F49A
:1028F0000052828104E082894DF6FF731A40828182
:102900007047F0B503460024002600250020A1F5FD
:1029100010676A3F00D100BF1846C1F3421401F0AE
:102920001F06012707FA06F5012C01D10C3004E03F
:10293000022C01D1103000E014301AB107682F4387
:10294000076002E00768AF430760F0BD1AB1838AF1
:102950000B43838202E0838A8B4383827047028A1F
:102960004FF6F0731A400282028A0A4302827047CD
:1029700082894FF2FF731A40828182890A438281E1
:10298000704721B1828942F00202828104E082898B
:102990004FF6FD731A4082817047028A4FF6DF734B
:1029A0001A400282028A0A430282704721B1028AD7
:1029B00042F48042028204E0028A4BF6FF731A401E
:1029C00002827047C1F308028280704701468888FE
:1029D000C0F308007047818941F00101818170478F
:1029E000028BD2B20283028B42EA01220283704739
:1029F000028B02F47F420283028B0A4302837047F8
:102A000021B1828A42F02002828204E0828A4FF65B
:102A1000DF731A408282704721B1828A42F010022D
:102A2000828204E0828A4FF6EF731A4082827047F6
:102A300021B1828A42F00802828204E0828A4FF643
:102A4000F7731A408282704721B1828942F40042B2
:102A5000828103E08289C2F30E028281704721B134
:102A6000828A42F40062828204E0828A4FF2FF731B
:102A70001A4082827047828A4FF6FB731A40828224
:102A8000828A0A438282704721B1828A42F002021E
:102A9000828204E0828A4FF6FD731A408282704778
:102AA00002460020B1F5007F00D100BF13880B4221
:102AB00001D0012000E00020704701F40072B2F55F
:102AC000007F00D100BFCA430280704770B5024644
:102AD0000024002300250020A1F510666A3E00D1E5
:102AE00000BFC1F3421501F01F03012606FA03F3EC
:102AF000012D02D19689334006E0022D02D1168ABB
:102B0000334001E0968A33400C12012606FA04F4A1
:102B10001688344013B10CB1012000E0002070BDD4
:102B200010B500220023A1F510646A3C00D100BF5B
:102B30000A1201249440A3B2DC43048010BD0000BB
:102B4000003801400044004000480040004C004074
:102B50000050004008B501211020FEF7FBFC0F20BB
:102B6000ADF8000003208DF8020048208DF8030026
:102B700069466E48FEF738FA6C48FEF7CFFA00F067
:102B80000F006B49097808446949087008BD08B509
:102B90004FF4A060FDF7D6FB14208DF80000002054
:102BA0008DF801008DF8020001208DF803006846C1
:102BB000FDF7CDFB25208DF8000000208DF80100E9
:102BC00001208DF802008DF803006846FDF7BFFB79
:102BD00026208DF8000000208DF8010002208DF8DD
:102BE000020001208DF803006846FDF7B0FB0A20C3
:102BF0008DF8000000208DF8010003208DF8020000
:102C000001208DF803006846FDF7A1FB1C208DF81C
:102C1000000001208DF8010000208DF80200012045
:102C20008DF803006846FDF792FB08BD1FB5002430
:102C3000FFF7ADFF02F02CF9FFF78CFF0921684682
:102C400001F0C6FF03F04EF802F07CF900F006F93F
:102C500000F03BFA00F022FB35480078C12815D17E
:102C600000F076FB41F2883002F048F901F08FF86D
:102C700001F08DF800BF05E00021204600F0B6FC11
:102C8000601CC4B2092CF7DB00F032FD002029499A
:102C9000086029A005F034FE00202A4908702A495E
:102CA0000870FF21084603F0CBF8FF21084603F027
:102CB000C7F839E000F01EFB2448007828B11C4812
:102CC0000078C12801D105F0C7F91F48007810B974
:102CD0001C48007808B101F0C9FD1D48007810B10A
:102CE00000201B4908701B48007850B1002019498A
:102CF00008700F480078C12801D101F0C6FD01F02D
:102D00008FFC1548007878B1012014490870002024
:102D10001149087006480078C12805D100F058FB19
:102D200000F012FE00F035FDC4E700000010014085
:102D30002A000020740000205354415254210D0AEF
:102D4000000000004C0000204D0000202B0100205E
:102D50002800002079000020290000202B000020FE
:102D6000704700BFFEE700BFFEE700BFFEE700BF01
:102D7000FEE770477047704710B502F0D1F832484F
:102D80000068401C30490860084600680A21B0FB12
:102D9000F1F201FB1200052806D22C48007840F021
:102DA00002002A49087005E02848007800F0FD007C
:102DB00026490870244800686421B0FBF1F201FB49
:102DC0001200322806D22148007840F004001F4942
:102DD000087005E01D48007800F0FB001B490870F2
:102DE000194800684FF47A71B0FBF1F201FB120050
:102DF000B0F5FA7F06D21548007840F00800134974
:102E0000087005E01148007800F0F7000F490870DD
:102E10000D4800686421B0FBF1F201FB120010B90B
:102E200001200B49087010BD10B51020FEF762F8A4
:102E300040B1084800F0B9F9012007490870102096
:102E4000FEF769F810BD0000740000207800002033
:102E500079000020500000202900002000B589B032
:102E600001210420FEF776FB01214806FEF77FFBD7
:102E70004FF40060ADF8040003208DF80600042034
:102E80008DF8070001A94A48FEF7AEF84FF48050CC
:102E9000ADF8040018208DF8070001A94448FEF79A
:102EA000A3F84448FDF7BCFA06A8FDF7DDFB0020B7
:102EB0008DF81E0001208DF81F0000208DF82000E5
:102EC0008DF821008DF8220001208DF823000020CC
:102ED0008DF81A008DF81B0002208DF81C000120CF
:102EE0008DF81D000620ADF8180006A93148FDF741
:102EF000B0FA00208DF812008DF8130001208DF833
:102F000014000020ADF80800ADF80A00ADF80C0080
:102F1000ADF80E00ADF8100001208DF8150001226B
:102F200002212448FDF71EFE02A8FDF71CFB09B094
:102F300000BD00B585B06A4600211E48FDF7F7FCCC
:102F4000684601F055FA01201B4908700221194812
:102F5000FDF709FF05B000BD30B585B004460D464C
:102F6000009500208DF809008DF8080008208DF8E4
:102F70000A0020788DF80B0061788DF80C10A1788C
:102F80008DF80D10E1788DF80E1021798DF80F1065
:102F900061798DF81010A1798DF81110E1798DF813
:102FA000121069460348FDF7CDFB05B030BD0000A7
:102FB0000008014000640040280000200EB50121F7
:102FC0000920FEF7C7FA1020ADF8080048208DF858
:102FD0000B0002A9A148FEF707F804210120FEF723
:102FE00017F91020009000208DF804000C208DF8B7
:102FF000050001208DF806006846FDF715FF0EBD9F
:1030000010B5D02001F031FF10BD2DE9F047064684
:103010000F469046B94600242BE0ECB901F065FE5E
:1030200000250AE001F049FED02001F070FE01F019
:10303000BCFE00B903E0681C85B2642DF2DB00BF62
:10304000B5F57A7F00D11BE009F0FF0001F05FFECB
:1030500001F0ABFE00B113E0305D01F058FE01F06D
:10306000A4FE00B10CE009F101001FFA80F9601C18
:1030700084B24445D1DB01F038FE0120BDE8F08781
:1030800001F033FE0020F9E71CB5002001908020FC
:1030900000900120019001220E2101A8FFF7B5FF49
:1030A000012207216846FFF7B0FF01220821684688
:1030B000FFF7ABFF012209216846FFF7A6FF0122B7
:1030C0000A216846FFF7A1FF1CBD10B5FFF798FF66
:1030D000FFF774FFFFF7D8FF10BD7CB50446002052
:1030E00000900190002520788DF8000060788DF820
:1030F0000100A0788DF80200E0788DF803002079B7
:103100008DF8040060798DF80500A0798DF806002F
:103110000FE0681CC5B2072200216846FFF775FF63
:10312000012803D14EA005F0EBFB04E04FA005F011
:10313000E7FB052DEDDB00BF7CBD2DE9F041064628
:103140000F46154601F0B9FDD02001F0E0FD01F079
:103150002CFE00B125E0F8B201F0D9FD01F025FE0A
:1031600000B11EE001F0A9FDD12001F0D0FD01F079
:103170001CFE00B115E000240CE001F0F5FD305517
:10318000681EA04202D001F02DFE01E001F044FED5
:10319000601C84B2AC42F0DB01F0A7FD0120BDE869
:1031A000F08101F0A2FD0020F9E71CB504460020E3
:1031B00000900190072200216846FFF7BEFF01281A
:1031C00014D19DF8000020709DF8010060709DF8FA
:1031D0000200A0709DF80300E0709DF804002071CB
:1031E0009DF8050060719DF80600A0711CBD38B502
:1031F0000446012221466846FFF79FFF9DF8000024
:1032000038BD13B504460122214601A8FFF7FDFE93
:10321000012800D11CBD0020FCE710B586B01421A8
:1032200001A805F028F800241322002101A8FFF7C7
:1032300084FF01280CD100BF07E001A8025D2146F0
:103240000EA005F05DFB601CC4B2132CF5DB02E0A0
:103250000EA005F055FB06B010BD0000000C0140AB
:103260005772697465204F4B0D0A000057726974DC
:1032700065204661696C6564210D0A0052656730FE
:103280007825783A307825780D0A00005265616417
:10329000206661696C6564210D0A000008B5012192
:1032A0001820FEF757F94FF40060ADF80000032036
:1032B0008DF8020010208DF8030069462048FDF7C4
:1032C00093FE4FF40060ADF8000003208DF802007B
:1032D00010208DF8030069461A48FDF785FE4FF46B
:1032E00000611748FDF72DFF4FF400611548FDF709
:1032F00028FF08BD10B51448007880B11348007845
:1033000010F0040F05D04FF400610D48FDF717FFD2
:1033100015E04FF400610A48FDF713FF0FE00B487A
:10332000007810F0080F05D04FF400610448FDF755
:1033300006FF04E04FF400610148FDF702FF10BDF5
:10334000000C0140001001404D00002078000020DA
:1033500000B585B001210420FEF7FCF801214804E6
:10336000FEF705F90420ADF8100018208DF81300C1
:1033700003208DF8120004A9FE48FDF735FE082051
:10338000ADF8100004208DF8130004A9F948FDF7EA
:103390002BFE4FF4E13000900020ADF80400ADF8B2
:1033A0000600ADF80800ADF80C000C20ADF80A00DE
:1033B0006946F148FFF70DFA012240F22551EE4827
:1033C000FFF79FFA0121EC48FFF78FFA05B000BD27
:1033D00010B588B000241C2101A804F04CFF002087
:1033E0000090A5222146641C01A842545A2221467D
:1033F000641C425400222146641C4254822221460D
:10340000641C42549DF801202146641C42549DF8DE
:1034100000202146641C425432222146641C42543E
:1034200030222046611CCCB201A90A543122214627
:10343000601CC4B201A8425437222046611CCCB2A1
:1034400001A90A542D222046611CCCB201A90A54BC
:10345000CA484079302101EB10122046611CCCB2E1
:1034600001A90A54C548407900F00F0030302146C8
:10347000621CD4B201AA50542D222046611CCCB249
:1034800001A90A54BD480079302101EB10122046F1
:10349000611CCCB201A90A54B848007900F00F00B1
:1034A00030302146621CD4B201AA5054202220465A
:1034B000611CCCB201A90A54B0488078302101EBDC
:1034C00010122046611CCCB201A90A54AB48807886
:1034D00000F00F0030302146621CD4B201AA5054D3
:1034E0003A222046611CCCB201A90A54A348407874
:1034F000302101EB10122046611CCCB201A90A5404
:103500009E48407800F00F0030302146621CD4B253
:1035100001AA50543A222046611CCCB201A90A5497
:1035200096480078302101EB10122046611CCCB285
:1035300001A90A549148007800F00F00303021466C
:10354000621CD4B201AA5054E01EC0B28DF806002D
:10355000601CC4B2224601A9874801F06DFD08B085
:1035600010BD70B588B005460E4600241C2101A888
:1035700004F081FE0095A5222146641C01A8425456
:103580005A222146641C425400222146641C4254A3
:1035900082222146641C42549DF801202146641C6D
:1035A00042549DF800202146641C425400222146CA
:1035B000641C4254012E06D101222046611CCCB26B
:1035C00001A90A5405E002222046611CCCB201A9DF
:1035D0000A54E01EC0B28DF80600601CC4B2224638
:1035E00001A9654801F028FD08B070BDF0B589B0AB
:1035F00005460E4600241C2102A804F03CFE0020D3
:1036000001900027032D03DA4FF4107001900AE0B7
:10361000062D03DA40F24220019004E0092D02DA7F
:103620004FF411700190092D18D2DFE805F005075D
:10363000090B0D0F11131500002711E001270FE0F2
:1036400002270DE000270BE0012709E0022707E031
:10365000002705E0012703E0022701E0032700BF60
:1036600000BFA5222146601CC4B202A842545A22BF
:103670002046611CCCB202A90A5400222046611CDB
:10368000CCB202A90A5482222046611CCCB202A903
:103690000A549DF805202046611CCCB202A90A54A8
:1036A0009DF804202046611CCCB202A90A540022D5
:1036B0002046611CCCB202A90A54012E05D1204635
:1036C000611CCCB202A90F5405E003222046611C04
:1036D000CCB202A90A54E01EC0B28DF80A00601CE8
:1036E000C4B2224602A9244801F0A6FC09B0F0BDEC
:1036F00010B594B000245021684604F0BCFDA5220A
:103700002146641C0DF801205A222146641C0DF844
:10371000012000222146641C0DF80120822221464E
:10372000641C0DF80120164842782146641C0DF8EF
:10373000012002782146641C0DF801200020114967
:1037400008700AE000222046611CCCB20DF800206F
:103750000C480078401C0B4908700A4800784B2838
:10376000F0DBE01EC0B28DF80200601CC4B222463D
:10377000694609E000080140004400405000002074
:103780007C0000207A000020FE4801F055FC14B0B7
:1037900010BD30B58DB0002400253421684604F0FA
:1037A0006AFDA5222146641C0DF801205A222146FB
:1037B000641C0DF8012000222146641C0DF8012034
:1037C00082222146641C0DF80120EF4842782146F0
:1037D000641C0DF8012002782146641C0DF80120BC
:1037E000EA480078EA49087023E0EA48E84909789D
:1037F000405C012818D1E749E54A12788854E4482A
:103800000078E249087044222046611CCCB20DF8D1
:103810000020DF4800783130C2B22146601CC4B2BB
:103820000DF80120012508E0D9480078401CD8494E
:103830000870D74800780928D7DB00BF0DB90DB054
:1038400030BD20222046611CCCB20DF80020D248A9
:103850004079302101EB10122046611CCCB20DF8EA
:103860000020CD48407900F00F0030302146621C26
:10387000D4B20DF80100C8480079302101EB1012D4
:103880002046611CCCB20DF80020C348007900F03E
:103890000F0030302146621CD4B20DF80100BE4842
:1038A0008078302101EB10122046611CCCB20DF85B
:1038B0000020B948807800F00F0030302146621CAB
:1038C000D4B20DF80100B4484078302101EB101259
:1038D0002046611CCCB20DF80020AF48407800F0C3
:1038E0000F0030302146621CD4B20DF801000D22C9
:1038F0002046611CCCB20DF800200A222046611C33
:10390000CCB20DF80020A048008820449E490880D1
:10391000084600884B2801DB182008809B48007867
:10392000092804DB00209A49087098490870E01EB5
:10393000C0B28DF80200601CC4B2224669469148AC
:1039400001F07AFB00BF7AE770B500244FF40475EC
:1039500000BF1DE08F48015D2846FFF702FE681C8E
:1039600085B2681C85B2A5F50070163801D14FF4F8
:103970000875A5F50070263801D14FF40C758548FF
:10398000005D18B101212046FFF730FE601CC4B273
:10399000092CDFDB70BD10B588B000241C2101A804
:1039A00004F069FC4FF480700090A5222146641C4D
:1039B00001A842545A222146641C42540022214646
:1039C000641C425482222146641C42549DF801200A
:1039D0002146641C42549DF800202146641C425438
:1039E0006E480078642190FBF1F00A2190FBF1F21F
:1039F00001FB12003030C2B22146641C01A84254BF
:103A0000664800780A2190FBF1F090FBF1F201FB8F
:103A100012003030C2B22046611CCCB201A90A5457
:103A20005E4800780A2190FBF1F201FB1200303071
:103A3000C2B22046611CCCB201A90A542E222046F3
:103A4000611CCCB201A90A5454484078642190FB0F
:103A5000F1F00A2190FBF1F201FB12003030C2B20A
:103A60002046611CCCB201A90A544C4840780A2176
:103A700090FBF1F090FBF1F201FB12003030C2B28A
:103A80002046611CCCB201A90A54444840780A215E
:103A900090FBF1F201FB12003030C2B22046611CF3
:103AA000CCB201A90A542E222046611CCCB201A935
:103AB0000A543A488078642190FBF1F00A2190FB87
:103AC000F1F201FB12003030C2B22046611CCCB2D0
:103AD00001A90A54314880780A2190FBF1F090FB4B
:103AE000F1F201FB12003030C2B22046611CCCB2B0
:103AF00001A90A54294880780A2190FBF1F201FBC0
:103B000012003030C2B22046611CCCB201A90A5466
:103B10002E222046611CCCB201A90A541F48C0784D
:103B2000642190FBF1F00A2190FBF1F201FB1200FD
:103B30003030C2B22046611CCCB201A90A541748E9
:103B4000C0780A2190FBF1F090FBF1F201FB12002A
:103B50003030C2B22046611CCCB201A90A540F48D1
:103B6000C0780A2190FBF1F201FB12003030C2B2A2
:103B70002046611CCCB201A90A54E01EC0B28DF8E7
:103B800006000DE000440040800000207F0000207F
:103B90007E0000208C010020500000201201002037
:103BA000601CC4B22246BA4801F046FA08B010BD03
:103BB00010B588B000241C2101A804F05CFB4FF470
:103BC00088700090A5222146641C01A842545A2204
:103BD0002146641C425400222146641C4254822225
:103BE0002146641C42549DF801202146641C425425
:103BF0009DF800202146641C4254A64800884FF4DA
:103C00007A7190FBF1F00A2190FBF1F201FB1200B6
:103C10003030C2B22146641C01A842549D4800883D
:103C2000642190FBF1F00A2190FBF1F201FB1200FC
:103C30003030C2B22046611CCCB201A90A5495486A
:103C400000880A2190FBF1F090FBF1F201FB1200D9
:103C50003030C2B22046611CCCB201A90A548D4852
:103C600000880A2190FBF1F201FB12003030C2B251
:103C70002046611CCCB201A90A54E01EC0B28DF8E6
:103C80000600601CC4B22246814801F0D5F908B094
:103C900010BD10B588B000241C2101A804F0EBFA77
:103CA0004FF490700090A5222146641C01A8425454
:103CB0005A222146641C425400222146641C42546C
:103CC00082222146641C42549DF801202146641C36
:103CD00042549DF800202146641C42546E480078EE
:103CE00020BBCE222046611CCCB201A90A54B422CA
:103CF0002046611CCCB201A90A54C1222046611C95
:103D0000CCB201A90A54AC222046611CCCB201A954
:103D10000A54BD222046611CCCB201A90A54D32208
:103D20002046611CCCB201A90A5423E0D2222046CD
:103D3000611CCCB201A90A54D1222046611CCCB22C
:103D400001A90A54C1222046611CCCB201A90A541F
:103D5000AC222046611CCCB201A90A54BD222046E7
:103D6000611CCCB201A90A54D3222046611CCCB2FA
:103D700001A90A54E01EC0B28DF80600601CC4B24E
:103D8000224601A9424801F057F908B010BD10B50C
:103D900088B000241C2101A804F06DFA8020009056
:103DA000A5222146641C01A842545A222146641CC3
:103DB000425400222146641C425482222146641C43
:103DC00042549DF801202146641C42549DF8002075
:103DD0002146641C4254B1222146641C4254BE2236
:103DE0002046611CCCB201A90A54BB222046611CAA
:103DF000CCB201A90A54FA222046611CCCB201A916
:103E00000A5449222046611CCCB201A90A5444221A
:103E10002046611CCCB201A90A543A222046611CFA
:103E2000CCB201A90A5430222146601CC4B201A8B8
:103E3000425478222046611CCCB201A90A54432284
:103E40002046611CCCB201A90A541448007800F045
:103E50000F0030302146621CD4B201AA5054E01E3B
:103E6000C0B28DF80600601CC4B2224601A9084801
:103E700001F0E2F808B010BD10B540F22551044839
:103E8000FEF724FE10B10248FEF7A0FD10BD0000B1
:103E900000440040220100202B0100202A000020C5
:103EA00070B50024002502F0D5FF03F013F802F0EE
:103EB000C1FFF649F64802F09DFEF648046808E0A6
:103EC00004F03CF8F3480568281BB0F5FA6F00D9F8
:103ED00003E0F14800780028F2D000BFEE480078F7
:103EE000012808D1EDA004F00BFDFA480188FAA0E2
:103EF00004F006FD02E0FEA004F002FDFFF747FF1C
:103F0000FFF749FDFFF754FEFFF7C3FE70BD70B524
:103F100004460D462078AA2815D16078AA2812D127
:103F2000E07801280FD12079FB49887160794871C8
:103F3000A0790871E0798870207A4870607A0870FA
:103F40000846FFF7CAF870BD1FB50024312221468C
:103F5000641C0DF8012032222146641C0DF801205A
:103F600033222146641C0DF8012031222146641CB5
:103F70000DF8012032222146641C0DF80120332265
:103F80002146641C0DF8012031222146641C0DF8E5
:103F9000012032222046611CCCB20DF800203322D1
:103FA0002046611CCCB20DF8002031222046611C55
:103FB000CCB20DF8002032222046611CCCB20DF8A4
:103FC000002033222046611CCCB20DF800203122A3
:103FD0002046611CCCB20DF8002032222046611C24
:103FE000CCB20DF8002033222046611CCCB20DF873
:103FF00000200F226946002002F05CF81FBD2DE969
:10400000FF4105460E4600240027AA222146641CD3
:104010000DF801202146641C0DF801200A222146DA
:10402000641C0DF8012011222146641C0DF80120AA
:1040300000222146641C0DF801202146641C0DF865
:1040400001602146641C0DF80150B4488279204675
:10405000611CCCB20DF80020B04842792046611CAA
:10406000CCB20DF80020AD4802792046611CCCB2DC
:104070000DF80020A94882782046611CCCB20DF8CA
:104080000020A64842782046611CCCB20DF80020E2
:10409000A24802782046611CCCB20DF800202746C9
:1040A00005E000223846791CCFB20DF800200F2F12
:1040B000F7DB0F226946002001F0FCFFBDE8FF811D
:1040C0007FB500240025AA222146641C0DF801209A
:1040D0002146641C0DF8012000222146641C0DF8C5
:1040E000012015222146641C0DF80120C122214621
:1040F000641C0DF80120D1222146641C0DF801201A
:10410000874882782146641C0DF80120C278204639
:10411000611CCCB20DF80020D2222046611CCCB22A
:104120000DF800207E4802792046611CCCB20DF8C3
:1041300000207B4842792046611CCCB20DF800205B
:10414000D3222046611CCCB20DF80020744882793D
:104150002046611CCCB20DF800207148C27920467F
:10416000611CCCB20DF80020E01EC0B28DF8020038
:10417000254605E000222846691CCDB20DF8002036
:104180000F2DF7DB0F226946002001F093FF7FBD62
:104190007FB500240025AA222146641C0DF80120C9
:1041A0002146641C0DF8012000222146641C0DF8F4
:1041B000012015222146641C0DF80120C22221464F
:1041C000641C0DF80120D1222146641C0DF8012049
:1041D000544882782146641C0DF80120C27820469C
:1041E000611CCCB20DF80020D2222046611CCCB25A
:1041F0000DF800204B4802792046611CCCB20DF826
:104200000020484842792046611CCCB20DF80020BD
:10421000D3222046611CCCB20DF80020414882799F
:104220002046611CCCB20DF800203E48C2792046E1
:10423000611CCCB20DF80020E01EC0B28DF8020067
:10424000254605E000222846691CCDB20DF8002065
:104250000F2DF7DB0F226946002001F02BFF7FBDF9
:104260007FB500240025AA222146641C0DF80120F8
:104270002146641C0DF8012000222146641C0DF823
:10428000012015222146641C4EE00000020100209E
:10429000FA000020740000202B0100205735353033
:1042A00030D7F7CEAA54435020536572766572A377
:1042B000ACBDA8C1A2D5ECCCFDA3ACB5C8B4FD542F
:1042C000435020436C69656E74C1ACBDD3200D0AA8
:1042D00000000000220100205735353030BCE0CC12
:1042E000FDB6CBBFDACEAAA3BA202564200D0A0002
:1042F0003D3D3D3D3D4448435020696E69746961D0
:104300006C697A6174696F6E206661696C65643D81
:104310003D3D3D3D0D0A00005700002050000020AB
:104320002D000020350000200DF80120C322214679
:10433000641C0DF80120D1222146641C0DF80120D7
:10434000FD4882782146641C0DF80120C278204681
:10435000611CCCB20DF80020D2222046611CCCB2E8
:104360000DF80020F44802792046611CCCB20DF80B
:104370000020F14842792046611CCCB20DF80020A3
:10438000D3222046611CCCB20DF80020EA48827985
:104390002046611CCCB20DF80020E748C2792046C7
:1043A000611CCCB20DF80020E01EC0B28DF80200F6
:1043B000254605E000222846691CCDB20DF80020F4
:1043C0000F2DF7DB0F226946002001F073FE7FBD41
:1043D00030B503460C460021002000BF05E05D5CBF
:1043E000954200D108464D1CE9B2A142F7DB30BD31
:1043F000017801F0F001C0292BD1C17AF02904D154
:10440000017BCE4A1170417B5170C17AF12904D1F0
:10441000017BCB4A1170417B5170C17AF22904D1E2
:10442000017BC84A1170417B5170C17AF42904D1D3
:10443000017BC54A1170417B5170C17AF52908D1C1
:10444000417B012902D1C14A117002E00021BF4A1B
:104450001170017801F0F001D02926D1C17AF32939
:10446000FBD1017801F00F01042927D2017801F076
:104470000F01B74A12F8111031B9417B027802F0EE
:104480000F02B34B03F81210817B027802F00F0287
:10449000AF4B03EB42025170417B39B101220178ED
:1044A00001F00F01491EAB4B5A5466E00022017B1C
:1044B00001F00F01491EA74B5A545EE0017801F04C
:1044C0000F0107292AD2017801F00F01C91EA24A63
:1044D00012F8111039B9427B017801F00F01C91EA1
:1044E0009D4B03F81120827B017801F00F01C91E5A
:1044F000994B03EB41014A70417B39B101220178AC
:1045000001F00F01491E934B5A5436E00022017B03
:1045100001F00F01091F8F4B5A542EE0017801F072
:104520000F010A2929D2017801F00F01891F824A5F
:1045300012F8111039B9427B017801F00F01891F7F
:104540007D4B03F81120827B017801F00F01891F58
:10455000794B03EB41014A70417B39B1012201786B
:1045600001F00F01491E7B4B5A5406E00022017BEB
:1045700001F00F01C91F774B5A54704710B504461C
:10458000092C4BD2DFE804F005121F2C31363B40DA
:1045900045007248007820B98021022001F050FCCB
:1045A00003E0A821022001F04BFC37E06B480078C3
:1045B00020B98021022001F043FC03E0A821022061
:1045C00001F03EFC2AE06548007820B980210220F5
:1045D00001F036FC03E0A821022001F031FC1DE0CF
:1045E00064219B2001F02CFC18E00021EF2001F059
:1045F00027FC13E02421DB2001F022FC0EE0202127
:10460000DF2001F01DFC09E06621982001F018FC74
:1046100004E02421DB2001F013FC00BF00BF10BD2B
:1046200070B50025002400BF67E04A48405D0028BF
:1046300061D0032D1EDA44F0010449480078C128F6
:1046400010D101203E49087048703F4908704870F9
:104650003A49087048703B49087048702846FFF78F
:104660008DFF48E0012038490870487033490870D0
:10467000487040E0062D1EDA44F002043848007805
:10468000C22810D101202E49087048702E490870A8
:1046900048702A49087048702A49087048702846AE
:1046A000FFF76CFF27E00120274908704870234975
:1046B000087048701FE0092D1DDA44F004042848F2
:1046C0000078C32810D101201D49087048701E4988
:1046D000087048701949087048701A490870487085
:1046E0002846FFF74BFF06E0012017490870487085
:1046F000124908704870681CC5B2092D95DB18482E
:104700000078C12804D0C22830D0C32854D140E05A
:1047100014F0010F02D001201249087014F0060FA6
:1047200002D001201049087024B900200E490870F9
:104730000C49087041E000003D0000206C000020A2
:104740006E00002070000020720000204E0000204B
:104750002D0000208C01002035000020EE000020FC
:104760002A0000204D0000204C00002014F0020F11
:1047700002D00120FE49087014F0050F02D001207C
:10478000FC49087024B90020FA490870F8490870FB
:1047900013E014F0040F02D00120F549087014F062
:1047A000030F02D00120F349087024B90020F14919
:1047B0000870EF49087000E000BF00BF70BD10B581
:1047C000ED48007801280BD1EB48407810B9002063
:1047D00001F06CF9E8484078012801D101F066F950
:1047E000E5480078022800D100BF10BD10B5E348AD
:1047F0000078012813D1E148407828B940F26C7262
:104800000221012001F0BEF9DC484078012805D1E1
:1048100040F26C720121084601F0B4F900BF10BDEE
:1048200010B5D748007801280BD1D548407810B989
:10483000002001F0FBF9D2484078012801D101F0B5
:10484000F5F9CF480078022800D100BF10BD10B59F
:10485000CC48007810F0080F03D0012001F006FAD0
:1048600002E0002001F002FA10BD704710B5C04808
:10487000007818B1FFF7BAFFFFF7D2FFFFF79FFFED
:10488000FFF7E5FFFFF7F1FF10BD1CB50024002086
:1048900000900190F6208DF80000BB4800788DF85C
:1048A0000400B9480078F630C4B28DF80740B64825
:1048B0000078401CB449087008460078DA2801D115
:1048C000D0200870B14801786846FEF745FB1CBD52
:1048D0001CB5002000900190C024AC480078C1288D
:1048E00004D0C22820D0C3285AD13BE0F3208DF851
:1048F0000000A74800788DF80100A548007800F076
:104900000F00A44911F810008DF80200A0480078AB
:1049100000F00F0001EB400040788DF803009B4849
:1049200000788DF804003CE0F3208DF800009848F2
:1049300000788DF801009648007800F00F00964945
:1049400011F810008DF802009148007800F00F0077
:1049500001EB400040788DF803008C4800788DF81A
:1049600004001EE0F3208DF80000894800788DF8DF
:1049700001008748007800F00F00884911F8100006
:104980008DF802008248007800F00F0001EB400033
:1049900040788DF803007D4800788DF8040000E031
:1049A00000BF00BF7A480078401C7949087008466B
:1049B0000078D42801D1D120087021466846FEF73E
:1049C000CBFA77480078D0B1002000900190F52014
:1049D0008DF8000000208DF8010001208DF8020004
:1049E0006C480021016041600160416001604160EC
:1049F00000205F4908705F490870694908702146C6
:104A00006846FEF7A9FA1CBD6649097839B9DD2860
:104A100005D10121634A11706349087020E06149A2
:104A2000097801290AD1DD2808D102215D4A1170D7
:104A30005D49487000215D4A117011E059490978BB
:104A400002290AD159490978584A1278521C574B01
:104A50001A70891C544A505402E00021514A1170C6
:104A600052490978891C08294ED100214D4A1170FC
:104A70004E4A117045490978C12904D0C22915D080
:104A8000C32939D125E048490979474AD27802F04B
:104A90000F02404B03F8121043494979424AD27839
:104AA00002F00F0203EB4202517026E03E49097901
:104AB0003D4AD27802F00F02374B03F812103A4900
:104AC0004979394AD27802F00F0203EB4202517061
:104AD00013E035490979344AD27802F00F022F4B9E
:104AE00003F81210304949792F4AD27802F00F02A8
:104AF00003EB4202517000E000BF00BF2A49097970
:104B0000012901D11A4A117070471CB5002000908C
:104B100001900024DD222146641C0DF8012021466D
:104B2000641C0DF8012010222146641C0DF80120A0
:104B30001F4802782146641C0DF8012000222146FE
:104B4000641C0DF801202146641C0DF8012021464B
:104B5000641C0DF801202046611CCCB20DF8002029
:104B600008226946134800F067FA1148007823E0EC
:104B70004D0000204C0000206C0000206E00002042
:104B800070000020780000208A0000202A00002009
:104B90008B0000202D000020350000203D0000206B
:104BA0004E0000208C000020820000208D0000209C
:104BB0002C00002000380140401C044908700846C1
:104BC0000078D42801D1D12008701CBD2C00002011
:104BD00070B504460D4625602168880004F04AFD42
:104BE000E0600020A060606070BD70B504460D46B6
:104BF000A068401C216890FBF1F201FB120660687E
:104C0000B04203D11CA003F07BFE04E0D4E9021003
:104C100040F82150A66070BD70B50446D4E901107B
:104C2000884203D11CA003F06BFE0BE06168E068D2
:104C300050F821506068401C216890FBF1F201FBA4
:104C400012006060284670BD0146D1E90102904221
:104C500001D1012070470020FCE701468868401C14
:104C60000A6890FBF2F302FB13004A68904201D1FC
:104C7000012070470020FCE7746865207175657538
:104C80006520686173206265656E2066696C6C657D
:104C9000642066756C6C210074686520717565759B
:104CA00065206973204E554C4C0A0000002001E03D
:104CB000411CC8B20A28FBDB704710B5402173487D
:104CC000FCF73DFA20217148FCF739FAFFF7EEFFB7
:104CD00040216E48FCF735FAFFF7E8FF20216B48CA
:104CE000FCF72FFAFFF7E2FF10BD10B5402167482F
:104CF000FCF727FA20216548FCF721FAFFF7D6FFD9
:104D000040216248FCF71BFAFFF7D0FF10BD70B5D9
:104D10000446002523E014F0800F04D040215B48B6
:104D2000FCF70DFA03E040215848FCF70AFAFFF7B8
:104D3000BDFF20215548FCF702FAFFF7B7FF2021FD
:104D40005248FCF7FEF9072D03D140214F48FCF7EC
:104D5000F6F96006040EFFF7A9FF681CC5B2082D1E
:104D6000D9DBFFF7A3FF70BD70B50024002516E066
:104D70006006040E20214548FCF7E1F9FFF796FF95
:104D800040214248FCF7C1F908B1601CC4B220219F
:104D90003E48FCF7D6F9FFF789FF681CC5B2082D1D
:104DA000E6DBFFF783FF204670BD10B54021374892
:104DB000FCF7C5F9FFF77AFF20213448FCF7BFF96B
:104DC000FFF774FF40213148FCF79FF908B1012437
:104DD00000E0002420212D48FCF7B3F9FFF766FF1F
:104DE000204610BD10B540212848FCF7AAF9FFF76E
:104DF0005DFF20212548FCF7A2F9FFF757FF20218E
:104E00002248FCF79EF9FFF751FF40211F48FCF7AD
:104E100096F9FFF74BFF10BD10B540211B48FCF77A
:104E20008EF9FFF743FF20211848FCF788F9FFF7B8
:104E30003DFF20211548FCF784F9FFF737FF10BD2F
:104E400008B501210820FCF785FB6020ADF80000C3
:104E500003208DF8020014208DF8030069460B48EA
:104E6000FCF7C2F8FFF741FF08BD70B50446FFF735
:104E7000E7FFFFF722FF2046FFF749FFFFF795FF07
:104E80000546FFF732FF284670BD0000000C0140C8
:104E900030B5284800684FF47A72B0FBF2F1B1F1F6
:104EA000807F01D301201DE021F07F40401E4FF0A4
:104EB000E022506150170F22002807DA13071D0E59
:104EC0001D4B00F00F04241F1D5503E013071C0E9B
:104ED0001A4B1C5400BF00204FF0E02290610720C5
:104EE0001061002008B100BFFEE74FF0E02000692C
:104EF00020F001004FF0E021086130BD01B51049FC
:104F0000009808604FF0E020006940F001004FF089
:104F1000E021086100BF0A4800680028FBD108BDF5
:104F20000748006820B106480068401E0449086030
:104F3000704700000000002018ED00E000E400E0F1
:104F40009000002000B585B0012144F20400FCF778
:104F500001FB4FF40070ADF8100018208DF813001D
:104F600003208DF8120004A94048FCF73DF84FF4E7
:104F70008060ADF8100004208DF8130004A93B48B0
:104F8000FCF732F84FF4165000900020ADF8040002
:104F9000ADF80600ADF80800ADF80C000C20ADF837
:104FA0000A0069463248FDF714FC012240F22551FF
:104FB0002F48FDF7A6FC01212D48FDF796FC05B012
:104FC00000BD10B540F225512948FDF77FFD30B1F5
:104FD0002748FDF7FBFCC4B22046FFF715FD10BDC6
:104FE00070B504460D46E1B22148FDF7EBFC00BF69
:104FF00040211F48FDF754FD0028F9D0204670BD20
:1050000010B5044600BF20211948FDF749FD0028CE
:10501000F9D01748FDF7DAFC10BD70B504460D460F
:1050200029462046FDF7CEFC00BF40212046FDF773
:1050300037FD0028F9D070BD2DE9F04107460D4637
:105040001646002400BF0CE0295D3846FDF7BAFC87
:1050500000BF40213846FDF723FD0028F9D0601C31
:1050600084B2B442F0DBBDE8F081000000080140EA
:105070000038014000B587B001212420FCF76AFA0E
:1050800001210803FCF766FA2020ADF80400032094
:105090008DF8060018208DF8070001A9FE48FBF7DF
:1050A000A3FF4020ADF8040001A9FB48FBF79CFFDB
:1050B0008020ADF8040001A9F748FBF795FF102008
:1050C000ADF804008DF8070001A9F348FBF78CFF49
:1050D0000020ADF808004FF48270ADF80A000020FF
:1050E000ADF80C000220ADF80E000120ADF8100064
:1050F0004002ADF812000820ADF814000020ADF811
:1051000016000720ADF8180002A9E448FCF7B0FA31
:105110000121E248FCF751FB07B000BD10B5044681
:1051200000BF0221DD48FCF7CCFB0028F9D0214666
:10513000DA48FCF773FB00BF0121D848FCF7C1FB3C
:105140000028F9D0D548FCF76BFBC0B210BD10B5F4
:1051500000241021D048FBF7F4FF0520FFF7DEFF05
:1051600000BFFF20FFF7DAFF044614F0010FF8D16B
:105170001021C948FBF7E3FF10BD10B51021C64848
:10518000FBF7DFFF0620FFF7C9FF1021C248FBF73E
:10519000D6FF10BD10B50446FFF7EFFFFFF7D7FFAE
:1051A0001021BD48FBF7CDFF2020FFF7B7FFC4F368
:1051B0000740FFF7B3FFC4F30720FFF7AFFFE0B2EC
:1051C000FFF7ACFF1021B448FBF7B9FFFFF7BFFFB3
:1051D00010BD10B5FFF7D1FF1021AF48FBF7B1FFAD
:1051E000C720FFF79BFF1021AB48FBF7A8FFFFF795
:1051F000AEFF10BD70B505460C461646FFF7BDFF65
:105200001021A548FBF79DFF0220FFF787FFC4F39D
:105210000740FFF783FFC4F30720FFF77FFFE0B2EB
:10522000FFF77CFFB6F5807F01DD4FF4807603E069
:105230002878FFF773FF6D1C3000A6F101018EB2D4
:10524000F6D110219448FBF77AFFFFF780FF70BD7D
:105250002DE9F05F07460E4614464FF00008C146A0
:10526000C2460025AB4606F0FF0ACAF10000C5B2EF
:105270002046E11704EB1161C1F30728E11704EBA5
:1052800011610912A4EB012101F0FF09BAF1000F2D
:1052900020D1B8F1000F05D1224631463846FFF73C
:1052A000A9FF64E009E04FF4807231463846FFF709
:1052B000A1FF06F5807607F580775FEA0800A8F180
:1052C000010101F0FF08EED14A4631463846FFF7AA
:1052D00091FF4CE0B8F1000F18D1A94510DDA9EB02
:1052E000050000F0FF0B2A4631463846FFF782FFE3
:1052F0002E442F445A4631463846FFF77BFF36E0AE
:10530000224631463846FFF775FF30E0601B84B215
:105310002046E11704EB1161C1F30728E11704EB04
:1053200011610912A4EB012101F0FF092A4631465F
:105330003846FFF75FFF2E442F4409E04FF4807298
:1053400031463846FFF756FF06F5807607F5807739
:105350005FEA0800A8F1010101F0FF08EED1B9F100
:10536000000F04D04A4631463846FFF743FFBDE8F8
:10537000F09F70B505460C46164610214648FBF7CF
:10538000E0FE0320FFF7CAFEC4F30740FFF7C6FEA6
:10539000C4F30720FFF7C2FEE0B2FFF7BFFE04E050
:1053A000FF20FFF7BBFE28706D1C3000A6F1010145
:1053B0008EB2F5D110213848FBF7C1FE70BD2DE942
:1053C000F041002400250026002710213248FBF779
:1053D000B8FE9F20FFF7A2FEFF20FFF79FFE0546C5
:1053E000FF20FFF79BFE0646FF20FFF797FE0746CC
:1053F00010212948FBF7A3FE280440EA062040EAD2
:1054000007042046BDE8F08110B500241021224891
:10541000FBF797FEAB20FFF781FEFF20FFF77EFE34
:10542000FF20FFF77BFEFF20FFF778FEFF20FFF74E
:1054300075FE044610211848FBF781FE204610BD7A
:1054400010B5044610211448FBF77BFE0320FFF73C
:1054500065FEC4F30740FFF761FEC4F30720FFF7C2
:105460005DFEE0B2FFF75AFE10BD10B5FF20FFF75A
:1054700055FE10BD10B5044600BF02210748FCF7D9
:1054800020FA0028F9D021460448FCF7C7F900BFEC
:105490000121024804E00000000801400030014002
:1054A000FCF70FFA0028F3D05C48FCF7B9F910BDFF
:1054B00010B510215A48FBF744FEB920FFF72EFE25
:1054C00010215748FBF73BFE10BD10B51021544882
:1054D000FBF737FEAB20FFF721FE10215048FBF70A
:1054E0002EFE10BD10B5034607E018780C78A042D8
:1054F00001D0002010BD5B1C491C1000A2F101046A
:10550000A2B2F2D10120F5E701B502E00098401EF9
:10551000009000980028F9D108BDFFF7ABFDFFF718
:1055200073FF40490860C820FFF7EEFFFFF747FF11
:105530003D4908603B480268084601683BA003F00B
:10554000DFF939480068474988422DD146A003F069
:10555000D7F94FF47040FFF71DFE4B224FF4704116
:105560004A48FFF775FE494949A003F0C9F94B22A3
:105570004FF470414C48FFF7FCFE44494BA003F048
:10558000BFF94B2248494148FFF7ACFF4D4908702D
:1055900008460078012803D14BA003F0B1F906E0DA
:1055A00052A003F0ADF902E059A003F0A9F9FFF70A
:1055B0007FFF00BFFEE710B5FFF75CFDFFF724FF9C
:1055C00018490860C820FFF79FFFFFF7F8FE16494B
:1055D000086008460068234988421DD14FF4704096
:1055E000FFF7D8FD4B224FF470412848FFF730FEFB
:1055F0004B224FF470412C48FFF7BBFE4B222A4947
:105600002248FFF76FFF2F490870084600780128ED
:1056100000D110BD0020FCE70020FAE70030014077
:1056200000080140E0000020E40000200D0A2046B0
:105630006C617368494420697320307825582C20A8
:10564000204D616E75666163747572657220446584
:105650007669636520494420697320307825580DA8
:105660000A0000001740EF000D0A20BCECB2E2B5C2
:10567000BDBBAAB0EEB4AED0D0666C6173682057E3
:10568000323551363420210D0A00000094000020EC
:105690000D0A20D0B4C8EBB5C4CAFDBEDDCEAAA3A6
:1056A000BA2573200D090000950100200D0A20B6CF
:1056B000C1B3F6B5C4CAFDBEDDCEAAA3BA25732018
:1056C0000D0A0000E80000200D0A20384DB4AED0CD
:1056D000D0666C6173682857323551363429B2E28E
:1056E000CAD4B3C9B9A6210A0D0000000D0A20389A
:1056F0004DB4AED0D0666C617368285732355136E0
:105700003429B2E2CAD4CAA7B0DC210A0D000000D5
:105710000D0A20BBF1C8A1B2BBB5BD20573235512F
:105720003634204944210A0D0000000010B5A020A5
:10573000FFF79BFB08B9012010BDFFF7D6FA002048
:10574000FAE72DE9F04106460F461546FFF7B5FA90
:10575000A020FFF7DCFAFFF728FB00B125E0F8B244
:10576000FFF7D5FAFFF721FB00B11EE0FFF7A5FA1E
:10577000A120FFF7CCFAFFF718FB00B115E00024D9
:105780000CE0FFF7F1FA3055681EA04202D0FFF797
:1057900029FB01E0FFF740FB601C84B2AC42F0DB68
:1057A000FFF7A3FA0120BDE8F081FFF79EFA002081
:1057B000F9E72DE9F047074688469146464600241A
:1057C0002BE014B116F0070F1CD1FFF78EFA00255D
:1057D0000AE0FFF772FAA020FFF799FAFFF7E5FA5F
:1057E00000B903E0681C85B2642DF2DB00BFB5F59B
:1057F0007A7F00D118E0F0B2FFF789FAFFF7D5FA07
:1058000000B111E0385DFFF782FAFFF7CEFA00B180
:105810000AE0701C86B2601C84B24C45D1DBFFF7F5
:1058200064FA0120BDE8F087FFF75FFA0020F9E78E
:1058300010B5C0B0002404E0FF200DF80400601C87
:1058400084B2FF2CF8DD4FF4807200216846FFF728
:10585000B0FF20B936A003F053F840B010BD39A016
:1058600003F04EF800BFF8E701B502E00098401ED3
:10587000009000980028F9D108BD10B5ADF5007D65
:10588000FFF754FF20B934A003F03AF800BFFEE759
:10589000002403E040A90C55601C84B2FF2CF9DD04
:1058A0004FF48072002140A8FFF783FF28B930A091
:1058B00003F026F80DF5007D10BD32A003F020F8AE
:1058C0003548FFF7D1FF4FF4807200216846FFF79B
:1058D00038FF18B931A003F013F8EBE734A003F058
:1058E0000FF800241CE01DF8040040A9095D88425F
:1058F00008D01DF8041035A003F002F835A002F01E
:10590000FFFFD7E71DF804103BA002F0F9FF04F0F9
:105910000F000F2802D10AA002F0F2FF601C84B22F
:10592000FF2CE0DD36A002F0EBFF00BFFEE7000039
:10593000B2C1B3FD656570726F6DB3F6B4EDA3A12E
:105940000D0A0000B2C1B3FD656570726F6DB3C919
:10595000B9A6A3A10D0A0000C3BBD3D0BCECB2E230
:10596000B5BDB4AED0D0454550524F4D210D0A00C3
:10597000D0B4656570726F6DB3F6B4EDA3A10D0A76
:1059800000000000D0B4656570726F6DB3C9B9A630
:10599000A3A10D0A00000000FFFF0F00B6C165655E
:1059A00070726F6DB3F6B4EDA3A10D0A0000000094
:1059B000B6C1656570726F6DB3C9B9A6A3ACCAFDF7
:1059C000BEDDC8E7CFC2A3BA0D0A0000307825308B
:1059D00032582000B4EDCEF33A454550524F4DB603
:1059E000C1B3F6D3EBD0B4C8EBB5C4CAFDBEDDB2CB
:1059F000BBD2BBD6C20000002025303258000000C8
:105A0000656570726F6DB6C1D0B4B2E2CAD4B3C965
:105A1000B9A60D0A0000000070470EB50121084626
:105A2000FBF7A5FD4FF47A70ADF804004720ADF800
:105A300000000020ADF80600ADF8020069464FF006
:105A40008040FCF749F801218807FCF767FE012236
:105A500011469007FCF7B7FB01218807FCF798FB7C
:105A600000210120FBF783FD0EBD10B50121880741
:105A7000FCF757FE28B101F0D7FA01218807FCF79F
:105A800061FE10BD08B501210820FBF763FD4FF44E
:105A90000040ADF8000003208DF8020010208DF8C2
:105AA000030069469648FBF79FFA08BD10B5044607
:105AB0002CB14FF400419248FBF741FB04E04FF456
:105AC00000418F48FBF73DFB10BD08B501211820B0
:105AD000FBF740FD4FF47070ADF8000003208DF827
