:020000040800F2
:10000000B804002045010008B1100008050E0008E2
:10001000AD100008FF080008E322000800000000FF
:10002000000000000000000000000000351E000875
:10003000BD0A000800000000FD170008391F000875
:100040005F0100085F0100085F0100085F01000810
:100050005F0100085F0100085F0100085F01000800
:100060005F0100085F0100085F0100085F010008F0
:100070005F0100085F0100085F0100085F010008E0
:100080005F0100085F0100085F0100085F010008D0
:100090005F0100085F0100085F0100085F010008C0
:1000A0005F0100085F0100085F0100085F010008B0
:1000B0005F0100085F0100085F0100085F010008A0
:1000C0005F0100085F0100085F0100085F01000890
:1000D0005F0100080D2100085F0100085F010008B2
:1000E0005F0100085F0100085F0100085F01000870
:1000F0005F0100085F0100085F0100085F01000860
:100100005F0100085F0100085F0100085F0100084F
:100110005F0100085F0100085F0100085F0100083F
:100120005F0100085F0100085F0100085F0100082F
:10013000DFF80CD000F0AAFB004800477533000838
:10014000B80400200648804706480047FEE7FEE75F
:10015000FEE7FEE7FEE7FEE7FEE7FEE7FEE7FEE777
:100160000D20000831010008D2B201E000F8012B97
:10017000491EFBD270470022F6E710B513460A4627
:1001800004461946FFF7F0FF204610BDF0B480EAA0
:100190000102D40F4200B2EB410F02D202460846E0
:1001A00011464A0042D0C30DDDB2C1F3C752AD1AA9
:1001B000202D35DAC1F3160141F4000204B1524298
:1001C000C5F1200602FA06F12A411044B3EBD05FD4
:1001D00023D0C4B1012DA0EBC35009DCF0BC4FF01B
:1001E000004202EAC35200F50000DBB200F03BBA65
:1001F000400000F1807000EBC350A0F1807040EA35
:10020000D170490009E0490841EAC071A0EBC35030
:1002100000F50000400800EBC350F0BC00F01ABA33
:100220006142012202EB4101001BF6E7F0BC70477E
:1002300081F00041AAE780F00040A7E72DE9FE4FDA
:10024000804681EA0300C00F0C46009021F0004177
:1002500023F00045B8EB0200A94105D240462146F3
:1002600090461C460B46024623F00040104304D142
:100270004046214603B0BDE8F08F270DC7F30A00C2
:10028000C3F30A510290401A0190402866DAC3F382
:10029000130040F4801B0098924620B10023D2EB5B
:1002A000030A63EB0B0B01985946C0F1400250461C
:1002B00000F0AFF906460D4650465946019A00F047
:1002C000B7F910EB08006141002487EA115284EA73
:1002D000E7731A433BD0009A3AB3019A012A4FEAD6
:1002E000075210DC001B61EB02014FF0004202EAF2
:1002F0000752CDE90042001C41F5801132462B46E1
:1003000000F0EBF9B6E7001B61EB0201001C41F5C0
:10031000801300185B412018A2F5001747EB03017A
:1003200040EAD570B6196D4111E06D084FEA360606
:1003300045EAC0754FEA0752001B61EB0201001C41
:1003400041F5801149084FEA300000195141324609
:100350002B4603B0BDE8F04F00F0B2B9009801227F
:1003600040000023D0EB020263EBE07300982146CB
:100370004FEAE074B8EB000061EB0401E9E783F0B9
:1003800000435BE781F0004158E72DE9FE4F81EA29
:10039000030404F0004421F0004100944FF0000BEE
:1003A00023F0004350EA010402D052EA030404D1CE
:1003B0000020014603B0BDE8F08FC3F30A54C1F337
:1003C0000A552C44A4F2F3340194A0FB0254C1F367
:1003D000130141F48011C3F3130343F4801301FBB1
:1003E000024400FB034E840A970A44EA815447EA18
:1003F0008357A4FB076802958D0A05FB07854FEA22
:10040000932C04FB0C542705029D4FEA065847EA3B
:100410001637B5EB08056EEB070C870E920E47EA10
:10042000811742EA8312A7FB0201B6EB0B0164EBD2
:1004300000042B0D43EA0C335E1844EB1C50DA46E3
:100440005146E7FB0201C5F313044FEA0B3343EABD
:1004500014534FEA0432019C43EA0603A4F10C044E
:100460000294009CCDE900B400F037F9A2E7C10F77
:1004700080EAE0700844CA079623002100F0F3B830
:100480000EB5C10F80EAE0700844CA07002140F2AF
:1004900033438DE80E000A460B4600F01EF903B008
:1004A00000BD00F0004220F00040C10DC0F3160076
:1004B00040F400007F2901DA00207047962903DC10
:1004C000C1F19601C84001E096398840002AF4D075
:1004D0004042704700F0004230F000400AD0C10DA9
:1004E00001F56071C0F3160042EA0151C2084007ED
:1004F00011437047002001467047000030B50029C5
:1005000004DB4FF00044404264EB0101002B04DBAC
:100510004FF00044524264EB03038B4208BF824217
:1005200030BD000030B5002904DB4FF000444042EC
:1005300064EB0101002B04DB4FF00044524264EBFA
:100540000303994208BF904230BD000001F0004310
:1005500030B421F0004150EA010206D00A0DA2F5A4
:100560006072C1F31301002A02DC30BC0020704726
:10057000440F44EAC104C100E01830BC00EBC25093
:1005800000F068B830B50B46014600202022012457
:1005900009E021FA02F59D4205D303FA02F5491B51
:1005A00004FA02F52844151EA2F10102F1DC30BD67
:1005B0002DE9F05F0546002092469B468846064698
:1005C000814640241BE0284641464746224600F02B
:1005D0006FF953465A46C01A914110D31146184636
:1005E000224600F016F82D1A67EB01084F46224606
:1005F0000120002100F00DF817EB00094E41201EEC
:10060000A4F10104DFDC484631462A464346BDE8F2
:10061000F09F202A04DB203A00FA02F10020704704
:100620009140C2F1200320FA03F319439040704730
:10063000202A06DBCB17203A41FA02F043EAE073A6
:1006400006E041FA02F3D040C2F120029140084393
:10065000194670470029A8BF7047401C490008BFD1
:1006600020F00100704710B4B0FA80FC00FA0CF0E2
:1006700050EA010404BF10BC704749B1CCF120041A
:1006800021FA04F411FA0CF118BF012121430843A7
:10069000A3EB0C01CB1D0106000A002BBEBF0020FE
:1006A00010BC704700EBC35010440029A4BF10BC1D
:1006B0007047401C490008BF20F0010010BC704783
:1006C00010B5002B08DA401C41F1000192185B4183
:1006D0001A4301D120F0010010BD2DE9F04D9246E2
:1006E0009B4611B1B1FA81F202E0B0FA80F22032F9
:1006F0009046FFF78EFF04460F4640EA0A0041EAA3
:100700000B0153465A46084303D120463946BDE8FB
:10071000F08D114653EA010015D0C8F14002504651
:1007200000F0C6F805460E46504659464246FFF7C9
:1007300070FF084301D0012000E00020054346EA95
:10074000E0762C4337430A984FEA4453A0EB080065
:100750004FEAD4240A304FF0000244EA47544FEAEB
:10076000D72502D500200146D1E7010510196941BE
:10077000DDE9084500196941BDE8F04DA0E72DE924
:10078000F04D81EA030404F0004B21F000451446CB
:100790004FF0000A23F0004150EA050220D054EA4D
:1007A00001021DD0C5F30A570246C5F31303C1F376
:1007B0001300C1F30A5640F4801543F48013A7EBED
:1007C0000608101BD64608F2FD3873EB050002D36D
:1007D00008F1010801E092185B41B8F1000F03DA5B
:1007E00000200146BDE8F08D00204FF48011064640
:1007F00084460EE0171B73EB050705D3121B63EB52
:10080000050306434CEA010C49084FEA30009218F0
:100810005B4150EA0107EDD152EA030012D082EAAF
:10082000040083EA0501084303D100224FF000438E
:1008300008E0101BAB4102D20122002302E06FF05E
:10084000010253101AEB06004CEB085110EB0A00A2
:1008500041EB0B01BDE8F04DFFF732BFC1F30A5287
:10086000C1F3130140F2FF3341F480119A4202DADE
:1008700000200146704740F233439A42A2F23342CD
:1008800002DC524200F014B8FFF7C3BE064C074D1D
:1008900006E0E06840F0010394E807009847103450
:1008A000AC42F6D3FFF748FCB8340008D83400084F
:1008B000202A04DB203A21FA02F00021704721FAB5
:1008C00002F3D040C2F1200291400843194670471C
:1008D00070B521F0004303430CD0C1F30A55002446
:1008E000D5EB040564EB0403D617AD1AB34102DB64
:1008F0000020014670BD201841EB025170BD00BFC1
:10090000FEE700002DE9F0470746884691463C4641
:1009100045464E461D480068844201DD1B48046080
:100920001B480068844201DA1948046019480068CD
:10093000854201DD1748056017480068854201DAE5
:100940001548056015480068864201DD13480660B9
:1009500013480068864201DA114806600C480268B4
:100960000A4801680FA001F015FD0B48026809480C
:10097000016811A001F00EFD0948026807480168EE
:1009800012A001F007FDBDE8F08700003C00002048
:100990004000002044000020480000204C000020BF
:1009A00050000020586D61783A256420586D696EBA
:1009B0003A2564207C7C2000596D61783A256420BA
:1009C000596D696E3A2564207C7C20005A6D6178EF
:1009D0003A2564205A6D696E3A25640A00000000C9
:1009E00070B505460C460026284600F0F7FF06467F
:1009F00026EA0401284601F077FC70BD10B50520F9
:100A000000F05EF812A001F0C5FC052000F058F8D7
:100A100014A001F0BFFC052000F052F815A001F071
:100A2000B9FC052000F04CF817A001F0B3FC05203C
:100A300000F046F818A001F0ADFC052000F040F8E9
:100A400019A001F0A7FC052000F03AF810BD000045
:100A5000504943283338302C3135302C37290D0A92
:100A6000000000005049432838302C3235352C37EF
:100A7000290D0A00504943283339302C3235352CA2
:100A800037290D0A00000000504943283332352C25
:100A900039352C37290D0A005049432833302C3181
:100AA00035352C37290D0A00504943283234302C73
:100AB0003330352C37290D0A000000007047000044
:100AC00001B50849009808604FF0E020006940F047
:100AD00001004FF0E021086100BF024800680028D3
:100AE000FBD108BD380000202DE9F0410246002569
:100AF0000026002000230024002791F803C00CF0FA
:100B00000F0591F803C01CF0100F03D091F802C03C
:100B10004CEA050591F800C0BCF1000F31D0146813
:100B200000202BE04FF0010C0CFA00F3B1F800C0EC
:100B30000CEA03069E4220D183004FF00F0C0CFA02
:100B400003F7BC4305FA03FC4CEA040491F803C024
:100B5000BCF1280F06D14FF0010C0CFA00FCC2F8D2
:100B600014C00AE091F803C0BCF1480F05D14FF062
:100B7000010C0CFA00FCC2F810C0401C0828D1D3AC
:100B80001460B1F800C0BCF1FF0F34DD54680020E0
:100B90002EE000F1080C4FF0010808FA0CF3B1F850
:100BA00000C00CEA03069E4221D183004FF00F0CD7
:100BB0000CFA03F7BC4305FA03FC4CEA040491F871
:100BC00003C0BCF1280F05D100F1080C08FA0CF89D
:100BD000C2F8148091F803C0BCF1480F07D100F1AE
:100BE000080C4FF0010808FA0CF8C2F81080401CFD
:100BF0000828CED35460BDE8F0810146886880B2F1
:100C000070470246002093680B4201D0012000E0AB
:100C10000020704741617047016170471CB500209A
:100C20000090019000F0DCF971E06420FFF748FFCC
:100C3000012203210DF1010000F0E6F80122042158
:100C40000DF1020000F0E0F8012207210DF1030090
:100C500000F0DAF80122082101A800F0D5F80122FD
:100C600005210DF1050000F0CFF8012206210DF15C
:100C7000060000F0C9F89DF802009DF8011040EA56
:100C80000120254908609DF804009DF8031040EA02
:100C90000120224908609DF806009DF8051040EAF1
:100CA00001201F4908601C480068B0F5004F06DBB2
:100CB00019480068A0F57F40FF38174908601748B9
:100CC0000068B0F5004F06DB14480068A0F57F40CF
:100CD000FF381249086012480068B0F5004F06DB83
:100CE0000F480068A0F57F40FF380D4908600C48A8
:100CF00002680A48016808480068FFF703FE4FF4DD
:100D000080710848FFF77DFF012800D100E08CE7E3
:100D100000BF00F009F81CBD54000020580000205E
:100D20005C000020000C014070B52148006821499A
:100D30000968441804EBD4714810FFF798FB1E496A
:100D400008601E4800681E490968441804EBD47105
:100D50004810FFF78CFB1B4908601B4800681B49C3
:100D60000968441804EBD4714810FFF780FB184958
:100D7000086011480068FFF7ADFB044622460B46A9
:100D800014A001F007FB0F480068FFF7A3FB04461F
:100D900022460B4613A001F0FDFA0D480068FFF74C
:100DA00099FB044622460B4612A001F0F3FA70BDEF
:100DB0003C000020400000207C0000204400002077
:100DC00048000020800000204C000020500000203F
:100DD00084000020585F4F66667365743A252E3292
:100DE00066202000595F4F66667365743A252E327F
:100DF000662020005A5F4F66667365743A252E326E
:100E0000660A000000BFFEE72DE9F04106460F46E6
:100E1000154602F061FA3C2002F02EFA02F08AFA3E
:100E200000B125E0F8B202F027FA02F083FA00B12F
:100E30001EE002F051FA3D2002F01EFA02F07AFAAA
:100E400000B115E000240CE002F0F2F93055681E04
:100E5000A04202D002F08AF901E002F0D3F9601C4E
:100E600084B2AC42F0DB02F051FA0120BDE8F0811F
:100E700002F04CFA0020F9E72DE9F04706460F464C
:100E80009046B94600242BE0ECB902F03FFA002569
:100E90000AE002F021FA3C2002F0EEF902F04AFAF0
:100EA00000B903E0681C85B2642DF2DB00BFB5F524
:100EB0007A7F00D11BE009F0FF0002F0DDF902F0BB
:100EC00039FA00B113E0305D02F0D6F902F032FADF
:100ED00000B10CE009F101001FFA80F9601C84B236
:100EE0004445D1DB02F012FA0120BDE8F08702F0A0
:100EF0000DFA0020F9E700000EB501220A2102A830
:100F0000FFF782FF01220A2101A8FFF77DFF0122DE
:100F10000A216846FFF778FF9DF8080048280BD1A2
:100F20009DF80400342807D19DF80000332803D130
:100F300003A001F02FFA02E008A001F02BFA0EBD89
:100F40000DC9E8B1B8484D43353737334CC9E8B11E
:100F5000F0B3C9B9A6210D0A0D0000000DB4EDCE05
:100F6000F321CEDEB7A8CAB6B1F0C9E8B1B8484D92
:100F700043353737334C210D0A0D000008B50121E8
:100F8000082000F03DFC0F20ADF8000028208DF86F
:100F9000030003208DF8020069460248FFF7A4FD14
:100FA00008BD0000000C014008B50121042000F03C
:100FB00027FC1F20ADF8000010208DF8030003204F
:100FC0008DF8020069460548FFF78EFD00F0E2FB50
:100FD00000F0D2FA00F0D6FA08BD00000008014087
:100FE00008B5002000903C2002F0F4F8FFF784FFE1
:100FF00014200090012200216846FFF73DFF2020C9
:101000000090012211466846FFF736FF002000904D
:10101000012202216846FFF72FFF08BD08B5012114
:10102000082000F0EDFB4FF48070ADF800000320C5
:101030008DF8020028208DF8030069460148FFF76B
:1010400053FD08BD000C014008B50121082000F047
:10105000D7FB4FF48070ADF8000010208DF803002E
:1010600003208DF8020069460448FFF73DFD4FF468
:1010700080710248FFF7D0FD08BD0000000C014060
:10108000F8B504460D461646ADF8006003208DF80D
:1010900002001CB110208DF8030002E004208DF83E
:1010A000030069462846FFF71FFDF8BD00BFFEE7B5
:1010B000704708B54FF4A06000F076F814208DF862
:1010C000000000208DF8010001208DF802008DF84D
:1010D0000300684600F02EF81D208DF80000002067
:1010E0008DF801008DF8020001208DF8030068469C
:1010F00000F020F825208DF8000000208DF8010078
:1011000002208DF8020001208DF80300684600F0EF
:1011100011F826208DF8000000208DF80100032032
:101120008DF8020001208DF80300684600F002F8F7
:1011300008BD000070B5002100230F22C4780CB355
:10114000164C246804F4E064C4F5E064210AC1F19B
:101150000403CA40447804FA03F18478144021431C
:1011600009010F4C0678A155047804F01F050124ED
:10117000AC4005786D114FF0E02606EB8505C5F80B
:10118000004109E0047804F01F050124AC40054D3E
:101190000678761145F8264070BD00000CED00E0A1
:1011A00000E400E080E100E002490143024A1160EE
:1011B000704700000000FA050CED00E070B598B033
:1011C0000024202110A8FEF7D6FF202108A8FEF752
:1011D000D2FF20216846FEF7CEFF81480068FFF766
:1011E00079F9054600227F4BFFF788F909D37C483F
:1011F0000068FFF76FF9054600227B4BFFF792F975
:1012000002D27AA001F0C6F875480068FFF762F9CB
:1012100005460022734BFFF785F90CD27048006831
:10122000FFF758F905460022774BFFF767F902D21E
:1012300076A001F0AFF86A480068FFF74BF9054661
:101240000022714BFFF76EF90CD265480068FFF77A
:1012500041F905460022744BFFF750F902D273A002
:1012600001F098F85E480068FFF734F9054600225F
:101270006D4BFFF757F90CD259480068FFF72AF970
:1012800005460022704BFFF739F902D26FA001F03A
:1012900081F853480068FFF71DF9054600226A4BA4
:1012A000FFF740F90CD24E480068FFF713F90546E6
:1012B00000226D4BFFF722F902D26CA001F06AF810
:1012C00047480068FFF706F905460022664BFFF71E
:1012D00029F90CD242480068FFF7FCF805460022C5
:1012E000694BFFF70BF902D268A001F053F83C48B4
:1012F0000068FFF7EFF805460022634BFFF712F98D
:101300000CD237480068FFF7E5F805460022664B27
:10131000FFF7F4F802D265A001F03CF8304800680D
:10132000FFF7D8F8054600225F4BFFF7FBF80CD219
:101330002B480068FFF7CEF8054600222A4BFFF73E
:10134000DDF802D260A001F025F866480078852813
:101350000AD0A52811D164A001F01CF8FFF74EFBBC
:1013600068A001F017F809E06BA001F013F8FFF78F
:1013700045FB70A001F00EF800E000BF00BF0820A0
:10138000FFF79EFB16480068FFF78BF805462A46D4
:101390006CA108A801F00EF808A971A000F0FAFFEE
:1013A0000F20FFF78DFB6F490D480068FEF7EEFE3A
:1013B0000546FFF776F804B2B4F5B47F02DDA4F574
:1013C000B47004B2224668A110A800F0F3FF10A97F
:1013D00063A000F0DFFF0820FFF772FB18B070BDBC
:1013E000780000200080364000187540445334389F
:1013F000283137302C3635302C27D5FDB1B1272C8C
:10140000312C30293B0D0A0000E050404453343861
:10141000283137302C3635302C27CEF7B1B1272C78
:10142000312C30293B0D0A0000205C4044533438F5
:10143000283137302C3635302C27D5FDCEF7272CE8
:10144000312C30293B0D0A0000B06340445334383E
:10145000283137302C3635302C27CEF7C4CF272C07
:10146000312C30293B0D0A00005069404453343878
:10147000283137302C3635302C27D5FDC4CF272CDA
:10148000312C30293B0D0A0000F06E4044533438B3
:10149000283137302C3635302C27B6ABC4CF272C2B
:1014A000312C30293B0D0A00004872404453343837
:1014B000283137302C3635302C27D5FDB6AB272CCC
:1014C000312C30293B0D0A00445334382831373051
:1014D0002C3635302C27B6ABB1B1272C312C302926
:1014E0003B0D0A0035000020445334382831373092
:1014F0002C3735302C2730784135272C312C3029AA
:101500000D0A0000504943283338302C3135302C37
:1015100038290D0A00000000445334382831373090
:101520002C3735302C2730783835272C312C302982
:101530000D0A00005049432838302C3235352C38FC
:10154000290D0A00445333322832302C3535302CE3
:1015500027253364B6C8272C312C30293B0D0A00CF
:10156000257300000000B4424D45545328302C250B
:1015700064290D0A0000000010B503211420FFF7B4
:101580002FFA10BD10B5142000F028FA044614F00C
:10159000030F03D10321142000F04DFC10BDF0B562
:1015A00087B00546002708210846FFF719FA0021F1
:1015B0000D2000F099FE80210E20FFF711FA9320F4
:1015C0008DF8040020208DF8050006A801AB02224A
:1015D00001A900900C2000F01AF8064686B90024F4
:1015E00007E001A8005D285501A8005D4740601C88
:1015F000C4B2042CF5DB01A8005DB84200D002267D
:1016000080210E2000F017FC304607B0F0BD2DE918
:10161000FE4F0646884691469A46DDF830B00220D5
:1016200002900020019000900C2E06D00E2E09D1C1
:10163000122001901020009005E0772001903020CA
:10164000009000E000BF00BF019840F08001022040
:1016500000F04AFE80210420FFF7C2F9002101209A
:1016600000F042FE80210A2000F0E5FB002505E0A5
:1016700018F80510092000F037FE6D1C4D45F7D312
:101680003146012000F030FE0C2E03D180210D20C8
:1016900000F0D1FB41F2680500BF042000F09EF984
:1016A00004466D1E2DB114F0010F02D100980442C2
:1016B000F3D080210D20FFF793F995B3062000F0B9
:1016C0008DF910F01B0F2DD10020029001982040C1
:1016D00010F0010F01D0012002900C2E24D10A201D
:1016E00000F07CF904460C2000F078F900F00707C0
:1016F0002FB1601E07EBC000CBF8000002E0E00055
:10170000CBF8000004B90124122C00DD12240025BE
:1017100005E0092000F062F90AF805006D1CA542F9
:10172000F7D301E00220029080210C2000F083FB1F
:101730000021012000F0D8FD0298BDE8FE8F70B5B1
:1017400088B005460C4608210846FFF749F90721ED
:101750000D2000F0C9FD0321142000F06CFB8DF872
:10176000085007A802AB012202A900900C20FFF745
:101770004EFF06464EB90798102806D19DF808007E
:1017800020709DF80900607000E00226304608B025
:1017900070BD000010B510211748FFF73DFA00BFDB
:1017A00010211548FFF736FA00BF10211248FFF745
:1017B00033FA0A2001F0BCFC0F21012000F094FD57
:1017C00000BF3D21112000F08FFD1E212D2000F0D3
:1017D0008BFD00212C2000F087FD8D212A2000F0B8
:1017E00083FD3E212B2000F07FFD4021152000F0DD
:1017F0007BFD002010BD0000000801407047000084
:1018000029B1064A92690243044B9A6104E0034AF3
:1018100092698243014B9A617047000000100240B8
:1018200030B500210022002400232D4D6D6805F005
:101830000C0121B1042905D0082923D105E0294D47
:10184000056022E0274D05601FE0254D6D6805F419
:101850007012234D6D6805F48034022505EB924229
:101860001CB9214D554305600BE01D4D6D6815F405
:10187000003F03D01C4D5543056002E0194D554310
:10188000056002E0174D056000BF00BF144D6D6894
:1018900005F0F0010909154D6B5C0568DD404560F8
:1018A0000F4D6D6805F4E061090A104D6B5C4568E9
:1018B000DD4085600A4D6D6805F46051C90A0B4D25
:1018C0006B5C4568DD40C560054D6D6805F44041C1
:1018D000890B074D6B5CC568B5FBF3F5056130BD41
:1018E0000010024000127A0000093D0014000020A0
:1018F0002400002010B50C495220FFF720FF0446B9
:1019000004B110BD0848FFF74AFE044604B1F8E7E9
:1019100005480078054908700846017804A000F0E1
:1019200039FD00BFEDE70000A400002035000020D5
:10193000BFA8D0F2C1D0BAC5A3BA25780000000074
:1019400010B500241648FFF758F900F00F0404F111
:10195000D0001449087008460078D02806D0D12855
:1019600007D0D2280BD0D32815D10EE0FFF746F8C8
:1019700011E0FFF743F80CA000F00CFD0BE0FFF7BF
:101980003DF80DA000F006FD05E0FFF737F80EA0CA
:1019900000F000FD00BF00BF0820FFF791F810BD68
:1019A000000C014028000020504943283332352CD8
:1019B00039352C31290D0A005049432833302C3158
:1019C00035352C31290D0A00504943283234302C4A
:1019D0003330352C31290D0A000000002DE9F0418B
:1019E0000646002502212948FFF714F9012127485E
:1019F000FFF710F97E2000EA460040F08007082437
:101A000018E007F08000802804D104211F48FFF768
:101A100003F903E004211D48FFF7FCF802211B48ED
:101A2000FFF7FAF87806070E02211848FFF7F2F8D8
:101A3000601EC4B2002CE4DC082214490020FFF729
:101A40001FFB082410E002211048FFF7E5F86806A4
:101A5000050E08210D48FFF7D4F8054302210B4875
:101A6000FFF7D8F8601EC4B2002CECDC082207494E
:101A70000120FFF705FB01210448FFF7CDF8022103
:101A80000248FFF7C9F82846BDE8F0810008014088
:101A90002DE9FF5F002002900390012203210DF148
:101AA0000900FFF7B1F9012204210DF10A00FFF747
:101AB000ABF9012207210DF10B00FFF7A5F9012277
:101AC000082103A8FFF7A0F9012205210DF10D005F
:101AD000FFF79AF9012206210DF10E00FFF794F9A4
:101AE0009DF80A009DF8091040EA01204549086068
:101AF0009DF80C009DF80B1040EA01204249086057
:101B00009DF80E009DF80D1040EA01203F49086045
:101B10003C480068FEF7ABFC05463D480168284696
:101B2000FEF786FB0446FEF7BCFC364908603648E3
:101B30000068FEF79CFC0546364801682846FEF71B
:101B400077FB0446FEF7ADFC2F4908602F4800687C
:101B5000FEF78DFC0546304801682846FEF768FB15
:101B60000446FEF79EFC2949086026480068B0F547
:101B7000004F06DB23480068A0F57F40FF3821496D
:101B8000086021480068B0F5004F06DB1E48006879
:101B9000A0F57F40FF381C4908601C480068B0F57C
:101BA000004F06DB19480068A0F57F40FF38174951
:101BB000086014480068FEF763FC06460F461248AA
:101BC0000068FEF75DFC804632463B4601F0F0F9C6
:101BD0000446124A124BFEF7D8FB82460022114BF4
:101BE000FEF72CFBCDE90001FEF7B0FC0E490860C2
:101BF0000E490D480068FEF71BFB0B490860BDE865
:101C0000FF9F000054000020580000205C000020CE
:101C10007C0000208000002084000020775AF01A09
:101C2000DCA54C4000806640780000200000404069
:101C300010B54FF47A70FEF743FF13A000F0AAFB33
:101C40001920FEF73DFF12A000F0A4FB4FF4FA703C
:101C5000FEF736FF12A000F09DFB1920FEF730FFC3
:101C600018A000F097FB1920FEF72AFF1DA000F036
:101C700091FB1920FEF724FF23A000F08BFB192015
:101C8000FEF71EFF10BD00004452330D0A00000095
:101C90004250494328302C302C302C36290D0A0074
:101CA000445334382839352C31302C27B4C5C1A6DB
:101CB000BCC6D0A3D7BC2E2E2E272C312C30290DFC
:101CC0000A000000445334382839352C3333302C83
:101CD00027C7EBCED5D7A1C9E8B1B8272C312C3016
:101CE000290D0A00445334382839352C3430302C2F
:101CF00027D7F638D7D6BBB7C8C6B6AFD7F7272C85
:101D0000312C30290D0A0000445334382839352C41
:101D10003437302C27B0B44331BCFCCDCBB3F627DD
:101D20002C312C30290D0A0010B516A000F032FB22
:101D30004FF4FA70FEF7C4FE16A000F02BFB19203A
:101D4000FEF7BEFE1CA000F025FB6420FEF7B8FEE7
:101D50001DA000F01FFB6420FEF7B2FE1FA000F0E4
:101D600019FB6420FEF7ACFE24A000F013FB6420F6
:101D7000FEF7A6FE28A000F00DFB6420FEF7A0FEF3
:101D800010BD00004250494328302C302C302C36F6
:101D9000290D0A00445334382839352C31302C278A
:101DA000C7E0B5BAC0EDB9A4B4F3D1A7272C312C44
:101DB00030290D0A0000000050494328302C3730EC
:101DC0002C35290D0A000000504943283133302CAE
:101DD0003430302C33290D0A000000004D455445A5
:101DE00028302C3133302C3430302C37302C332CFD
:101DF000332C362C30290D0A0000000044533438AF
:101E00002832302C3635302C27B7BDCFF23A272C6C
:101E1000312C30290D0A0000445334382832302C3C
:101E20003735302C27BFA8BAC53A272C312C30299A
:101E30000D0A0000704770B505460C46002628467E
:101E4000FFF7CCFD064646EA0401284600F04CFAAE
:101E500070BD10B500F002F810BD00000CB50020F8
:101E6000019000903248006840F4803030490860AA
:101E700000BF2F48006800F4003000900198401C1B
:101E80000190009818B90198B0F5A06FF1D12848D9
:101E9000006810F4003F02D00120009001E0002013
:101EA00000900098012842D12248006840F01000BC
:101EB000204908600846006820F0030008600846D2
:101EC000006840F0020008601948406818494860FE
:101ED0000846406848600846406840F480604860B2
:101EE0000846406820F47C1048600846406840F48A
:101EF000E81048600846006840F08070086000BF45
:101F00000B48006810F0007FFAD00948406820F0C4
:101F10000300074948600846406840F002004860F6
:101F200000BF0348406800F00C000828F9D10CBD40
:101F3000001002400020024010B500F097F80F4852
:101F40000068401C0D490860084600686421B0FB29
:101F5000F1F201FB120010B901200949087007488D
:101F600000684FF47A71B0FBF1F201FB120020B966
:101F700004480068401C0349086010BD2C00002084
:101F8000340000203000002030B51D4800684FF4B8
:101F90007A72B0FBF2F1B1F1807F01D301201DE034
:101FA00021F07F40401E4FF0E022506150170F2279
:101FB000002807DA13071D0E124B00F00F04241F30
:101FC0001D5503E013071C0E0F4B1C5400BF0020CF
:101FD0004FF0E022906107201061002008B100BF9F
:101FE000FEE74FF0E020006920F001004FF0E02113
:101FF00008610846006940F00100086130BD00003A
:102000000000002018ED00E000E400E010B51348E7
:10201000006840F001001149086008464068104916
:1020200008400E494860084600680E4908400B49C0
:1020300008600846006820F4802008600846406870
:1020400020F4FE0048604FF41F008860FFF701FF96
:102050004FF000600449086010BD0000001002400D
:102060000000FFF8FFFFF6FE08ED00E004480068FE
:1020700020B103480068401E014908607047000015
:102080003800002000B585B0012144F20400FFF7BC
:10209000B7FB4FF40070ADF8100018208DF8130056
:1020A00003208DF8120004A91648FEF71DFD4FF419
:1020B0008060ADF8100004208DF8130004A91148C9
:1020C000FEF712FD4FF4E13000900020ADF804005F
:1020D000ADF80600ADF80800ADF80C000C20ADF826
:1020E0000A006946084800F087F8012240F22551AD
:1020F000054800F05CF80121034800F015F805B030
:1021000000BD0000000801400038014010B540F259
:102110002551044800F021F810B1024800F0D8F829
:1021200010BD00000038014021B1828942F4005204
:10213000828104E082894DF6FF731A4082817047E4
:1021400002460020B1F5007F00D100BF13880B428A
:1021500001D0012000E00020704770B50246002445
:10216000002300250020A1F510666A3E00D100BFC3
:10217000C1F3421501F01F03012606FA03F3012DF6
:1021800002D19689334006E0022D02D1168A3340EF
:1021900001E0968A33400C12012606FA04F41688F0
:1021A000344013B10CB1012000E0002070BDF0B547
:1021B00003460024002600250020A1F510676A3F91
:1021C00000D100BF1846C1F3421401F01F060127D9
:1021D00007FA06F5012C01D10C3004E0022C01D1E4
:1021E000103000E014301AB107682F43076002E096
:1021F0000768AF430760F0BD2DE9F04786B005469C
:102200000E460024A24600BFA1460027B08900B1B7
:1022100000BF2F462C8A4CF6FF700440F088044320
:102220002C82AC894EF6F3100440B0883189084303
:10223000718908430443AC81AC8A4FF6FF400440E7
:10224000B0890443AC8201A8FFF7EAFA1F4887422D
:1022500002D1DDF810A001E0DDF80CA0A88910F48F
:10226000004F08D00AEBCA0000EB0A1031684900A1
:10227000B0FBF1F807E00AEBCA0000EB0A10316886
:102280008900B0FBF1F86420B8FBF0F004012009EC
:10229000642101FB1089A88910F4004F08D0322076
:1022A00000EBC900B0FBF1F000F00700044308E0C8
:1022B000322000EB09106421B0FBF1F000F00F00B8
:1022C00004432C8106B0BDE8F087000000380140CF
:1022D00001468888C0F308007047C1F30802828075
:1022E000704700BFFEE700002DE9F04106460D46AD
:1022F00002212748FEF78EFC01212548FEF78AFCC3
:102300007E2000EA4607082418E007F080008028B5
:1023100004D104211E48FEF77FFC03E004211C4881
:10232000FEF778FC02211A48FEF776FC7806070EC5
:1023300002211748FEF76EFC601EC4B2002CE4DCDC
:10234000082418E005F08000802804D104211048FA
:10235000FEF762FC03E004210D48FEF75BFC02215E
:102360000B48FEF759FC6806050E02210848FEF7E7
:1023700051FC601EC4B2002CE4DC01210448FEF7CD
:102380004BFC02210248FEF747FCBDE8F08100004B
:10239000000801400FB4054B10B503A9044A029888
:1023A00000F04CF910BC5DF814FB00004931000846
:1023B000A00000200FB4084B10B504A902AA03988E
:1023C00000F03CF9044602A9002000F0DAFC2046A7
:1023D00010BC5DF814FB0000832D0008490050EA92
:1023E000C12018BF04204A0D18BF40F0010040F280
:1023F000FF72B2EB515F08BF40F00200012808BF36
:10240000052070472DE9F0414F1E00EBC70104463F
:10241000D1E9000115461E4637F006020DD02A46C6
:102420003346FDF7B2FF7F1E04EBC703D3E9002359
:10243000FDF704FF37F00602F1D1022F25D0042F5B
:1024400013D0062F18BFBDE8F0812A463346FDF7AA
:102450009CFFD4E90A23FDF7F1FE2A463346FDF737
:1024600094FFD4E90823FDF7E9FE2A463346FDF739
:102470008CFFD4E90623FDF7E1FE2A463346FDF73B
:1024800084FFD4E90423FDF7D9FE2A463346FDF73D
:102490007CFFD4E90223FDF7D1FE2A463346FDF73F
:1024A00074FFD4E90023BDE8F041FDF7C7BE00008A
:1024B000024A00201107FEF70BBA000001FDFFFFE2
:1024C00002E008C8121F08C1002AFAD170477047FD
:1024D000002001E001C1121F002AFBD1704700005B
:1024E0002DE9FF5FDDE90220010DDDF838B0024380
:1024F00010D10F9801244CA2012808D00021009887
:102500000F9BC0E90021C0E90243BDE8FF9F6FEACD
:102510000B01F4E7A1F2FF3144F6105041430D14D2
:102520000F9801280ED0A5EB0B00401C4FF00004C3
:102530003E4EDFF8FC90B0F1000AA04605DACAF181
:10254000000717E0CBF10000F0E7074612E0F807BC
:1025500007D02246334640464946FDF716FF8046DF
:1025600089462246334610461946FDF70EFF0446BB
:102570000E467F10002FEAD1DDE90201BAF1000F0B
:1025800042464B4602DAFDF700FF01E0FEF7F7F89E
:1025900004460E460022274BFDF7C4FF03D84FF038
:1025A000FF30014607E00022234B20463146FDF76D
:1025B00045FEFEF753F9102409E0002C0ADB0A223D
:1025C0000023FDF7F5FF019B30321A55641E50EAD7
:1025D0000102F2D1641C019AC4F1110314440F9A50
:1025E000012A09D00122084301D15B450FDD4FF0DC
:1025F000000205F101050DE0084303D1A3EB0B0533
:102600006D1E09E000204FF0110B0F9088E701DAF2
:1026100000226D1E002A83D000980F99C0E9023174
:10262000C0E9004571E700003000000000002440D0
:102630000000F03F0000F0430000E03F2DE9FF4FB5
:1026400095B09B4689460646002512E2252878D19A
:102650000024761CF94A2746012105943378203B53
:1026600001FA03F0104202D00443761CF6E73078FA
:102670002A2811D06FF02F033078A0F13002092AF8
:1026800016D8059A44F0020402EB820203EB4202E0
:102690001044761C0590EFE759F8042B0592002AA8
:1026A00003DA504244F40054059044F00204761CCE
:1026B00030782E2816D116F8010F44F004042A2889
:1026C0000DD06FF02F023078A0F13003092B09D81C
:1026D00007EB870302EB4303C718761CF3E759F8AF
:1026E000047B761C30786C280FD006DC4C2817D081
:1026F00068280DD06A2814D104E0742810D07A28F4
:102700000FD10DE044F400140AE044F4801401E019
:1027100044F440147278824202D1761C04F580148D
:10272000761C307866280BD013DC582877D009DC6B
:10273000002875D04528F6D04628F4D047281AD16D
:102740009FE118E0632835D0642879D0652812D13C
:1027500097E1702873D008DC6728F1D069286FD022
:102760006E280DD06F2806D1B5E073282CD07528BF
:1027700075D0782874D05A46179990476D1C76E129
:10278000C4F30250022809D003280DD0D9F8001054
:1027900004280DD00D6009F1040968E1D9F8001092
:1027A000EA17C1E90052F6E7D9F800100D80F2E708
:1027B0000D70F0E719F8041B8DF8001000208DF85B
:1027C0000100EA46012003E059F804AB4FF0FF3066
:1027D00061074FF0000102D40DE008F101018846C5
:1027E000B9420FDA8045F8DB1AF808100029F4D155
:1027F00008E008F1010188468142FADB1AF8081066
:102800000029F6D105985B46A0EB0807214638461B
:10281000179A00F09EFA284400EB080507E04DE007
:102820002BE10DE01AF8010B5A4617999047B8F1C1
:102830000108F7D25B4621463846179A14E142E078
:102840000A220092C4F302524FF0000A022A08D072
:1028500059F804CB032A4FEAEC710AD00DE029E0C5
:102860002AE009F1070121F00702F2E802C19146CE
:1028700009E00FFA8CFC4FEAEC71042A03D14FFAFD
:102880008CFC4FEAEC71002907DA0A460021DCF1E2
:10289000000C61EB02012D2202E0220504D52B225F
:1028A0008DF80420012203E0E20701D02022F7E79F
:1028B000904653E00A2102E010220DE010214FF073
:1028C000000A00910BE010224FF0000A44F00404CB
:1028D0000827009203E008224FF0000A0092C4F398
:1028E0000252022A05D059F804CB0021032A08D04D
:1028F00009E009F1070121F00702F2E802C191465F
:1029000005E01FFA8CFC042A01D10CF0FF0C4FF0FB
:102910000008220722D5702827D0009B83F01003DF
:1029200053EA0A0309D15CEA010206D030228DF88D
:1029300004208DF8050002229046009B83F00803D6
:1029400053EA0A030AD15CEA010201D1620705D504
:1029500030228DF804204FF001087F1E582809D03E
:1029600037A003900EA8029013E040228DF80420B7
:102970000122E1E737A0F4E753466046009AFDF7ED
:1029800017FE84460398825C0298A0F10100029031
:1029900002705CEA0100EFD1029806A9A1EB0000E9
:1029A00000F1200A600702D524F4803400E00127FA
:1029B000574502DDA7EB0A0000E0002000EB0A010A
:1029C000009005984144A0EB01000590E00306D477
:1029D0005B462146179A059800F0BBF9054400278D
:1029E00006E001A85A46C05D179990476D1C7F1CF0
:1029F0004745F6DBE0030CD55B462146179A059860
:102A000000F0A7F9054404E030205A461799904792
:102A10006D1C0099481E00900029F5DC08E0029822
:102A200002995A460078491C0291179990476D1CEB
:102A3000BAF10001AAF1010AF1DC6BE109280100F9
:102A40003031323334353637383961626364656624
:102A500000000000303132333435363738394142E6
:102A6000434445460000000000F060F9054406F1CB
:102A70000106307800287FF4E9AD19B02846BDE89A
:102A8000F08F620700D4062709F1070222F0070C35
:102A9000FCE80223E14603F000485FEA080C02D09C
:102AA0000FF27C2C0DE05FEA045C02D50FF2742C6F
:102AB00007E05FEAC47C02D00FF26C2C01E0AFF2B9
:102AC000700C4FF0FF3823F00043CDF850C065285C
:102AD0000CD006DC452809D046281DD047283ED119
:102AE0003EE0662818D0672839D139E00021112F3F
:102AF00001DB112000E0781CCDE9000106A90EA839
:102B0000FFF7EEFCDDE90F010E9A03910021009220
:102B100007F1010A04914EE04FF000400097CDE923
:102B2000011006A90EA8FFF7DBFCDDE90F020392F6
:102B30000E9B11990022DDF80CA00093049219B9A4
:102B400007F1010100EB010AB7EB0A0004D4C0F160
:102B5000FF3007F1010A0490AAEB0700019046E05C
:102B6000012F00DA01270021112F01DD112000E0E3
:102B70003846CDE9000106A90EA8FFF7B1FCDDE952
:102B80000F010E9A0391002104910092BA46210789
:102B90000CD40399514500DA8A46BAF1010F05DDDC
:102BA000009AAAF10101515C302908D0B84202DA3A
:102BB00010F1040F06DA0121CDE9011017E0AAF1A6
:102BC0000101E9E7002805DC049901440491AAEB1E
:102BD000000102E0411C514500DD8A460499A0EB4A
:102BE000010000F1010001904FF000400290200729
:102BF00004D40198504501DBCDF8048000208DF805
:102C00004F0002980DF14F07B0F1004F25D02B2057
:102C10000E9002984FF0020800280CDA4042029011
:102C20002D200E9007E00A210298FDF7ABFC303111
:102C3000029007F8011DB8F10001A8F10108F2DCCB
:102C400002980028EFD1791E0E980870307800F0B5
:102C5000200040F0450007F8020D12A8A0EB070085
:102C600000F107081498007800B1012000EB0A0178
:102C7000019801EBE07105984144A0EB0100A0F13F
:102C800001000590E00306D45B462146179A05989B
:102C900000F05FF805441498007820B15A4617995F
:102CA000904705F10105E00323D55B462146179ABD
:102CB000059800F04EF805441BE00498002807DB57
:102CC000DDE90301884203DD0098405C179901E0CB
:102CD000179930205A46904704986D1C401C049068
:102CE0000198401E019004D12E205A461799904712
:102CF0006D1CBAF10001AAF1010ADEDC05E017F84B
:102D0000010B5A46179990476D1CB8F10001A8F1C4
:102D10000108F4DC5B462146179A0598A4E60000FA
:102D20002D0000002B000000200000002DE9F041E4
:102D3000044600251E461746880405D406E0394699
:102D40002020B04705F10105641EF8D52846BDE8EE
:102D5000F0812DE9F041044600251E469046C80347
:102D600001D5302700E02027880405D506E041463C
:102D70003846B04705F10105641EF8D52846BDE880
:102D8000F0810A68531C0B60107070472DE9F84FF2
:102D900004460D4621F0004000917449814213DC45
:102DA0007349884201DC08D13CB120462946BDE880
:102DB000F84F4FF00102FDF78BBD6E48002DCCBFE0
:102DC0006D496E49BDE8F88F6D49814211DD6D494D
:102DD0008142D8BF4FF0FF366DDD20462946FFF710
:102DE000FDFA042808BFFFF763FB20462946BDE82B
:102DF000F88F6549654F25F00045814233DD644910
:102E0000814219DD002632464FF080432046294694
:102E1000FDF714FA80468A46012220462946FDF72E
:102E200057FD00223B46FDF7AAFA42465346FDF7FE
:102E3000A6FC04460D463EE001260022BA463B466B
:102E400020462946FDF7FAF980460F4600225346F0
:102E500020462946FDF793FA42463B46FDF78FFC94
:102E600004460D4627E04B4981421BDDDFF82881EF
:102E700002260022434620462946FDF786FA002214
:102E80003B46FDF7DBF907468A46002243462046CB
:102E90002946FDF774FA3A465346FDF770FC04469E
:102EA0000D4608E0032622462B4600203B49FDF74D
:102EB00066FC04460D4622462B4610461946FDF791
:102EC00064FA8B46824602460B46FDF75EFA0746D9
:102ED0000246334888460B4606217844FFF792FAAB
:102EE00052465B46FDF751FA82462E488B463A46DB
:102EF000434605217844FFF785FA3A464346FDF7F5
:102F000044FA02460B46002E504659460CDAFDF7AD
:102F100095F922462B46FDF738FA01B022462B469A
:102F2000BDE8F04FFDF72EBAFDF788F922462B4693
:102F3000FDF72BFA1C4A7A4402EBC603D3E90023BF
:102F4000FDF71DFA22462B46FDF719FA174A7A4477
:102F500002EBC603D3E90023FDF714FA009A002A16
:102F6000B8BF81F00041BDE8F88F000000001044B8
:102F70000000F07F182D4454FB21F93FFB21F9BFDD
:102F80000000DC3F0000203E0000F33F0000F03F67
:102F90000000E63F008003400000F83F0000F0BF63
:102FA000A205000060050000FE040000C604000049
:102FB0002DE9F04D9446CCF1000423F000464CEA94
:102FC0000404524F46EAD4749A46884621F00042DF
:102FD000BC4206D8454240EA050442EAD474BC42E9
:102FE00004D9BDE8F04D6246FDF728B9AAF1405575
:102FF000A5F17F6555EA0C040BD0022404EAAA74FB
:10300000434DDFF810E144EAD87452EA000B04D0D3
:103010000CE0BDE8F04DFFF7B9BE002C14BF012C49
:10302000BDE8F08D022C30D0032C32D056EA0C0BC8
:103030000AD0BE4220D1BA4209D126F0804622F001
:1030400080423346114617E000291ADB25E0DFF8FD
:10305000C8B0FB44002C04BFDBE90001BDE8F08DE3
:10306000012C02BFDBE9000181F00041BDE8F08DD9
:10307000022C0AD0032C0CD0BA4212D1B8F1000FA6
:103080000BDA23482549BDE8F08D28462449BDE8E0
:10309000F08D28467146BDE8F08D1D482149BDE8F8
:1030A000F08D921B12153C2AC4BF19481D490EDC35
:1030B000BAF1000FBEBF12F13C0F0020014606DB43
:1030C0006246FDF75CFB21F00041FFF75FFE002C3C
:1030D00008BFBDE8F08D012C04BF81F00041BDE8C0
:1030E000F08D114A114B022C07D0FDF748F92A4602
:1030F000BDE8F04D0A4BFDF742B9FDF740F92A460D
:10310000BDE8F04D064BFDF73DB900000000F07F33
:10311000182D4454FB2109C05A040000FB21F9BFBB
:10312000FB210940FB21F93F075C143326A6A13C93
:10313000014605E06E2200E0521E002AFCD1491E25
:103140000029F7D17047000070B504460D46E1B282
:103150000548FFF7C2F800BF40210348FEF7F0FF23
:103160000028F9D0204670BD0038014010B540213C
:103170000B48FDF74FFD00F03DF820210848FDF712
:103180004BFD00F037F820210548FDF743FD00F026
:1031900031F840210248FDF73FFD00F02BF810BD4B
:1031A000000C014008B501210820FEF729FB602032
:1031B000ADF8000003208DF8020014208DF8030004
:1031C00069460348FDF790FC00F0A0F808BD000038
:1031D000000C014070B50446FFF7E4FF00F07CF8F6
:1031E000204600F049F800F0A5F8054600F08EF8FA
:1031F000284670BD002001E0411CC8B20A28FBDB54
:103200007047000010B540210848FDF705FDFFF7A5
:10321000F1FF20210548FDF7FFFCFFF7EBFF202120
:103220000248FDF7F7FCFFF7E5FF10BD000C014079
:1032300070B50024002516E06006040E20210D481C
:10324000FDF7EAFCFFF7D6FF40210A48FDF7D9FC5D
:1032500008B1601CC4B220210648FDF7DBFCFFF773
:10326000C9FF681CC5B2082DE6DBFFF7C3FF204687
:1032700070BD0000000C014070B50446002523E03D
:1032800014F0800F04D040211248FDF7C5FC03E084
:1032900040211048FDF7BEFCFFF7ACFF20210D4890
:1032A000FDF7BAFCFFF7A6FF20210A48FDF7B2FCA4
:1032B000072D03D140210748FDF7AEFC6006040E40
:1032C000FFF798FF681CC5B2082DD9DBFFF792FF06
:1032D00070BD0000000C014010B540210A48FDF708
:1032E0009BFC20210848FDF797FCFFF783FF402156
:1032F0000548FDF78FFCFFF77DFF20210248FDF711
:1033000089FCFFF777FF10BD000C014010B540218C
:103310000748FDF77FFC20210548FDF77DFCFFF7FE
:1033200069FF40210248FDF777FCFFF763FF10BDFE
:10333000000C014010B540210D48FDF76DFCFFF772
:1033400059FF20210A48FDF767FCFFF753FF402192
:103350000748FDF756FC08B1012400E000242021B5
:103360000348FDF757FCFFF745FF204610BD00005E
:10337000000C0140FEF786FEFDF79BFEFEF704FE03
:10338000FDF762FEFDF74AFEFDF7F8FDFDF70CFEC6
:103390004FF480701A49086000201A4908601AA08A
:1033A000FEF7F8FFFEF744FCFDF71AFEFDF736FCCA
:1033B000FEF7BAFC00BF1648007850B1FEF7C0FA1D
:1033C000FEF798FAFEF764FBFDF7F8FE00201049BF
:1033D00008700C4800684FF47A71B0FBF1F201FB01
:1033E0001200B0F5FA7F04D24FF4807004490860EF
:1033F000E1E74FF480700249091F0860DBE7000035
:10340000140C01402C00002053544152540D0A006A
:1034100034000020000000004FBB610567ACDD3FB9
:10342000182D4454FB21E93F9BF681D20B73EF3FEB
:10343000182D4454FB21F93FE2652F227F2B7A3C63
:10344000075C143326A6813CBDCBF07A8807703C1C
:10345000075C143326A6913CC4EB98999999C9BF8F
:10346000711623FEC671BCBF6D9A74AFF2B0B3BFC4
:103470009AFDDE522DDEADBF2F6C6A2C44B4A2BF84
:103480000D5555555555D53FFF8300922449C23FF0
:103490006E204CC5CD45B73F513DD0A0660DB13F24
:1034A000EB0D76244B7BA93F11DA22E33AAD903F36
:1034B0000000000000000000D834000800000020D8
:1034C000A4000000C02400087C350008A4000020EF
:1034D00014040000D024000800A24A0400000000E8
:1034E00000000000010203040607080900000000B4
:1034F0000102030401020304060708090204060886
:10350000D0000000000000000000000000000000EB
:1035100000000000000000000000000000000000AB
:10352000000000000000000000000000000000009B
:10353000000000000000000000000000000000008B
:10354000000000000000000000000000000000007B
:10355000000000000000000000000000000000006B
:10356000000000000000000000000000000000005B
:0C3570000000000000000000000000004F
:0400000508000131BD
:00000001FF
